{
	"data": {
		"bytecode": {
			"linkReferences": {},
			"object": "608060405260646007556802b5e3af16b18800006008556611c37937e080006009553480156200002e57600080fd5b5060405162003dfb38038062003dfb8339810160408190526200005191620001fd565b6001600081815581546001600160a01b031916339081179092556040518291907f8be0079c531659141344cd1fd0a4f28419497f9722a3daafe3b4186f6b6457e0908290a350600b80546001600160a01b039384166001600160a01b0319918216178255600c805493909416921691909117909155600f6020527ff4803e074bd026baaf6ed2e288c9515f68c72fb7216eebdd7cae1718a53ec375805463ffffffff199081166001179091557f169f97de0d9a84d840042b17d3c6b9638b3d6fd9024c9eb0c7a306a17b49f88f805482169092179091557fa74ba3945261e09fde15ba3db55005b205e61eeb4ad811ac0faa2b315bffeead80548216606f1790557f45f76dafbbad695564362934e24d72eedc57f9fc1a65f39bca62176cc8296828805482166104571790557f367ccd2d0ac16bf7110a5dffe0801fdc9452a95a1adb7e1a12fe97dd3e9a4edd80548216612b6717905560056000527f6bda57492eba051cb4a12a1e19df47c9755d78165341d4009b1d09b3f361620480549091166201b20717905562000234565b80516001600160a01b0381168114620001f857600080fd5b919050565b6000806040838503121562000210578182fd5b6200021b83620001e0565b91506200022b60208401620001e0565b90509250929050565b613bb780620002446000396000f3fe608060405234801561001057600080fd5b50600436106102115760003560e01c806388303dbd11610125578063c4937ab9116100ad578063da7429f81161007c578063da7429f814610444578063db19da0d14610457578063dcbad90d14610461578063f2b3c80914610474578063f2fde38b1461047d57600080fd5b8063c4937ab9146103f8578063c5f956af1461040b578063c914914f1461041e578063da4ca0391461043157600080fd5b806398359fa1116100f457806398359fa1146103995780639c384653146103ac5780639d8ca531146103bf578063b1829b82146103d2578063c38de539146103e557600080fd5b806388303dbd146103415780638904bf2f146103545780638da5cb5b146103675780638fc3539a1461037857600080fd5b806331feb565116101a85780636b873788116101775780636b8737881461030c5780636be4097c1461031f578063715018a6146103285780637cb583bd1461033057806380a061601461033957600080fd5b806331feb565146102d25780633f138d4b146102db578063471aeab4146102f0578063686465b81461030357600080fd5b80631f73664b116101e45780631f73664b1461028d5780631fe86c6b146102965780632423807a1461029f5780632e530cae146102bf57600080fd5b806305531eeb1461021657806307fb5a9c14610242578063127effb21461025957806312a9769d14610284575b600080fd5b6102296102243660046132da565b610490565b6040516102399493929190613669565b60405180910390f35b61024b61371481565b604051908152602001610239565b60035461026c906001600160a01b031681565b6040516001600160a01b039091168152602001610239565b61024b600a5481565b61024b60085481565b61024b60075481565b6102b26102ad36600461336e565b610808565b6040516102399190613800565b61024b6102cd366004613527565b610985565b61024b60095481565b6102ee6102e93660046132b1565b610a1a565b005b6102ee6102fe36600461348e565b610afc565b61024b60065481565b6102ee61031a36600461336e565b610c4d565b61024b60055481565b6102ee610cb7565b61024b61012c81565b60055461024b565b6102ee61034f366004613415565b610d2b565b600b5461026c906001600160a01b031681565b6001546001600160a01b031661026c565b61038b610386366004613312565b61130c565b6040516102399291906136dd565b6102ee6103a7366004613255565b611528565b60025461026c906001600160a01b031681565b6102ee6103cd36600461336e565b611724565b6102ee6103e03660046134da565b61193a565b6102ee6103f336600461345f565b611e40565b61024b6104063660046134af565b612438565b60045461026c906001600160a01b031681565b6102ee61042c36600461339e565b6124e4565b6102ee61043f36600461326f565b612aa1565b6102ee61045236600461348e565b612bc1565b61024b6205472c81565b600c5461026c906001600160a01b031681565b61024b610bb881565b6102ee61048b366004613255565b612c46565b6001600160a01b0384166000908152601160209081526040808320868452909152812054606091829182919085906104c88882613a68565b8211156104dc576104d98882613a68565b91505b60008267ffffffffffffffff81111561050557634e487b7160e01b600052604160045260246000fd5b60405190808252806020026020018201604052801561052e578160200160208202803683370190505b50905060008367ffffffffffffffff81111561055a57634e487b7160e01b600052604160045260246000fd5b604051908082528060200260200182016040528015610583578160200160208202803683370190505b50905060008467ffffffffffffffff8111156105af57634e487b7160e01b600052604160045260246000fd5b6040519080825280602002602001820160405280156105d8578160200160208202803683370190505b50905060005b858110156107e257601160008f6001600160a01b03166001600160a01b0316815260200190815260200160002060008e81526020019081526020016000208c8261062891906138c3565b8154811061064657634e487b7160e01b600052603260045260246000fd5b906000526020600020015484828151811061067157634e487b7160e01b600052603260045260246000fd5b602002602001018181525050600e60008583815181106106a157634e487b7160e01b600052603260045260246000fd5b6020026020010151815260200190815260200160002060000160009054906101000a900463ffffffff168382815181106106eb57634e487b7160e01b600052603260045260246000fd5b602002602001019063ffffffff16908163ffffffff168152505060006001600160a01b0316600e600086848151811061073457634e487b7160e01b600052603260045260246000fd5b60209081029190910181015182528101919091526040016000205464010000000090046001600160a01b0316141561079d57600182828151811061078857634e487b7160e01b600052603260045260246000fd5b911515602092830291909101909101526107d0565b60008282815181106107bf57634e487b7160e01b600052603260045260246000fd5b911515602092830291909101909101525b806107da81613ad0565b9150506105de565b508282826107f0888f6138c3565b98509850985098505050505050945094509450949050565b610810613104565b6000828152600d60205260409081902081516101a081019092528054829060ff16600381111561085057634e487b7160e01b600052602160045260246000fd5b600381111561086f57634e487b7160e01b600052602160045260246000fd5b81526001820154602082015260028201546040808301919091526003830154606083015260048301546080830152805160c081019182905260a09092019190600584019060069082845b8154815260200190600101908083116108b9575050509183525050600b82015460208201526040805160c081018252910190600c830160068282826020028201915b8154815260200190600101908083116108fb5750505091835250506040805160c081019182905260209092019190601284019060069082845b8154815260200190600101908083116109345750505091835250506018820154602082015260198201546040820152601a8201546060820152601b9091015463ffffffff1660809091015292915050565b600060036000858152600d602052604090205460ff1660038111156109ba57634e487b7160e01b600052602160045260246000fd5b146109c757506000610a13565b6000848152600d6020526040902060190154831180156109f857506000848152600d60205260409020601801548311155b15610a0557506000610a13565b610a10848484612d31565b90505b9392505050565b6001546001600160a01b03163314610a4d5760405162461bcd60e51b8152600401610a449061376e565b60405180910390fd5b600b546001600160a01b0383811691161415610aa25760405162461bcd60e51b815260206004820152601460248201527321b0b73737ba1031329021a0a5a2903a37b5b2b760611b6044820152606401610a44565b610ab66001600160a01b0383163383612e4a565b604080516001600160a01b0384168152602081018390527f74545154aac348a3eac92596bd1971957ca94795f4e954ec5f613b55fab78129910160405180910390a15050565b6001546001600160a01b0316331480610b1f57506002546001600160a01b031633145b610b635760405162461bcd60e51b81526020600482015260156024820152742737ba1037bbb732b91037b91034b73532b1ba37b960591b6044820152606401610a44565b60016000838152600d602052604090205460ff166003811115610b9657634e487b7160e01b600052602160045260246000fd5b14610bd65760405162461bcd60e51b815260206004820152601060248201526f2637ba3a32b93c903737ba1037b832b760811b6044820152606401610a44565b600b54610bee906001600160a01b0316333084612eb2565b6000828152600d60205260408120601a018054839290610c0f9084906138c3565b909155505060405181815282907f1bbd659dd628a25f7ff2eabb69c74a56939c539728282275c1c9c1a2d3e340499060200160405180910390a25050565b6001546001600160a01b03163314610c775760405162461bcd60e51b8152600401610a449061376e565b80610cb25760405162461bcd60e51b815260206004820152600b60248201526a04d757374206265203e20360ac1b6044820152606401610a44565b600755565b6001546001600160a01b03163314610ce15760405162461bcd60e51b8152600401610a449061376e565b6001546040516000916001600160a01b0316907f8be0079c531659141344cd1fd0a4f28419497f9722a3daafe3b4186f6b6457e0908390a3600180546001600160a01b0319169055565b333b15610d715760405162461bcd60e51b815260206004820152601460248201527310dbdb9d1c9858dd081b9bdd08185b1b1bddd95960621b6044820152606401610a44565b333214610dc05760405162461bcd60e51b815260206004820152601a60248201527f50726f787920636f6e7472616374206e6f7420616c6c6f7765640000000000006044820152606401610a44565b60026000541415610de35760405162461bcd60e51b8152600401610a44906137a3565b600260005580610e2b5760405162461bcd60e51b8152602060048201526013602482015272139bc81d1a58dad95d081cdc1958da599a5959606a1b6044820152606401610a44565b600754811115610e705760405162461bcd60e51b815260206004820152601060248201526f546f6f206d616e79207469636b65747360801b6044820152606401610a44565b60016000848152600d602052604090205460ff166003811115610ea357634e487b7160e01b600052602160045260246000fd5b14610ee65760405162461bcd60e51b81526020600482015260136024820152722637ba3a32b93c9034b9903737ba1037b832b760691b6044820152606401610a44565b6000838152600d60205260409020600201544210610f385760405162461bcd60e51b815260206004820152600f60248201526e2637ba3a32b93c9034b99037bb32b960891b6044820152606401610a44565b6000838152600d602052604081206004810154600390910154610f5c919084612ef0565b600b54909150610f77906001600160a01b0316333084612eb2565b6000848152600d60205260408120601a018054839290610f989084906138c3565b90915550600090505b828110156112c9576000848483818110610fcb57634e487b7160e01b600052603260045260246000fd5b9050602002016020810190610fe0919061355f565b9050620f42408163ffffffff16101580156110045750621e847f8163ffffffff1611155b6110405760405162461bcd60e51b815260206004820152600d60248201526c4f7574736964652072616e676560981b6044820152606401610a44565b60008681526010602052604081209061105a600a84613b0f565b6110659060016138db565b63ffffffff1681526020810191909152604001600090812080549161108983613ad0565b90915550506000868152601060205260408120906110a8606484613b0f565b6110b390600b6138db565b63ffffffff168152602081019190915260400160009081208054916110d783613ad0565b90915550506000868152601060205260408120906110f76103e884613b0f565b61110290606f6138db565b63ffffffff1681526020810191909152604001600090812080549161112683613ad0565b909155505060008681526010602052604081209061114661271084613b0f565b611152906104576138db565b63ffffffff1681526020810191909152604001600090812080549161117683613ad0565b9091555050600086815260106020526040812090611197620186a084613b0f565b6111a390612b676138db565b63ffffffff168152602081019190915260400160009081208054916111c783613ad0565b90915550506000868152601060205260408120906111e8620f424084613b0f565b6111f5906201b2076138db565b63ffffffff1681526020810191909152604001600090812080549161121983613ad0565b90915550503360008181526011602090815260408083208a84528252808320600680548254600181018455928652848620909201919091558151808301835263ffffffff808816825281850196875282548652600e9094529184209151825495516001600160a01b0316640100000000026001600160c01b031990961693169290921793909317909255815491906112b083613ad0565b91905055505080806112c190613ad0565b915050610fa1565b50604051828152849033907fd7d247b583de1023852eef87b48f54354dbec771d01bc2cc49e96094efc322b99060200160405180910390a3505060016000555050565b6060808260008167ffffffffffffffff81111561133957634e487b7160e01b600052604160045260246000fd5b604051908082528060200260200182016040528015611362578160200160208202803683370190505b50905060008267ffffffffffffffff81111561138e57634e487b7160e01b600052604160045260246000fd5b6040519080825280602002602001820160405280156113b7578160200160208202803683370190505b50905060005b8381101561151957600e60008989848181106113e957634e487b7160e01b600052603260045260246000fd5b90506020020135815260200190815260200160002060000160009054906101000a900463ffffffff1683828151811061143257634e487b7160e01b600052603260045260246000fd5b63ffffffff909216602092830291909101909101526000600e818a8a8581811061146c57634e487b7160e01b600052603260045260246000fd5b602090810292909201358352508101919091526040016000205464010000000090046001600160a01b031614156114d45760018282815181106114bf57634e487b7160e01b600052603260045260246000fd5b91151560209283029190910190910152611507565b60008282815181106114f657634e487b7160e01b600052603260045260246000fd5b911515602092830291909101909101525b8061151181613ad0565b9150506113bd565b509093509150505b9250929050565b6001546001600160a01b031633146115525760405162461bcd60e51b8152600401610a449061376e565b60036005546000908152600d602052604090205460ff16600381111561158857634e487b7160e01b600052602160045260246000fd5b146115d55760405162461bcd60e51b815260206004820152601860248201527f4c6f7474657279206e6f7420696e20636c61696d61626c6500000000000000006044820152606401610a44565b806001600160a01b031663b37217a4600554600654604051602001611604929190918252602082015260400190565b60408051808303601f1901815290829052805160209091012060e083901b6001600160e01b03191682526004820152602401600060405180830381600087803b15801561165057600080fd5b505af1158015611664573d6000803e3d6000fd5b50505050806001600160a01b031663a1c4f55a6040518163ffffffff1660e01b815260040160206040518083038186803b1580156116a157600080fd5b505afa1580156116b5573d6000803e3d6000fd5b505050506040513d601f19601f820116820180604052508101906116d9919061357b565b50600c80546001600160a01b0319166001600160a01b0383169081179091556040517f383f8cb39dfa7c3fb901a460dd449ea924868f0a92ff03da64740fffa5f1de6290600090a250565b6003546001600160a01b0316331461174e5760405162461bcd60e51b8152600401610a44906137da565b600260005414156117715760405162461bcd60e51b8152600401610a44906137a3565b600260005560016000828152600d602052604090205460ff1660038111156117a957634e487b7160e01b600052602160045260246000fd5b146117e95760405162461bcd60e51b815260206004820152601060248201526f2637ba3a32b93c903737ba1037b832b760811b6044820152606401610a44565b6000818152600d6020526040902060020154421161183c5760405162461bcd60e51b815260206004820152601060248201526f2637ba3a32b93c903737ba1037bb32b960811b6044820152606401610a44565b6006546000828152600d6020908152604091829020601901839055600c548251918201859052918101929092526001600160a01b03169063b37217a49060600160408051808303601f1901815290829052805160209091012060e083901b6001600160e01b03191682526004820152602401600060405180830381600087803b1580156118c857600080fd5b505af11580156118dc573d6000803e3d6000fd5b5050506000828152600d6020908152604091829020805460ff1916600217905560065491519182528392507f3728e75294796694d59d2ffced9c394279baf7b9ebd2702db43f5f04bac67929910160405180910390a2506001600055565b6003546001600160a01b031633146119645760405162461bcd60e51b8152600401610a44906137da565b60055415806119a6575060036005546000908152600d602052604090205460ff1660038111156119a457634e487b7160e01b600052602160045260246000fd5b145b6119f25760405162461bcd60e51b815260206004820152601960248201527f4e6f742074696d6520746f207374617274206c6f7474657279000000000000006044820152606401610a44565b6137146119ff4287613a68565b118015611a1757506205472c611a154287613a68565b105b611a635760405162461bcd60e51b815260206004820152601f60248201527f4c6f7474657279206c656e677468206f757473696465206f662072616e6765006044820152606401610a44565b6009548410158015611a7757506008548411155b611ab75760405162461bcd60e51b81526020600482015260116024820152704f757473696465206f66206c696d69747360781b6044820152606401610a44565b61012c831015611b095760405162461bcd60e51b815260206004820152601860248201527f446973636f756e742064697669736f7220746f6f206c6f7700000000000000006044820152606401610a44565b610bb8811115611b535760405162461bcd60e51b81526020600482015260156024820152740a8e4cac2e6eae4f240cccaca40e8dede40d0d2ced605b1b6044820152606401610a44565b60a0820135608083013560608401356040850135611b76602087013587356138c3565b611b8091906138c3565b611b8a91906138c3565b611b9491906138c3565b611b9e91906138c3565b61271014611bee5760405162461bcd60e51b815260206004820152601860248201527f52657761726473206d75737420657175616c20313030303000000000000000006044820152606401610a44565b60058054906000611bfe83613ad0565b9091555050604080516101a0810190915280600181526020014281526020018681526020018581526020018481526020018360068060200260405190810160405280929190826006602002808284376000920182905250928452505060208083018590526040805160c080820183528482528184018590528183018590526060808301869052608080840187905260a080850188905285890194909452845180840186528781528087018890528086018890528083018890528082018890528085018890529188019190915260065490870181905291860191909152600a549085015260e09093018290526005548252600d90522081518154829060ff19166001836003811115611d1f57634e487b7160e01b600052602160045260246000fd5b02179055506020820151600182015560408201516002820155606082015160038201556080820151600482015560a0820151611d619060058301906006613185565b5060c0820151600b82015560e0820151611d8190600c8301906006613185565b50610100820151611d989060128301906006613185565b5061012082015160188201556101408201516019820155610160820151601a82015561018090910151601b909101805463ffffffff191663ffffffff909216919091179055600554600654600a5460408051428152602081018a9052908101889052606081019290925260808201527f367e70f8c0e0c0a6504d92172bda155c02022d532fc85b5d66a9c49e31c8bc779060a00160405180910390a250506000600a55505050565b6003546001600160a01b03163314611e6a5760405162461bcd60e51b8152600401610a44906137da565b60026000541415611e8d5760405162461bcd60e51b8152600401610a44906137a3565b60026000818155838152600d602052604090205460ff166003811115611ec357634e487b7160e01b600052602160045260246000fd5b14611f045760405162461bcd60e51b81526020600482015260116024820152704c6f7474657279206e6f7420636c6f736560781b6044820152606401610a44565b600c60009054906101000a90046001600160a01b03166001600160a01b031663fbe5d9176040518163ffffffff1660e01b815260040160206040518083038186803b158015611f5257600080fd5b505afa158015611f66573d6000803e3d6000fd5b505050506040513d601f19601f82011682018060405250810190611f8a9190613386565b8214611fcc5760405162461bcd60e51b8152602060048201526011602482015270273ab6b132b939903737ba10323930bbb760791b6044820152606401610a44565b600c54604080516350e27aad60e11b815290516000926001600160a01b03169163a1c4f55a916004808301926020929190829003018186803b15801561201157600080fd5b505afa158015612025573d6000803e3d6000fd5b505050506040513d601f19601f82011682018060405250810190612049919061357b565b6000848152600d60205260408120600b01549192509081906127109061206f9082613a68565b6000878152600d60205260409020601a015461208b9190613a49565b6120959190613903565b90506000805b60068163ffffffff1610156123635760006120b7826005613a7f565b905060006120c68260016138db565b6120d190600a61395e565b6120db9088613b0f565b63ffffffff8084166000908152600f60205260409020546120fd9291166138db565b60008a815260106020908152604080832063ffffffff8516845290915290205490915061212b908790613a68565b60008a8152600d6020526040902060120163ffffffff84166006811061216157634e487b7160e01b600052603260045260246000fd5b0155600089815260106020908152604080832063ffffffff8516845290915290205461218e908790613a68565b156122b7576000898152600d6020526040902060050163ffffffff8316600681106121c957634e487b7160e01b600052603260045260246000fd5b0154156122b257600089815260106020908152604080832063ffffffff85168452909152902054612710906121ff908890613a68565b60008b8152600d60205260409020879060050163ffffffff86166006811061223757634e487b7160e01b600052603260045260246000fd5b01546122439190613a49565b61224d9190613903565b6122579190613903565b60008a8152600d60205260409020600c0163ffffffff84166006811061228d57634e487b7160e01b600052603260045260246000fd5b0155600089815260106020908152604080832063ffffffff8516845290915290205495505b61234e565b6000898152600d60205260408120600c0163ffffffff8416600681106122ed57634e487b7160e01b600052603260045260246000fd5b01556000898152600d6020526040902061271090869060050163ffffffff85166006811061232b57634e487b7160e01b600052603260045260246000fd5b01546123379190613a49565b6123419190613903565b61234b90856138c3565b93505b5050808061235b90613aeb565b91505061209b565b506000868152600d60205260409020601b8101805463ffffffff871663ffffffff19909116179055805460ff1916600317905584156123a257600a5560005b6000868152600d60205260409020601a01546123bf908390613a68565b6123c990826138c3565b600454600b549192506123e9916001600160a01b03908116911683612e4a565b6005546040805163ffffffff87168152602081018690527f98e31a6607b8b15b4d5b91de54f4c09ffe4c4cf162aa532c70b5213754e2e703910160405180910390a25050600160005550505050565b600061012c84101561248c5760405162461bcd60e51b815260206004820152601f60248201527f4d757374206265203e3d204d494e5f444953434f554e545f44495649534f52006044820152606401610a44565b816124d95760405162461bcd60e51b815260206004820152601d60248201527f4e756d626572206f66207469636b657473206d757374206265203e20300000006044820152606401610a44565b610a10848484612ef0565b333b1561252a5760405162461bcd60e51b815260206004820152601460248201527310dbdb9d1c9858dd081b9bdd08185b1b1bddd95960621b6044820152606401610a44565b3332146125795760405162461bcd60e51b815260206004820152601a60248201527f50726f787920636f6e7472616374206e6f7420616c6c6f7765640000000000006044820152606401610a44565b6002600054141561259c5760405162461bcd60e51b8152600401610a44906137a3565b60026000558281146125e25760405162461bcd60e51b815260206004820152600f60248201526e09cdee840e6c2daca40d8cadccee8d608b1b6044820152606401610a44565b826126235760405162461bcd60e51b815260206004820152601160248201527004c656e677468206d757374206265203e3607c1b6044820152606401610a44565b6007548311156126685760405162461bcd60e51b815260206004820152601060248201526f546f6f206d616e79207469636b65747360801b6044820152606401610a44565b60036000868152600d602052604090205460ff16600381111561269b57634e487b7160e01b600052602160045260246000fd5b146126e05760405162461bcd60e51b81526020600482015260156024820152744c6f7474657279206e6f7420636c61696d61626c6560581b6044820152606401610a44565b6000805b84811015612a3f57600684848381811061270e57634e487b7160e01b600052603260045260246000fd5b9050602002016020810190612723919061355f565b63ffffffff161061276d5760405162461bcd60e51b8152602060048201526014602482015273427261636b6574206f7574206f662072616e676560601b6044820152606401610a44565b600086868381811061278f57634e487b7160e01b600052603260045260246000fd5b90506020020135905080600d60008a815260200190815260200160002060190154116127f15760405162461bcd60e51b81526020600482015260116024820152700a8d2c6d6cae892c840e8dede40d0d2ced607b1b6044820152606401610a44565b6000888152600d60205260409020601801548110156128455760405162461bcd60e51b815260206004820152601060248201526f5469636b6574496420746f6f206c6f7760801b6044820152606401610a44565b6000818152600e602052604090205464010000000090046001600160a01b031633146128a35760405162461bcd60e51b815260206004820152600d60248201526c2737ba103a34329037bbb732b960991b6044820152606401610a44565b6000818152600e602052604081208054640100000000600160c01b031916905561290289838888878181106128e857634e487b7160e01b600052603260045260246000fd5b90506020020160208101906128fd919061355f565b612d31565b9050806129515760405162461bcd60e51b815260206004820152601960248201527f4e6f207072697a6520666f72207468697320627261636b6574000000000000006044820152606401610a44565b85858481811061297157634e487b7160e01b600052603260045260246000fd5b9050602002016020810190612986919061355f565b63ffffffff16600514612a1e576129d889838888878181106129b857634e487b7160e01b600052603260045260246000fd5b90506020020160208101906129cd919061355f565b6128fd9060016138db565b15612a1e5760405162461bcd60e51b8152602060048201526016602482015275213930b1b5b2ba1036bab9ba103132903434b3b432b960511b6044820152606401610a44565b612a2881856138c3565b935050508080612a3790613ad0565b9150506126e4565b50600b54612a57906001600160a01b03163383612e4a565b6040805182815260208101869052879133917f0f5fca62da8fb5d95525b49e5eaa7b20bc6bd9e2f6b64b493442d1c0bd6ef486910160405180910390a35050600160005550505050565b6001546001600160a01b03163314612acb5760405162461bcd60e51b8152600401610a449061376e565b6001600160a01b038316612af15760405162461bcd60e51b8152600401610a449061373e565b6001600160a01b038216612b175760405162461bcd60e51b8152600401610a449061373e565b6001600160a01b038116612b3d5760405162461bcd60e51b8152600401610a449061373e565b600380546001600160a01b038581166001600160a01b0319928316811790935560048054868316908416811790915560028054928616929093168217909255604080519384526020840192909252908201527f3e945b7660001d46cfd5e729545f7f0b6c65bdee54066a91c7acad703f1b731e9060600160405180910390a1505050565b6001546001600160a01b03163314612beb5760405162461bcd60e51b8152600401610a449061376e565b80821115612c3b5760405162461bcd60e51b815260206004820152601b60248201527f6d696e5072696365206d757374206265203c206d6178507269636500000000006044820152606401610a44565b600991909155600855565b6001546001600160a01b03163314612c705760405162461bcd60e51b8152600401610a449061376e565b6001600160a01b038116612cd55760405162461bcd60e51b815260206004820152602660248201527f4f776e61626c653a206e6577206f776e657220697320746865207a65726f206160448201526564647265737360d01b6064820152608401610a44565b6001546040516001600160a01b038084169216907f8be0079c531659141344cd1fd0a4f28419497f9722a3daafe3b4186f6b6457e090600090a3600180546001600160a01b0319166001600160a01b0392909216919091179055565b6000838152600d60209081526040808320601b0154858452600e90925282205463ffffffff918216911682612d678560016138db565b612d7290600a61395e565b612d7c9083613b0f565b63ffffffff8087166000908152600f6020526040902054612d9e9291166138db565b90506000612dad8660016138db565b612db890600a61395e565b612dc29085613b0f565b63ffffffff8088166000908152600f6020526040902054612de49291166138db565b90508063ffffffff168263ffffffff161415612e3d576000888152600d60205260409020600c0163ffffffff871660068110612e3057634e487b7160e01b600052603260045260246000fd5b0154945050505050610a13565b6000945050505050610a13565b6040516001600160a01b038316602482015260448101829052612ead90849063a9059cbb60e01b906064015b60408051601f198184030181529190526020810180516001600160e01b03166001600160e01b031990931692909217909152612f27565b505050565b6040516001600160a01b0380851660248301528316604482015260648101829052612eea9085906323b872dd60e01b90608401612e76565b50505050565b60008382612eff8260016138c3565b612f099190613a68565b612f138486613a49565b612f1d9190613a49565b610a109190613903565b6000612f7c826040518060400160405280602081526020017f5361666545524332303a206c6f772d6c6576656c2063616c6c206661696c6564815250856001600160a01b0316612ff99092919063ffffffff16565b805190915015612ead5780806020019051810190612f9a9190613352565b612ead5760405162461bcd60e51b815260206004820152602a60248201527f5361666545524332303a204552433230206f7065726174696f6e20646964206e6044820152691bdd081cdd58d8d9595960b21b6064820152608401610a44565b6060610a10848460008585843b6130525760405162461bcd60e51b815260206004820152601d60248201527f416464726573733a2063616c6c20746f206e6f6e2d636f6e74726163740000006044820152606401610a44565b600080866001600160a01b0316858760405161306e919061364d565b60006040518083038185875af1925050503d80600081146130ab576040519150601f19603f3d011682016040523d82523d6000602084013e6130b0565b606091505b50915091506130c08282866130cb565b979650505050505050565b606083156130da575081610a13565b8251156130ea5782518084602001fd5b8160405162461bcd60e51b8152600401610a44919061370b565b604080516101a0810190915280600081526020016000815260200160008152602001600081526020016000815260200161313c6131c3565b8152602001600081526020016131506131c3565b815260200161315d6131c3565b8152602001600081526020016000815260200160008152602001600063ffffffff1681525090565b82600681019282156131b3579160200282015b828111156131b3578251825591602001919060010190613198565b506131bf9291506131e1565b5090565b6040518060c001604052806006906020820280368337509192915050565b5b808211156131bf57600081556001016131e2565b80356001600160a01b038116811461320d57600080fd5b919050565b60008083601f840112613223578182fd5b50813567ffffffffffffffff81111561323a578182fd5b6020830191508360208260051b850101111561152157600080fd5b600060208284031215613266578081fd5b610a13826131f6565b600080600060608486031215613283578182fd5b61328c846131f6565b925061329a602085016131f6565b91506132a8604085016131f6565b90509250925092565b600080604083850312156132c3578182fd5b6132cc836131f6565b946020939093013593505050565b600080600080608085870312156132ef578081fd5b6132f8856131f6565b966020860135965060408601359560600135945092505050565b60008060208385031215613324578182fd5b823567ffffffffffffffff81111561333a578283fd5b61334685828601613212565b90969095509350505050565b600060208284031215613363578081fd5b8151610a1381613b5e565b60006020828403121561337f578081fd5b5035919050565b600060208284031215613397578081fd5b5051919050565b6000806000806000606086880312156133b5578081fd5b85359450602086013567ffffffffffffffff808211156133d3578283fd5b6133df89838a01613212565b909650945060408801359150808211156133f7578283fd5b5061340488828901613212565b969995985093965092949392505050565b600080600060408486031215613429578283fd5b83359250602084013567ffffffffffffffff811115613446578283fd5b61345286828701613212565b9497909650939450505050565b60008060408385031215613471578182fd5b82359150602083013561348381613b5e565b809150509250929050565b600080604083850312156134a0578182fd5b50508035926020909101359150565b6000806000606084860312156134c3578283fd5b505081359360208301359350604090920135919050565b600080600080600061014086880312156134f2578283fd5b853594506020860135935060408601359250610120860187811115613515578182fd5b94979396509194606001933592915050565b60008060006060848603121561353b578081fd5b8335925060208401359150604084013561355481613b6f565b809150509250925092565b600060208284031215613570578081fd5b8135610a1381613b6f565b60006020828403121561358c578081fd5b8151610a1381613b6f565b6000815180845260208085019450808401835b838110156135c85781511515875295820195908201906001016135aa565b509495945050505050565b8060005b6006811015612eea5781518452602093840193909101906001016135d7565b6000815180845260208085019450808401835b838110156135c857815163ffffffff1687529582019590820190600101613609565b6004811061364957634e487b7160e01b600052602160045260246000fd5b9052565b6000825161365f818460208701613aa4565b9190910192915050565b6080808252855190820181905260009060209060a0840190828901845b828110156136a257815184529284019290840190600101613686565b505050838103828501526136b681886135f6565b91505082810360408401526136cb8186613597565b91505082606083015295945050505050565b6040815260006136f060408301856135f6565b82810360208401526137028185613597565b95945050505050565b602081526000825180602084015261372a816040850160208701613aa4565b601f01601f19169190910160400192915050565b60208082526016908201527543616e6e6f74206265207a65726f206164647265737360501b604082015260600190565b6020808252818101527f4f776e61626c653a2063616c6c6572206973206e6f7420746865206f776e6572604082015260600190565b6020808252601f908201527f5265656e7472616e637947756172643a207265656e7472616e742063616c6c00604082015260600190565b6020808252600c908201526b2737ba1037b832b930ba37b960a11b604082015260600190565b60006103808201905061381482845161362b565b6020830151602083015260408301516040830152606083015160608301526080830151608083015260a083015161384e60a08401826135d3565b5060c0830151610160818185015260e08501519150610180613872818601846135d3565b61010086015192506138886102408601846135d3565b6101208601516103008601526101408601516103208601529085015161034085015284015163ffffffff811661036085015290505092915050565b600082198211156138d6576138d6613b32565b500190565b600063ffffffff8083168185168083038211156138fa576138fa613b32565b01949350505050565b60008261391257613912613b48565b500490565b60018163ffffffff825b808611156139555782820483111561393b5761393b613b32565b8086161561394857928202925b94851c9491800291613921565b50509250929050565b600063ffffffff61397381851682851661397b565b949350505050565b60008261398a57506001613a43565b8161399757506000613a43565b81600181146139ad57600281146139b7576139e8565b6001915050613a43565b60ff8411156139c8576139c8613b32565b6001841b915063ffffffff8211156139e2576139e2613b32565b50613a43565b5060208310610133831016604e8410600b8410161715613a1f575081810a63ffffffff811115613a1a57613a1a613b32565b613a43565b613a298383613917565b8063ffffffff04821115613a3f57613a3f613b32565b0290505b92915050565b6000816000190483118215151615613a6357613a63613b32565b500290565b600082821015613a7a57613a7a613b32565b500390565b600063ffffffff83811690831681811015613a9c57613a9c613b32565b039392505050565b60005b83811015613abf578181015183820152602001613aa7565b83811115612eea5750506000910152565b6000600019821415613ae457613ae4613b32565b5060010190565b600063ffffffff80831681811415613b0557613b05613b32565b6001019392505050565b600063ffffffff80841680613b2657613b26613b48565b92169190910692915050565b634e487b7160e01b600052601160045260246000fd5b634e487b7160e01b600052601260045260246000fd5b8015158114613b6c57600080fd5b50565b63ffffffff81168114613b6c57600080fdfea2646970667358221220bd5e6e39374a38f9e80fbcdfd82d821825c6abeda1622f462a5dfa596b846ca064736f6c63430008040033",
			"opcodes": "PUSH1 0x80 PUSH1 0x40 MSTORE PUSH1 0x64 PUSH1 0x7 SSTORE PUSH9 0x2B5E3AF16B1880000 PUSH1 0x8 SSTORE PUSH7 0x11C37937E08000 PUSH1 0x9 SSTORE CALLVALUE DUP1 ISZERO PUSH3 0x2E JUMPI PUSH1 0x0 DUP1 REVERT JUMPDEST POP PUSH1 0x40 MLOAD PUSH3 0x3DFB CODESIZE SUB DUP1 PUSH3 0x3DFB DUP4 CODECOPY DUP2 ADD PUSH1 0x40 DUP2 SWAP1 MSTORE PUSH3 0x51 SWAP2 PUSH3 0x1FD JUMP JUMPDEST PUSH1 0x1 PUSH1 0x0 DUP2 DUP2 SSTORE DUP2 SLOAD PUSH1 0x1 PUSH1 0x1 PUSH1 0xA0 SHL SUB NOT AND CALLER SWAP1 DUP2 OR SWAP1 SWAP3 SSTORE PUSH1 0x40 MLOAD DUP3 SWAP2 SWAP1 PUSH32 0x8BE0079C531659141344CD1FD0A4F28419497F9722A3DAAFE3B4186F6B6457E0 SWAP1 DUP3 SWAP1 LOG3 POP PUSH1 0xB DUP1 SLOAD PUSH1 0x1 PUSH1 0x1 PUSH1 0xA0 SHL SUB SWAP4 DUP5 AND PUSH1 0x1 PUSH1 0x1 PUSH1 0xA0 SHL SUB NOT SWAP2 DUP3 AND OR DUP3 SSTORE PUSH1 0xC DUP1 SLOAD SWAP4 SWAP1 SWAP5 AND SWAP3 AND SWAP2 SWAP1 SWAP2 OR SWAP1 SWAP2 SSTORE PUSH1 0xF PUSH1 0x20 MSTORE PUSH32 0xF4803E074BD026BAAF6ED2E288C9515F68C72FB7216EEBDD7CAE1718A53EC375 DUP1 SLOAD PUSH4 0xFFFFFFFF NOT SWAP1 DUP2 AND PUSH1 0x1 OR SWAP1 SWAP2 SSTORE PUSH32 0x169F97DE0D9A84D840042B17D3C6B9638B3D6FD9024C9EB0C7A306A17B49F88F DUP1 SLOAD DUP3 AND SWAP1 SWAP3 OR SWAP1 SWAP2 SSTORE PUSH32 0xA74BA3945261E09FDE15BA3DB55005B205E61EEB4AD811AC0FAA2B315BFFEEAD DUP1 SLOAD DUP3 AND PUSH1 0x6F OR SWAP1 SSTORE PUSH32 0x45F76DAFBBAD695564362934E24D72EEDC57F9FC1A65F39BCA62176CC8296828 DUP1 SLOAD DUP3 AND PUSH2 0x457 OR SWAP1 SSTORE PUSH32 0x367CCD2D0AC16BF7110A5DFFE0801FDC9452A95A1ADB7E1A12FE97DD3E9A4EDD DUP1 SLOAD DUP3 AND PUSH2 0x2B67 OR SWAP1 SSTORE PUSH1 0x5 PUSH1 0x0 MSTORE PUSH32 0x6BDA57492EBA051CB4A12A1E19DF47C9755D78165341D4009B1D09B3F3616204 DUP1 SLOAD SWAP1 SWAP2 AND PUSH3 0x1B207 OR SWAP1 SSTORE PUSH3 0x234 JUMP JUMPDEST DUP1 MLOAD PUSH1 0x1 PUSH1 0x1 PUSH1 0xA0 SHL SUB DUP2 AND DUP2 EQ PUSH3 0x1F8 JUMPI PUSH1 0x0 DUP1 REVERT JUMPDEST SWAP2 SWAP1 POP JUMP JUMPDEST PUSH1 0x0 DUP1 PUSH1 0x40 DUP4 DUP6 SUB SLT ISZERO PUSH3 0x210 JUMPI DUP2 DUP3 REVERT JUMPDEST PUSH3 0x21B DUP4 PUSH3 0x1E0 JUMP JUMPDEST SWAP2 POP PUSH3 0x22B PUSH1 0x20 DUP5 ADD PUSH3 0x1E0 JUMP JUMPDEST SWAP1 POP SWAP3 POP SWAP3 SWAP1 POP JUMP JUMPDEST PUSH2 0x3BB7 DUP1 PUSH3 0x244 PUSH1 0x0 CODECOPY PUSH1 0x0 RETURN INVALID PUSH1 0x80 PUSH1 0x40 MSTORE CALLVALUE DUP1 ISZERO PUSH2 0x10 JUMPI PUSH1 0x0 DUP1 REVERT JUMPDEST POP PUSH1 0x4 CALLDATASIZE LT PUSH2 0x211 JUMPI PUSH1 0x0 CALLDATALOAD PUSH1 0xE0 SHR DUP1 PUSH4 0x88303DBD GT PUSH2 0x125 JUMPI DUP1 PUSH4 0xC4937AB9 GT PUSH2 0xAD JUMPI DUP1 PUSH4 0xDA7429F8 GT PUSH2 0x7C JUMPI DUP1 PUSH4 0xDA7429F8 EQ PUSH2 0x444 JUMPI DUP1 PUSH4 0xDB19DA0D EQ PUSH2 0x457 JUMPI DUP1 PUSH4 0xDCBAD90D EQ PUSH2 0x461 JUMPI DUP1 PUSH4 0xF2B3C809 EQ PUSH2 0x474 JUMPI DUP1 PUSH4 0xF2FDE38B EQ PUSH2 0x47D JUMPI PUSH1 0x0 DUP1 REVERT JUMPDEST DUP1 PUSH4 0xC4937AB9 EQ PUSH2 0x3F8 JUMPI DUP1 PUSH4 0xC5F956AF EQ PUSH2 0x40B JUMPI DUP1 PUSH4 0xC914914F EQ PUSH2 0x41E JUMPI DUP1 PUSH4 0xDA4CA039 EQ PUSH2 0x431 JUMPI PUSH1 0x0 DUP1 REVERT JUMPDEST DUP1 PUSH4 0x98359FA1 GT PUSH2 0xF4 JUMPI DUP1 PUSH4 0x98359FA1 EQ PUSH2 0x399 JUMPI DUP1 PUSH4 0x9C384653 EQ PUSH2 0x3AC JUMPI DUP1 PUSH4 0x9D8CA531 EQ PUSH2 0x3BF JUMPI DUP1 PUSH4 0xB1829B82 EQ PUSH2 0x3D2 JUMPI DUP1 PUSH4 0xC38DE539 EQ PUSH2 0x3E5 JUMPI PUSH1 0x0 DUP1 REVERT JUMPDEST DUP1 PUSH4 0x88303DBD EQ PUSH2 0x341 JUMPI DUP1 PUSH4 0x8904BF2F EQ PUSH2 0x354 JUMPI DUP1 PUSH4 0x8DA5CB5B EQ PUSH2 0x367 JUMPI DUP1 PUSH4 0x8FC3539A EQ PUSH2 0x378 JUMPI PUSH1 0x0 DUP1 REVERT JUMPDEST DUP1 PUSH4 0x31FEB565 GT PUSH2 0x1A8 JUMPI DUP1 PUSH4 0x6B873788 GT PUSH2 0x177 JUMPI DUP1 PUSH4 0x6B873788 EQ PUSH2 0x30C JUMPI DUP1 PUSH4 0x6BE4097C EQ PUSH2 0x31F JUMPI DUP1 PUSH4 0x715018A6 EQ PUSH2 0x328 JUMPI DUP1 PUSH4 0x7CB583BD EQ PUSH2 0x330 JUMPI DUP1 PUSH4 0x80A06160 EQ PUSH2 0x339 JUMPI PUSH1 0x0 DUP1 REVERT JUMPDEST DUP1 PUSH4 0x31FEB565 EQ PUSH2 0x2D2 JUMPI DUP1 PUSH4 0x3F138D4B EQ PUSH2 0x2DB JUMPI DUP1 PUSH4 0x471AEAB4 EQ PUSH2 0x2F0 JUMPI DUP1 PUSH4 0x686465B8 EQ PUSH2 0x303 JUMPI PUSH1 0x0 DUP1 REVERT JUMPDEST DUP1 PUSH4 0x1F73664B GT PUSH2 0x1E4 JUMPI DUP1 PUSH4 0x1F73664B EQ PUSH2 0x28D JUMPI DUP1 PUSH4 0x1FE86C6B EQ PUSH2 0x296 JUMPI DUP1 PUSH4 0x2423807A EQ PUSH2 0x29F JUMPI DUP1 PUSH4 0x2E530CAE EQ PUSH2 0x2BF JUMPI PUSH1 0x0 DUP1 REVERT JUMPDEST DUP1 PUSH4 0x5531EEB EQ PUSH2 0x216 JUMPI DUP1 PUSH4 0x7FB5A9C EQ PUSH2 0x242 JUMPI DUP1 PUSH4 0x127EFFB2 EQ PUSH2 0x259 JUMPI DUP1 PUSH4 0x12A9769D EQ PUSH2 0x284 JUMPI JUMPDEST PUSH1 0x0 DUP1 REVERT JUMPDEST PUSH2 0x229 PUSH2 0x224 CALLDATASIZE PUSH1 0x4 PUSH2 0x32DA JUMP JUMPDEST PUSH2 0x490 JUMP JUMPDEST PUSH1 0x40 MLOAD PUSH2 0x239 SWAP5 SWAP4 SWAP3 SWAP2 SWAP1 PUSH2 0x3669 JUMP JUMPDEST PUSH1 0x40 MLOAD DUP1 SWAP2 SUB SWAP1 RETURN JUMPDEST PUSH2 0x24B PUSH2 0x3714 DUP2 JUMP JUMPDEST PUSH1 0x40 MLOAD SWAP1 DUP2 MSTORE PUSH1 0x20 ADD PUSH2 0x239 JUMP JUMPDEST PUSH1 0x3 SLOAD PUSH2 0x26C SWAP1 PUSH1 0x1 PUSH1 0x1 PUSH1 0xA0 SHL SUB AND DUP2 JUMP JUMPDEST PUSH1 0x40 MLOAD PUSH1 0x1 PUSH1 0x1 PUSH1 0xA0 SHL SUB SWAP1 SWAP2 AND DUP2 MSTORE PUSH1 0x20 ADD PUSH2 0x239 JUMP JUMPDEST PUSH2 0x24B PUSH1 0xA SLOAD DUP2 JUMP JUMPDEST PUSH2 0x24B PUSH1 0x8 SLOAD DUP2 JUMP JUMPDEST PUSH2 0x24B PUSH1 0x7 SLOAD DUP2 JUMP JUMPDEST PUSH2 0x2B2 PUSH2 0x2AD CALLDATASIZE PUSH1 0x4 PUSH2 0x336E JUMP JUMPDEST PUSH2 0x808 JUMP JUMPDEST PUSH1 0x40 MLOAD PUSH2 0x239 SWAP2 SWAP1 PUSH2 0x3800 JUMP JUMPDEST PUSH2 0x24B PUSH2 0x2CD CALLDATASIZE PUSH1 0x4 PUSH2 0x3527 JUMP JUMPDEST PUSH2 0x985 JUMP JUMPDEST PUSH2 0x24B PUSH1 0x9 SLOAD DUP2 JUMP JUMPDEST PUSH2 0x2EE PUSH2 0x2E9 CALLDATASIZE PUSH1 0x4 PUSH2 0x32B1 JUMP JUMPDEST PUSH2 0xA1A JUMP JUMPDEST STOP JUMPDEST PUSH2 0x2EE PUSH2 0x2FE CALLDATASIZE PUSH1 0x4 PUSH2 0x348E JUMP JUMPDEST PUSH2 0xAFC JUMP JUMPDEST PUSH2 0x24B PUSH1 0x6 SLOAD DUP2 JUMP JUMPDEST PUSH2 0x2EE PUSH2 0x31A CALLDATASIZE PUSH1 0x4 PUSH2 0x336E JUMP JUMPDEST PUSH2 0xC4D JUMP JUMPDEST PUSH2 0x24B PUSH1 0x5 SLOAD DUP2 JUMP JUMPDEST PUSH2 0x2EE PUSH2 0xCB7 JUMP JUMPDEST PUSH2 0x24B PUSH2 0x12C DUP2 JUMP JUMPDEST PUSH1 0x5 SLOAD PUSH2 0x24B JUMP JUMPDEST PUSH2 0x2EE PUSH2 0x34F CALLDATASIZE PUSH1 0x4 PUSH2 0x3415 JUMP JUMPDEST PUSH2 0xD2B JUMP JUMPDEST PUSH1 0xB SLOAD PUSH2 0x26C SWAP1 PUSH1 0x1 PUSH1 0x1 PUSH1 0xA0 SHL SUB AND DUP2 JUMP JUMPDEST PUSH1 0x1 SLOAD PUSH1 0x1 PUSH1 0x1 PUSH1 0xA0 SHL SUB AND PUSH2 0x26C JUMP JUMPDEST PUSH2 0x38B PUSH2 0x386 CALLDATASIZE PUSH1 0x4 PUSH2 0x3312 JUMP JUMPDEST PUSH2 0x130C JUMP JUMPDEST PUSH1 0x40 MLOAD PUSH2 0x239 SWAP3 SWAP2 SWAP1 PUSH2 0x36DD JUMP JUMPDEST PUSH2 0x2EE PUSH2 0x3A7 CALLDATASIZE PUSH1 0x4 PUSH2 0x3255 JUMP JUMPDEST PUSH2 0x1528 JUMP JUMPDEST PUSH1 0x2 SLOAD PUSH2 0x26C SWAP1 PUSH1 0x1 PUSH1 0x1 PUSH1 0xA0 SHL SUB AND DUP2 JUMP JUMPDEST PUSH2 0x2EE PUSH2 0x3CD CALLDATASIZE PUSH1 0x4 PUSH2 0x336E JUMP JUMPDEST PUSH2 0x1724 JUMP JUMPDEST PUSH2 0x2EE PUSH2 0x3E0 CALLDATASIZE PUSH1 0x4 PUSH2 0x34DA JUMP JUMPDEST PUSH2 0x193A JUMP JUMPDEST PUSH2 0x2EE PUSH2 0x3F3 CALLDATASIZE PUSH1 0x4 PUSH2 0x345F JUMP JUMPDEST PUSH2 0x1E40 JUMP JUMPDEST PUSH2 0x24B PUSH2 0x406 CALLDATASIZE PUSH1 0x4 PUSH2 0x34AF JUMP JUMPDEST PUSH2 0x2438 JUMP JUMPDEST PUSH1 0x4 SLOAD PUSH2 0x26C SWAP1 PUSH1 0x1 PUSH1 0x1 PUSH1 0xA0 SHL SUB AND DUP2 JUMP JUMPDEST PUSH2 0x2EE PUSH2 0x42C CALLDATASIZE PUSH1 0x4 PUSH2 0x339E JUMP JUMPDEST PUSH2 0x24E4 JUMP JUMPDEST PUSH2 0x2EE PUSH2 0x43F CALLDATASIZE PUSH1 0x4 PUSH2 0x326F JUMP JUMPDEST PUSH2 0x2AA1 JUMP JUMPDEST PUSH2 0x2EE PUSH2 0x452 CALLDATASIZE PUSH1 0x4 PUSH2 0x348E JUMP JUMPDEST PUSH2 0x2BC1 JUMP JUMPDEST PUSH2 0x24B PUSH3 0x5472C DUP2 JUMP JUMPDEST PUSH1 0xC SLOAD PUSH2 0x26C SWAP1 PUSH1 0x1 PUSH1 0x1 PUSH1 0xA0 SHL SUB AND DUP2 JUMP JUMPDEST PUSH2 0x24B PUSH2 0xBB8 DUP2 JUMP JUMPDEST PUSH2 0x2EE PUSH2 0x48B CALLDATASIZE PUSH1 0x4 PUSH2 0x3255 JUMP JUMPDEST PUSH2 0x2C46 JUMP JUMPDEST PUSH1 0x1 PUSH1 0x1 PUSH1 0xA0 SHL SUB DUP5 AND PUSH1 0x0 SWAP1 DUP2 MSTORE PUSH1 0x11 PUSH1 0x20 SWAP1 DUP2 MSTORE PUSH1 0x40 DUP1 DUP4 KECCAK256 DUP7 DUP5 MSTORE SWAP1 SWAP2 MSTORE DUP2 KECCAK256 SLOAD PUSH1 0x60 SWAP2 DUP3 SWAP2 DUP3 SWAP2 SWAP1 DUP6 SWAP1 PUSH2 0x4C8 DUP9 DUP3 PUSH2 0x3A68 JUMP JUMPDEST DUP3 GT ISZERO PUSH2 0x4DC JUMPI PUSH2 0x4D9 DUP9 DUP3 PUSH2 0x3A68 JUMP JUMPDEST SWAP2 POP JUMPDEST PUSH1 0x0 DUP3 PUSH8 0xFFFFFFFFFFFFFFFF DUP2 GT ISZERO PUSH2 0x505 JUMPI PUSH4 0x4E487B71 PUSH1 0xE0 SHL PUSH1 0x0 MSTORE PUSH1 0x41 PUSH1 0x4 MSTORE PUSH1 0x24 PUSH1 0x0 REVERT JUMPDEST PUSH1 0x40 MLOAD SWAP1 DUP1 DUP3 MSTORE DUP1 PUSH1 0x20 MUL PUSH1 0x20 ADD DUP3 ADD PUSH1 0x40 MSTORE DUP1 ISZERO PUSH2 0x52E JUMPI DUP2 PUSH1 0x20 ADD PUSH1 0x20 DUP3 MUL DUP1 CALLDATASIZE DUP4 CALLDATACOPY ADD SWAP1 POP JUMPDEST POP SWAP1 POP PUSH1 0x0 DUP4 PUSH8 0xFFFFFFFFFFFFFFFF DUP2 GT ISZERO PUSH2 0x55A JUMPI PUSH4 0x4E487B71 PUSH1 0xE0 SHL PUSH1 0x0 MSTORE PUSH1 0x41 PUSH1 0x4 MSTORE PUSH1 0x24 PUSH1 0x0 REVERT JUMPDEST PUSH1 0x40 MLOAD SWAP1 DUP1 DUP3 MSTORE DUP1 PUSH1 0x20 MUL PUSH1 0x20 ADD DUP3 ADD PUSH1 0x40 MSTORE DUP1 ISZERO PUSH2 0x583 JUMPI DUP2 PUSH1 0x20 ADD PUSH1 0x20 DUP3 MUL DUP1 CALLDATASIZE DUP4 CALLDATACOPY ADD SWAP1 POP JUMPDEST POP SWAP1 POP PUSH1 0x0 DUP5 PUSH8 0xFFFFFFFFFFFFFFFF DUP2 GT ISZERO PUSH2 0x5AF JUMPI PUSH4 0x4E487B71 PUSH1 0xE0 SHL PUSH1 0x0 MSTORE PUSH1 0x41 PUSH1 0x4 MSTORE PUSH1 0x24 PUSH1 0x0 REVERT JUMPDEST PUSH1 0x40 MLOAD SWAP1 DUP1 DUP3 MSTORE DUP1 PUSH1 0x20 MUL PUSH1 0x20 ADD DUP3 ADD PUSH1 0x40 MSTORE DUP1 ISZERO PUSH2 0x5D8 JUMPI DUP2 PUSH1 0x20 ADD PUSH1 0x20 DUP3 MUL DUP1 CALLDATASIZE DUP4 CALLDATACOPY ADD SWAP1 POP JUMPDEST POP SWAP1 POP PUSH1 0x0 JUMPDEST DUP6 DUP2 LT ISZERO PUSH2 0x7E2 JUMPI PUSH1 0x11 PUSH1 0x0 DUP16 PUSH1 0x1 PUSH1 0x1 PUSH1 0xA0 SHL SUB AND PUSH1 0x1 PUSH1 0x1 PUSH1 0xA0 SHL SUB AND DUP2 MSTORE PUSH1 0x20 ADD SWAP1 DUP2 MSTORE PUSH1 0x20 ADD PUSH1 0x0 KECCAK256 PUSH1 0x0 DUP15 DUP2 MSTORE PUSH1 0x20 ADD SWAP1 DUP2 MSTORE PUSH1 0x20 ADD PUSH1 0x0 KECCAK256 DUP13 DUP3 PUSH2 0x628 SWAP2 SWAP1 PUSH2 0x38C3 JUMP JUMPDEST DUP2 SLOAD DUP2 LT PUSH2 0x646 JUMPI PUSH4 0x4E487B71 PUSH1 0xE0 SHL PUSH1 0x0 MSTORE PUSH1 0x32 PUSH1 0x4 MSTORE PUSH1 0x24 PUSH1 0x0 REVERT JUMPDEST SWAP1 PUSH1 0x0 MSTORE PUSH1 0x20 PUSH1 0x0 KECCAK256 ADD SLOAD DUP5 DUP3 DUP2 MLOAD DUP2 LT PUSH2 0x671 JUMPI PUSH4 0x4E487B71 PUSH1 0xE0 SHL PUSH1 0x0 MSTORE PUSH1 0x32 PUSH1 0x4 MSTORE PUSH1 0x24 PUSH1 0x0 REVERT JUMPDEST PUSH1 0x20 MUL PUSH1 0x20 ADD ADD DUP2 DUP2 MSTORE POP POP PUSH1 0xE PUSH1 0x0 DUP6 DUP4 DUP2 MLOAD DUP2 LT PUSH2 0x6A1 JUMPI PUSH4 0x4E487B71 PUSH1 0xE0 SHL PUSH1 0x0 MSTORE PUSH1 0x32 PUSH1 0x4 MSTORE PUSH1 0x24 PUSH1 0x0 REVERT JUMPDEST PUSH1 0x20 MUL PUSH1 0x20 ADD ADD MLOAD DUP2 MSTORE PUSH1 0x20 ADD SWAP1 DUP2 MSTORE PUSH1 0x20 ADD PUSH1 0x0 KECCAK256 PUSH1 0x0 ADD PUSH1 0x0 SWAP1 SLOAD SWAP1 PUSH2 0x100 EXP SWAP1 DIV PUSH4 0xFFFFFFFF AND DUP4 DUP3 DUP2 MLOAD DUP2 LT PUSH2 0x6EB JUMPI PUSH4 0x4E487B71 PUSH1 0xE0 SHL PUSH1 0x0 MSTORE PUSH1 0x32 PUSH1 0x4 MSTORE PUSH1 0x24 PUSH1 0x0 REVERT JUMPDEST PUSH1 0x20 MUL PUSH1 0x20 ADD ADD SWAP1 PUSH4 0xFFFFFFFF AND SWAP1 DUP2 PUSH4 0xFFFFFFFF AND DUP2 MSTORE POP POP PUSH1 0x0 PUSH1 0x1 PUSH1 0x1 PUSH1 0xA0 SHL SUB AND PUSH1 0xE PUSH1 0x0 DUP7 DUP5 DUP2 MLOAD DUP2 LT PUSH2 0x734 JUMPI PUSH4 0x4E487B71 PUSH1 0xE0 SHL PUSH1 0x0 MSTORE PUSH1 0x32 PUSH1 0x4 MSTORE PUSH1 0x24 PUSH1 0x0 REVERT JUMPDEST PUSH1 0x20 SWAP1 DUP2 MUL SWAP2 SWAP1 SWAP2 ADD DUP2 ADD MLOAD DUP3 MSTORE DUP2 ADD SWAP2 SWAP1 SWAP2 MSTORE PUSH1 0x40 ADD PUSH1 0x0 KECCAK256 SLOAD PUSH5 0x100000000 SWAP1 DIV PUSH1 0x1 PUSH1 0x1 PUSH1 0xA0 SHL SUB AND EQ ISZERO PUSH2 0x79D JUMPI PUSH1 0x1 DUP3 DUP3 DUP2 MLOAD DUP2 LT PUSH2 0x788 JUMPI PUSH4 0x4E487B71 PUSH1 0xE0 SHL PUSH1 0x0 MSTORE PUSH1 0x32 PUSH1 0x4 MSTORE PUSH1 0x24 PUSH1 0x0 REVERT JUMPDEST SWAP2 ISZERO ISZERO PUSH1 0x20 SWAP3 DUP4 MUL SWAP2 SWAP1 SWAP2 ADD SWAP1 SWAP2 ADD MSTORE PUSH2 0x7D0 JUMP JUMPDEST PUSH1 0x0 DUP3 DUP3 DUP2 MLOAD DUP2 LT PUSH2 0x7BF JUMPI PUSH4 0x4E487B71 PUSH1 0xE0 SHL PUSH1 0x0 MSTORE PUSH1 0x32 PUSH1 0x4 MSTORE PUSH1 0x24 PUSH1 0x0 REVERT JUMPDEST SWAP2 ISZERO ISZERO PUSH1 0x20 SWAP3 DUP4 MUL SWAP2 SWAP1 SWAP2 ADD SWAP1 SWAP2 ADD MSTORE JUMPDEST DUP1 PUSH2 0x7DA DUP2 PUSH2 0x3AD0 JUMP JUMPDEST SWAP2 POP POP PUSH2 0x5DE JUMP JUMPDEST POP DUP3 DUP3 DUP3 PUSH2 0x7F0 DUP9 DUP16 PUSH2 0x38C3 JUMP JUMPDEST SWAP9 POP SWAP9 POP SWAP9 POP SWAP9 POP POP POP POP POP POP SWAP5 POP SWAP5 POP SWAP5 POP SWAP5 SWAP1 POP JUMP JUMPDEST PUSH2 0x810 PUSH2 0x3104 JUMP JUMPDEST PUSH1 0x0 DUP3 DUP2 MSTORE PUSH1 0xD PUSH1 0x20 MSTORE PUSH1 0x40 SWAP1 DUP2 SWAP1 KECCAK256 DUP2 MLOAD PUSH2 0x1A0 DUP2 ADD SWAP1 SWAP3 MSTORE DUP1 SLOAD DUP3 SWAP1 PUSH1 0xFF AND PUSH1 0x3 DUP2 GT ISZERO PUSH2 0x850 JUMPI PUSH4 0x4E487B71 PUSH1 0xE0 SHL PUSH1 0x0 MSTORE PUSH1 0x21 PUSH1 0x4 MSTORE PUSH1 0x24 PUSH1 0x0 REVERT JUMPDEST PUSH1 0x3 DUP2 GT ISZERO PUSH2 0x86F JUMPI PUSH4 0x4E487B71 PUSH1 0xE0 SHL PUSH1 0x0 MSTORE PUSH1 0x21 PUSH1 0x4 MSTORE PUSH1 0x24 PUSH1 0x0 REVERT JUMPDEST DUP2 MSTORE PUSH1 0x1 DUP3 ADD SLOAD PUSH1 0x20 DUP3 ADD MSTORE PUSH1 0x2 DUP3 ADD SLOAD PUSH1 0x40 DUP1 DUP4 ADD SWAP2 SWAP1 SWAP2 MSTORE PUSH1 0x3 DUP4 ADD SLOAD PUSH1 0x60 DUP4 ADD MSTORE PUSH1 0x4 DUP4 ADD SLOAD PUSH1 0x80 DUP4 ADD MSTORE DUP1 MLOAD PUSH1 0xC0 DUP2 ADD SWAP2 DUP3 SWAP1 MSTORE PUSH1 0xA0 SWAP1 SWAP3 ADD SWAP2 SWAP1 PUSH1 0x5 DUP5 ADD SWAP1 PUSH1 0x6 SWAP1 DUP3 DUP5 JUMPDEST DUP2 SLOAD DUP2 MSTORE PUSH1 0x20 ADD SWAP1 PUSH1 0x1 ADD SWAP1 DUP1 DUP4 GT PUSH2 0x8B9 JUMPI POP POP POP SWAP2 DUP4 MSTORE POP POP PUSH1 0xB DUP3 ADD SLOAD PUSH1 0x20 DUP3 ADD MSTORE PUSH1 0x40 DUP1 MLOAD PUSH1 0xC0 DUP2 ADD DUP3 MSTORE SWAP2 ADD SWAP1 PUSH1 0xC DUP4 ADD PUSH1 0x6 DUP3 DUP3 DUP3 PUSH1 0x20 MUL DUP3 ADD SWAP2 JUMPDEST DUP2 SLOAD DUP2 MSTORE PUSH1 0x20 ADD SWAP1 PUSH1 0x1 ADD SWAP1 DUP1 DUP4 GT PUSH2 0x8FB JUMPI POP POP POP SWAP2 DUP4 MSTORE POP POP PUSH1 0x40 DUP1 MLOAD PUSH1 0xC0 DUP2 ADD SWAP2 DUP3 SWAP1 MSTORE PUSH1 0x20 SWAP1 SWAP3 ADD SWAP2 SWAP1 PUSH1 0x12 DUP5 ADD SWAP1 PUSH1 0x6 SWAP1 DUP3 DUP5 JUMPDEST DUP2 SLOAD DUP2 MSTORE PUSH1 0x20 ADD SWAP1 PUSH1 0x1 ADD SWAP1 DUP1 DUP4 GT PUSH2 0x934 JUMPI POP POP POP SWAP2 DUP4 MSTORE POP POP PUSH1 0x18 DUP3 ADD SLOAD PUSH1 0x20 DUP3 ADD MSTORE PUSH1 0x19 DUP3 ADD SLOAD PUSH1 0x40 DUP3 ADD MSTORE PUSH1 0x1A DUP3 ADD SLOAD PUSH1 0x60 DUP3 ADD MSTORE PUSH1 0x1B SWAP1 SWAP2 ADD SLOAD PUSH4 0xFFFFFFFF AND PUSH1 0x80 SWAP1 SWAP2 ADD MSTORE SWAP3 SWAP2 POP POP JUMP JUMPDEST PUSH1 0x0 PUSH1 0x3 PUSH1 0x0 DUP6 DUP2 MSTORE PUSH1 0xD PUSH1 0x20 MSTORE PUSH1 0x40 SWAP1 KECCAK256 SLOAD PUSH1 0xFF AND PUSH1 0x3 DUP2 GT ISZERO PUSH2 0x9BA JUMPI PUSH4 0x4E487B71 PUSH1 0xE0 SHL PUSH1 0x0 MSTORE PUSH1 0x21 PUSH1 0x4 MSTORE PUSH1 0x24 PUSH1 0x0 REVERT JUMPDEST EQ PUSH2 0x9C7 JUMPI POP PUSH1 0x0 PUSH2 0xA13 JUMP JUMPDEST PUSH1 0x0 DUP5 DUP2 MSTORE PUSH1 0xD PUSH1 0x20 MSTORE PUSH1 0x40 SWAP1 KECCAK256 PUSH1 0x19 ADD SLOAD DUP4 GT DUP1 ISZERO PUSH2 0x9F8 JUMPI POP PUSH1 0x0 DUP5 DUP2 MSTORE PUSH1 0xD PUSH1 0x20 MSTORE PUSH1 0x40 SWAP1 KECCAK256 PUSH1 0x18 ADD SLOAD DUP4 GT ISZERO JUMPDEST ISZERO PUSH2 0xA05 JUMPI POP PUSH1 0x0 PUSH2 0xA13 JUMP JUMPDEST PUSH2 0xA10 DUP5 DUP5 DUP5 PUSH2 0x2D31 JUMP JUMPDEST SWAP1 POP JUMPDEST SWAP4 SWAP3 POP POP POP JUMP JUMPDEST PUSH1 0x1 SLOAD PUSH1 0x1 PUSH1 0x1 PUSH1 0xA0 SHL SUB AND CALLER EQ PUSH2 0xA4D JUMPI PUSH1 0x40 MLOAD PUSH3 0x461BCD PUSH1 0xE5 SHL DUP2 MSTORE PUSH1 0x4 ADD PUSH2 0xA44 SWAP1 PUSH2 0x376E JUMP JUMPDEST PUSH1 0x40 MLOAD DUP1 SWAP2 SUB SWAP1 REVERT JUMPDEST PUSH1 0xB SLOAD PUSH1 0x1 PUSH1 0x1 PUSH1 0xA0 SHL SUB DUP4 DUP2 AND SWAP2 AND EQ ISZERO PUSH2 0xAA2 JUMPI PUSH1 0x40 MLOAD PUSH3 0x461BCD PUSH1 0xE5 SHL DUP2 MSTORE PUSH1 0x20 PUSH1 0x4 DUP3 ADD MSTORE PUSH1 0x14 PUSH1 0x24 DUP3 ADD MSTORE PUSH20 0x21B0B73737BA1031329021A0A5A2903A37B5B2B7 PUSH1 0x61 SHL PUSH1 0x44 DUP3 ADD MSTORE PUSH1 0x64 ADD PUSH2 0xA44 JUMP JUMPDEST PUSH2 0xAB6 PUSH1 0x1 PUSH1 0x1 PUSH1 0xA0 SHL SUB DUP4 AND CALLER DUP4 PUSH2 0x2E4A JUMP JUMPDEST PUSH1 0x40 DUP1 MLOAD PUSH1 0x1 PUSH1 0x1 PUSH1 0xA0 SHL SUB DUP5 AND DUP2 MSTORE PUSH1 0x20 DUP2 ADD DUP4 SWAP1 MSTORE PUSH32 0x74545154AAC348A3EAC92596BD1971957CA94795F4E954EC5F613B55FAB78129 SWAP2 ADD PUSH1 0x40 MLOAD DUP1 SWAP2 SUB SWAP1 LOG1 POP POP JUMP JUMPDEST PUSH1 0x1 SLOAD PUSH1 0x1 PUSH1 0x1 PUSH1 0xA0 SHL SUB AND CALLER EQ DUP1 PUSH2 0xB1F JUMPI POP PUSH1 0x2 SLOAD PUSH1 0x1 PUSH1 0x1 PUSH1 0xA0 SHL SUB AND CALLER EQ JUMPDEST PUSH2 0xB63 JUMPI PUSH1 0x40 MLOAD PUSH3 0x461BCD PUSH1 0xE5 SHL DUP2 MSTORE PUSH1 0x20 PUSH1 0x4 DUP3 ADD MSTORE PUSH1 0x15 PUSH1 0x24 DUP3 ADD MSTORE PUSH21 0x2737BA1037BBB732B91037B91034B73532B1BA37B9 PUSH1 0x59 SHL PUSH1 0x44 DUP3 ADD MSTORE PUSH1 0x64 ADD PUSH2 0xA44 JUMP JUMPDEST PUSH1 0x1 PUSH1 0x0 DUP4 DUP2 MSTORE PUSH1 0xD PUSH1 0x20 MSTORE PUSH1 0x40 SWAP1 KECCAK256 SLOAD PUSH1 0xFF AND PUSH1 0x3 DUP2 GT ISZERO PUSH2 0xB96 JUMPI PUSH4 0x4E487B71 PUSH1 0xE0 SHL PUSH1 0x0 MSTORE PUSH1 0x21 PUSH1 0x4 MSTORE PUSH1 0x24 PUSH1 0x0 REVERT JUMPDEST EQ PUSH2 0xBD6 JUMPI PUSH1 0x40 MLOAD PUSH3 0x461BCD PUSH1 0xE5 SHL DUP2 MSTORE PUSH1 0x20 PUSH1 0x4 DUP3 ADD MSTORE PUSH1 0x10 PUSH1 0x24 DUP3 ADD MSTORE PUSH16 0x2637BA3A32B93C903737BA1037B832B7 PUSH1 0x81 SHL PUSH1 0x44 DUP3 ADD MSTORE PUSH1 0x64 ADD PUSH2 0xA44 JUMP JUMPDEST PUSH1 0xB SLOAD PUSH2 0xBEE SWAP1 PUSH1 0x1 PUSH1 0x1 PUSH1 0xA0 SHL SUB AND CALLER ADDRESS DUP5 PUSH2 0x2EB2 JUMP JUMPDEST PUSH1 0x0 DUP3 DUP2 MSTORE PUSH1 0xD PUSH1 0x20 MSTORE PUSH1 0x40 DUP2 KECCAK256 PUSH1 0x1A ADD DUP1 SLOAD DUP4 SWAP3 SWAP1 PUSH2 0xC0F SWAP1 DUP5 SWAP1 PUSH2 0x38C3 JUMP JUMPDEST SWAP1 SWAP2 SSTORE POP POP PUSH1 0x40 MLOAD DUP2 DUP2 MSTORE DUP3 SWAP1 PUSH32 0x1BBD659DD628A25F7FF2EABB69C74A56939C539728282275C1C9C1A2D3E34049 SWAP1 PUSH1 0x20 ADD PUSH1 0x40 MLOAD DUP1 SWAP2 SUB SWAP1 LOG2 POP POP JUMP JUMPDEST PUSH1 0x1 SLOAD PUSH1 0x1 PUSH1 0x1 PUSH1 0xA0 SHL SUB AND CALLER EQ PUSH2 0xC77 JUMPI PUSH1 0x40 MLOAD PUSH3 0x461BCD PUSH1 0xE5 SHL DUP2 MSTORE PUSH1 0x4 ADD PUSH2 0xA44 SWAP1 PUSH2 0x376E JUMP JUMPDEST DUP1 PUSH2 0xCB2 JUMPI PUSH1 0x40 MLOAD PUSH3 0x461BCD PUSH1 0xE5 SHL DUP2 MSTORE PUSH1 0x20 PUSH1 0x4 DUP3 ADD MSTORE PUSH1 0xB PUSH1 0x24 DUP3 ADD MSTORE PUSH11 0x4D757374206265203E203 PUSH1 0xAC SHL PUSH1 0x44 DUP3 ADD MSTORE PUSH1 0x64 ADD PUSH2 0xA44 JUMP JUMPDEST PUSH1 0x7 SSTORE JUMP JUMPDEST PUSH1 0x1 SLOAD PUSH1 0x1 PUSH1 0x1 PUSH1 0xA0 SHL SUB AND CALLER EQ PUSH2 0xCE1 JUMPI PUSH1 0x40 MLOAD PUSH3 0x461BCD PUSH1 0xE5 SHL DUP2 MSTORE PUSH1 0x4 ADD PUSH2 0xA44 SWAP1 PUSH2 0x376E JUMP JUMPDEST PUSH1 0x1 SLOAD PUSH1 0x40 MLOAD PUSH1 0x0 SWAP2 PUSH1 0x1 PUSH1 0x1 PUSH1 0xA0 SHL SUB AND SWAP1 PUSH32 0x8BE0079C531659141344CD1FD0A4F28419497F9722A3DAAFE3B4186F6B6457E0 SWAP1 DUP4 SWAP1 LOG3 PUSH1 0x1 DUP1 SLOAD PUSH1 0x1 PUSH1 0x1 PUSH1 0xA0 SHL SUB NOT AND SWAP1 SSTORE JUMP JUMPDEST CALLER EXTCODESIZE ISZERO PUSH2 0xD71 JUMPI PUSH1 0x40 MLOAD PUSH3 0x461BCD PUSH1 0xE5 SHL DUP2 MSTORE PUSH1 0x20 PUSH1 0x4 DUP3 ADD MSTORE PUSH1 0x14 PUSH1 0x24 DUP3 ADD MSTORE PUSH20 0x10DBDB9D1C9858DD081B9BDD08185B1B1BDDD959 PUSH1 0x62 SHL PUSH1 0x44 DUP3 ADD MSTORE PUSH1 0x64 ADD PUSH2 0xA44 JUMP JUMPDEST CALLER ORIGIN EQ PUSH2 0xDC0 JUMPI PUSH1 0x40 MLOAD PUSH3 0x461BCD PUSH1 0xE5 SHL DUP2 MSTORE PUSH1 0x20 PUSH1 0x4 DUP3 ADD MSTORE PUSH1 0x1A PUSH1 0x24 DUP3 ADD MSTORE PUSH32 0x50726F787920636F6E7472616374206E6F7420616C6C6F776564000000000000 PUSH1 0x44 DUP3 ADD MSTORE PUSH1 0x64 ADD PUSH2 0xA44 JUMP JUMPDEST PUSH1 0x2 PUSH1 0x0 SLOAD EQ ISZERO PUSH2 0xDE3 JUMPI PUSH1 0x40 MLOAD PUSH3 0x461BCD PUSH1 0xE5 SHL DUP2 MSTORE PUSH1 0x4 ADD PUSH2 0xA44 SWAP1 PUSH2 0x37A3 JUMP JUMPDEST PUSH1 0x2 PUSH1 0x0 SSTORE DUP1 PUSH2 0xE2B JUMPI PUSH1 0x40 MLOAD PUSH3 0x461BCD PUSH1 0xE5 SHL DUP2 MSTORE PUSH1 0x20 PUSH1 0x4 DUP3 ADD MSTORE PUSH1 0x13 PUSH1 0x24 DUP3 ADD MSTORE PUSH19 0x139BC81D1A58DAD95D081CDC1958DA599A5959 PUSH1 0x6A SHL PUSH1 0x44 DUP3 ADD MSTORE PUSH1 0x64 ADD PUSH2 0xA44 JUMP JUMPDEST PUSH1 0x7 SLOAD DUP2 GT ISZERO PUSH2 0xE70 JUMPI PUSH1 0x40 MLOAD PUSH3 0x461BCD PUSH1 0xE5 SHL DUP2 MSTORE PUSH1 0x20 PUSH1 0x4 DUP3 ADD MSTORE PUSH1 0x10 PUSH1 0x24 DUP3 ADD MSTORE PUSH16 0x546F6F206D616E79207469636B657473 PUSH1 0x80 SHL PUSH1 0x44 DUP3 ADD MSTORE PUSH1 0x64 ADD PUSH2 0xA44 JUMP JUMPDEST PUSH1 0x1 PUSH1 0x0 DUP5 DUP2 MSTORE PUSH1 0xD PUSH1 0x20 MSTORE PUSH1 0x40 SWAP1 KECCAK256 SLOAD PUSH1 0xFF AND PUSH1 0x3 DUP2 GT ISZERO PUSH2 0xEA3 JUMPI PUSH4 0x4E487B71 PUSH1 0xE0 SHL PUSH1 0x0 MSTORE PUSH1 0x21 PUSH1 0x4 MSTORE PUSH1 0x24 PUSH1 0x0 REVERT JUMPDEST EQ PUSH2 0xEE6 JUMPI PUSH1 0x40 MLOAD PUSH3 0x461BCD PUSH1 0xE5 SHL DUP2 MSTORE PUSH1 0x20 PUSH1 0x4 DUP3 ADD MSTORE PUSH1 0x13 PUSH1 0x24 DUP3 ADD MSTORE PUSH19 0x2637BA3A32B93C9034B9903737BA1037B832B7 PUSH1 0x69 SHL PUSH1 0x44 DUP3 ADD MSTORE PUSH1 0x64 ADD PUSH2 0xA44 JUMP JUMPDEST PUSH1 0x0 DUP4 DUP2 MSTORE PUSH1 0xD PUSH1 0x20 MSTORE PUSH1 0x40 SWAP1 KECCAK256 PUSH1 0x2 ADD SLOAD TIMESTAMP LT PUSH2 0xF38 JUMPI PUSH1 0x40 MLOAD PUSH3 0x461BCD PUSH1 0xE5 SHL DUP2 MSTORE PUSH1 0x20 PUSH1 0x4 DUP3 ADD MSTORE PUSH1 0xF PUSH1 0x24 DUP3 ADD MSTORE PUSH15 0x2637BA3A32B93C9034B99037BB32B9 PUSH1 0x89 SHL PUSH1 0x44 DUP3 ADD MSTORE PUSH1 0x64 ADD PUSH2 0xA44 JUMP JUMPDEST PUSH1 0x0 DUP4 DUP2 MSTORE PUSH1 0xD PUSH1 0x20 MSTORE PUSH1 0x40 DUP2 KECCAK256 PUSH1 0x4 DUP2 ADD SLOAD PUSH1 0x3 SWAP1 SWAP2 ADD SLOAD PUSH2 0xF5C SWAP2 SWAP1 DUP5 PUSH2 0x2EF0 JUMP JUMPDEST PUSH1 0xB SLOAD SWAP1 SWAP2 POP PUSH2 0xF77 SWAP1 PUSH1 0x1 PUSH1 0x1 PUSH1 0xA0 SHL SUB AND CALLER ADDRESS DUP5 PUSH2 0x2EB2 JUMP JUMPDEST PUSH1 0x0 DUP5 DUP2 MSTORE PUSH1 0xD PUSH1 0x20 MSTORE PUSH1 0x40 DUP2 KECCAK256 PUSH1 0x1A ADD DUP1 SLOAD DUP4 SWAP3 SWAP1 PUSH2 0xF98 SWAP1 DUP5 SWAP1 PUSH2 0x38C3 JUMP JUMPDEST SWAP1 SWAP2 SSTORE POP PUSH1 0x0 SWAP1 POP JUMPDEST DUP3 DUP2 LT ISZERO PUSH2 0x12C9 JUMPI PUSH1 0x0 DUP5 DUP5 DUP4 DUP2 DUP2 LT PUSH2 0xFCB JUMPI PUSH4 0x4E487B71 PUSH1 0xE0 SHL PUSH1 0x0 MSTORE PUSH1 0x32 PUSH1 0x4 MSTORE PUSH1 0x24 PUSH1 0x0 REVERT JUMPDEST SWAP1 POP PUSH1 0x20 MUL ADD PUSH1 0x20 DUP2 ADD SWAP1 PUSH2 0xFE0 SWAP2 SWAP1 PUSH2 0x355F JUMP JUMPDEST SWAP1 POP PUSH3 0xF4240 DUP2 PUSH4 0xFFFFFFFF AND LT ISZERO DUP1 ISZERO PUSH2 0x1004 JUMPI POP PUSH3 0x1E847F DUP2 PUSH4 0xFFFFFFFF AND GT ISZERO JUMPDEST PUSH2 0x1040 JUMPI PUSH1 0x40 MLOAD PUSH3 0x461BCD PUSH1 0xE5 SHL DUP2 MSTORE PUSH1 0x20 PUSH1 0x4 DUP3 ADD MSTORE PUSH1 0xD PUSH1 0x24 DUP3 ADD MSTORE PUSH13 0x4F7574736964652072616E6765 PUSH1 0x98 SHL PUSH1 0x44 DUP3 ADD MSTORE PUSH1 0x64 ADD PUSH2 0xA44 JUMP JUMPDEST PUSH1 0x0 DUP7 DUP2 MSTORE PUSH1 0x10 PUSH1 0x20 MSTORE PUSH1 0x40 DUP2 KECCAK256 SWAP1 PUSH2 0x105A PUSH1 0xA DUP5 PUSH2 0x3B0F JUMP JUMPDEST PUSH2 0x1065 SWAP1 PUSH1 0x1 PUSH2 0x38DB JUMP JUMPDEST PUSH4 0xFFFFFFFF AND DUP2 MSTORE PUSH1 0x20 DUP2 ADD SWAP2 SWAP1 SWAP2 MSTORE PUSH1 0x40 ADD PUSH1 0x0 SWAP1 DUP2 KECCAK256 DUP1 SLOAD SWAP2 PUSH2 0x1089 DUP4 PUSH2 0x3AD0 JUMP JUMPDEST SWAP1 SWAP2 SSTORE POP POP PUSH1 0x0 DUP7 DUP2 MSTORE PUSH1 0x10 PUSH1 0x20 MSTORE PUSH1 0x40 DUP2 KECCAK256 SWAP1 PUSH2 0x10A8 PUSH1 0x64 DUP5 PUSH2 0x3B0F JUMP JUMPDEST PUSH2 0x10B3 SWAP1 PUSH1 0xB PUSH2 0x38DB JUMP JUMPDEST PUSH4 0xFFFFFFFF AND DUP2 MSTORE PUSH1 0x20 DUP2 ADD SWAP2 SWAP1 SWAP2 MSTORE PUSH1 0x40 ADD PUSH1 0x0 SWAP1 DUP2 KECCAK256 DUP1 SLOAD SWAP2 PUSH2 0x10D7 DUP4 PUSH2 0x3AD0 JUMP JUMPDEST SWAP1 SWAP2 SSTORE POP POP PUSH1 0x0 DUP7 DUP2 MSTORE PUSH1 0x10 PUSH1 0x20 MSTORE PUSH1 0x40 DUP2 KECCAK256 SWAP1 PUSH2 0x10F7 PUSH2 0x3E8 DUP5 PUSH2 0x3B0F JUMP JUMPDEST PUSH2 0x1102 SWAP1 PUSH1 0x6F PUSH2 0x38DB JUMP JUMPDEST PUSH4 0xFFFFFFFF AND DUP2 MSTORE PUSH1 0x20 DUP2 ADD SWAP2 SWAP1 SWAP2 MSTORE PUSH1 0x40 ADD PUSH1 0x0 SWAP1 DUP2 KECCAK256 DUP1 SLOAD SWAP2 PUSH2 0x1126 DUP4 PUSH2 0x3AD0 JUMP JUMPDEST SWAP1 SWAP2 SSTORE POP POP PUSH1 0x0 DUP7 DUP2 MSTORE PUSH1 0x10 PUSH1 0x20 MSTORE PUSH1 0x40 DUP2 KECCAK256 SWAP1 PUSH2 0x1146 PUSH2 0x2710 DUP5 PUSH2 0x3B0F JUMP JUMPDEST PUSH2 0x1152 SWAP1 PUSH2 0x457 PUSH2 0x38DB JUMP JUMPDEST PUSH4 0xFFFFFFFF AND DUP2 MSTORE PUSH1 0x20 DUP2 ADD SWAP2 SWAP1 SWAP2 MSTORE PUSH1 0x40 ADD PUSH1 0x0 SWAP1 DUP2 KECCAK256 DUP1 SLOAD SWAP2 PUSH2 0x1176 DUP4 PUSH2 0x3AD0 JUMP JUMPDEST SWAP1 SWAP2 SSTORE POP POP PUSH1 0x0 DUP7 DUP2 MSTORE PUSH1 0x10 PUSH1 0x20 MSTORE PUSH1 0x40 DUP2 KECCAK256 SWAP1 PUSH2 0x1197 PUSH3 0x186A0 DUP5 PUSH2 0x3B0F JUMP JUMPDEST PUSH2 0x11A3 SWAP1 PUSH2 0x2B67 PUSH2 0x38DB JUMP JUMPDEST PUSH4 0xFFFFFFFF AND DUP2 MSTORE PUSH1 0x20 DUP2 ADD SWAP2 SWAP1 SWAP2 MSTORE PUSH1 0x40 ADD PUSH1 0x0 SWAP1 DUP2 KECCAK256 DUP1 SLOAD SWAP2 PUSH2 0x11C7 DUP4 PUSH2 0x3AD0 JUMP JUMPDEST SWAP1 SWAP2 SSTORE POP POP PUSH1 0x0 DUP7 DUP2 MSTORE PUSH1 0x10 PUSH1 0x20 MSTORE PUSH1 0x40 DUP2 KECCAK256 SWAP1 PUSH2 0x11E8 PUSH3 0xF4240 DUP5 PUSH2 0x3B0F JUMP JUMPDEST PUSH2 0x11F5 SWAP1 PUSH3 0x1B207 PUSH2 0x38DB JUMP JUMPDEST PUSH4 0xFFFFFFFF AND DUP2 MSTORE PUSH1 0x20 DUP2 ADD SWAP2 SWAP1 SWAP2 MSTORE PUSH1 0x40 ADD PUSH1 0x0 SWAP1 DUP2 KECCAK256 DUP1 SLOAD SWAP2 PUSH2 0x1219 DUP4 PUSH2 0x3AD0 JUMP JUMPDEST SWAP1 SWAP2 SSTORE POP POP CALLER PUSH1 0x0 DUP2 DUP2 MSTORE PUSH1 0x11 PUSH1 0x20 SWAP1 DUP2 MSTORE PUSH1 0x40 DUP1 DUP4 KECCAK256 DUP11 DUP5 MSTORE DUP3 MSTORE DUP1 DUP4 KECCAK256 PUSH1 0x6 DUP1 SLOAD DUP3 SLOAD PUSH1 0x1 DUP2 ADD DUP5 SSTORE SWAP3 DUP7 MSTORE DUP5 DUP7 KECCAK256 SWAP1 SWAP3 ADD SWAP2 SWAP1 SWAP2 SSTORE DUP2 MLOAD DUP1 DUP4 ADD DUP4 MSTORE PUSH4 0xFFFFFFFF DUP1 DUP9 AND DUP3 MSTORE DUP2 DUP6 ADD SWAP7 DUP8 MSTORE DUP3 SLOAD DUP7 MSTORE PUSH1 0xE SWAP1 SWAP5 MSTORE SWAP2 DUP5 KECCAK256 SWAP2 MLOAD DUP3 SLOAD SWAP6 MLOAD PUSH1 0x1 PUSH1 0x1 PUSH1 0xA0 SHL SUB AND PUSH5 0x100000000 MUL PUSH1 0x1 PUSH1 0x1 PUSH1 0xC0 SHL SUB NOT SWAP1 SWAP7 AND SWAP4 AND SWAP3 SWAP1 SWAP3 OR SWAP4 SWAP1 SWAP4 OR SWAP1 SWAP3 SSTORE DUP2 SLOAD SWAP2 SWAP1 PUSH2 0x12B0 DUP4 PUSH2 0x3AD0 JUMP JUMPDEST SWAP2 SWAP1 POP SSTORE POP POP DUP1 DUP1 PUSH2 0x12C1 SWAP1 PUSH2 0x3AD0 JUMP JUMPDEST SWAP2 POP POP PUSH2 0xFA1 JUMP JUMPDEST POP PUSH1 0x40 MLOAD DUP3 DUP2 MSTORE DUP5 SWAP1 CALLER SWAP1 PUSH32 0xD7D247B583DE1023852EEF87B48F54354DBEC771D01BC2CC49E96094EFC322B9 SWAP1 PUSH1 0x20 ADD PUSH1 0x40 MLOAD DUP1 SWAP2 SUB SWAP1 LOG3 POP POP PUSH1 0x1 PUSH1 0x0 SSTORE POP POP JUMP JUMPDEST PUSH1 0x60 DUP1 DUP3 PUSH1 0x0 DUP2 PUSH8 0xFFFFFFFFFFFFFFFF DUP2 GT ISZERO PUSH2 0x1339 JUMPI PUSH4 0x4E487B71 PUSH1 0xE0 SHL PUSH1 0x0 MSTORE PUSH1 0x41 PUSH1 0x4 MSTORE PUSH1 0x24 PUSH1 0x0 REVERT JUMPDEST PUSH1 0x40 MLOAD SWAP1 DUP1 DUP3 MSTORE DUP1 PUSH1 0x20 MUL PUSH1 0x20 ADD DUP3 ADD PUSH1 0x40 MSTORE DUP1 ISZERO PUSH2 0x1362 JUMPI DUP2 PUSH1 0x20 ADD PUSH1 0x20 DUP3 MUL DUP1 CALLDATASIZE DUP4 CALLDATACOPY ADD SWAP1 POP JUMPDEST POP SWAP1 POP PUSH1 0x0 DUP3 PUSH8 0xFFFFFFFFFFFFFFFF DUP2 GT ISZERO PUSH2 0x138E JUMPI PUSH4 0x4E487B71 PUSH1 0xE0 SHL PUSH1 0x0 MSTORE PUSH1 0x41 PUSH1 0x4 MSTORE PUSH1 0x24 PUSH1 0x0 REVERT JUMPDEST PUSH1 0x40 MLOAD SWAP1 DUP1 DUP3 MSTORE DUP1 PUSH1 0x20 MUL PUSH1 0x20 ADD DUP3 ADD PUSH1 0x40 MSTORE DUP1 ISZERO PUSH2 0x13B7 JUMPI DUP2 PUSH1 0x20 ADD PUSH1 0x20 DUP3 MUL DUP1 CALLDATASIZE DUP4 CALLDATACOPY ADD SWAP1 POP JUMPDEST POP SWAP1 POP PUSH1 0x0 JUMPDEST DUP4 DUP2 LT ISZERO PUSH2 0x1519 JUMPI PUSH1 0xE PUSH1 0x0 DUP10 DUP10 DUP5 DUP2 DUP2 LT PUSH2 0x13E9 JUMPI PUSH4 0x4E487B71 PUSH1 0xE0 SHL PUSH1 0x0 MSTORE PUSH1 0x32 PUSH1 0x4 MSTORE PUSH1 0x24 PUSH1 0x0 REVERT JUMPDEST SWAP1 POP PUSH1 0x20 MUL ADD CALLDATALOAD DUP2 MSTORE PUSH1 0x20 ADD SWAP1 DUP2 MSTORE PUSH1 0x20 ADD PUSH1 0x0 KECCAK256 PUSH1 0x0 ADD PUSH1 0x0 SWAP1 SLOAD SWAP1 PUSH2 0x100 EXP SWAP1 DIV PUSH4 0xFFFFFFFF AND DUP4 DUP3 DUP2 MLOAD DUP2 LT PUSH2 0x1432 JUMPI PUSH4 0x4E487B71 PUSH1 0xE0 SHL PUSH1 0x0 MSTORE PUSH1 0x32 PUSH1 0x4 MSTORE PUSH1 0x24 PUSH1 0x0 REVERT JUMPDEST PUSH4 0xFFFFFFFF SWAP1 SWAP3 AND PUSH1 0x20 SWAP3 DUP4 MUL SWAP2 SWAP1 SWAP2 ADD SWAP1 SWAP2 ADD MSTORE PUSH1 0x0 PUSH1 0xE DUP2 DUP11 DUP11 DUP6 DUP2 DUP2 LT PUSH2 0x146C JUMPI PUSH4 0x4E487B71 PUSH1 0xE0 SHL PUSH1 0x0 MSTORE PUSH1 0x32 PUSH1 0x4 MSTORE PUSH1 0x24 PUSH1 0x0 REVERT JUMPDEST PUSH1 0x20 SWAP1 DUP2 MUL SWAP3 SWAP1 SWAP3 ADD CALLDATALOAD DUP4 MSTORE POP DUP2 ADD SWAP2 SWAP1 SWAP2 MSTORE PUSH1 0x40 ADD PUSH1 0x0 KECCAK256 SLOAD PUSH5 0x100000000 SWAP1 DIV PUSH1 0x1 PUSH1 0x1 PUSH1 0xA0 SHL SUB AND EQ ISZERO PUSH2 0x14D4 JUMPI PUSH1 0x1 DUP3 DUP3 DUP2 MLOAD DUP2 LT PUSH2 0x14BF JUMPI PUSH4 0x4E487B71 PUSH1 0xE0 SHL PUSH1 0x0 MSTORE PUSH1 0x32 PUSH1 0x4 MSTORE PUSH1 0x24 PUSH1 0x0 REVERT JUMPDEST SWAP2 ISZERO ISZERO PUSH1 0x20 SWAP3 DUP4 MUL SWAP2 SWAP1 SWAP2 ADD SWAP1 SWAP2 ADD MSTORE PUSH2 0x1507 JUMP JUMPDEST PUSH1 0x0 DUP3 DUP3 DUP2 MLOAD DUP2 LT PUSH2 0x14F6 JUMPI PUSH4 0x4E487B71 PUSH1 0xE0 SHL PUSH1 0x0 MSTORE PUSH1 0x32 PUSH1 0x4 MSTORE PUSH1 0x24 PUSH1 0x0 REVERT JUMPDEST SWAP2 ISZERO ISZERO PUSH1 0x20 SWAP3 DUP4 MUL SWAP2 SWAP1 SWAP2 ADD SWAP1 SWAP2 ADD MSTORE JUMPDEST DUP1 PUSH2 0x1511 DUP2 PUSH2 0x3AD0 JUMP JUMPDEST SWAP2 POP POP PUSH2 0x13BD JUMP JUMPDEST POP SWAP1 SWAP4 POP SWAP2 POP POP JUMPDEST SWAP3 POP SWAP3 SWAP1 POP JUMP JUMPDEST PUSH1 0x1 SLOAD PUSH1 0x1 PUSH1 0x1 PUSH1 0xA0 SHL SUB AND CALLER EQ PUSH2 0x1552 JUMPI PUSH1 0x40 MLOAD PUSH3 0x461BCD PUSH1 0xE5 SHL DUP2 MSTORE PUSH1 0x4 ADD PUSH2 0xA44 SWAP1 PUSH2 0x376E JUMP JUMPDEST PUSH1 0x3 PUSH1 0x5 SLOAD PUSH1 0x0 SWAP1 DUP2 MSTORE PUSH1 0xD PUSH1 0x20 MSTORE PUSH1 0x40 SWAP1 KECCAK256 SLOAD PUSH1 0xFF AND PUSH1 0x3 DUP2 GT ISZERO PUSH2 0x1588 JUMPI PUSH4 0x4E487B71 PUSH1 0xE0 SHL PUSH1 0x0 MSTORE PUSH1 0x21 PUSH1 0x4 MSTORE PUSH1 0x24 PUSH1 0x0 REVERT JUMPDEST EQ PUSH2 0x15D5 JUMPI PUSH1 0x40 MLOAD PUSH3 0x461BCD PUSH1 0xE5 SHL DUP2 MSTORE PUSH1 0x20 PUSH1 0x4 DUP3 ADD MSTORE PUSH1 0x18 PUSH1 0x24 DUP3 ADD MSTORE PUSH32 0x4C6F7474657279206E6F7420696E20636C61696D61626C650000000000000000 PUSH1 0x44 DUP3 ADD MSTORE PUSH1 0x64 ADD PUSH2 0xA44 JUMP JUMPDEST DUP1 PUSH1 0x1 PUSH1 0x1 PUSH1 0xA0 SHL SUB AND PUSH4 0xB37217A4 PUSH1 0x5 SLOAD PUSH1 0x6 SLOAD PUSH1 0x40 MLOAD PUSH1 0x20 ADD PUSH2 0x1604 SWAP3 SWAP2 SWAP1 SWAP2 DUP3 MSTORE PUSH1 0x20 DUP3 ADD MSTORE PUSH1 0x40 ADD SWAP1 JUMP JUMPDEST PUSH1 0x40 DUP1 MLOAD DUP1 DUP4 SUB PUSH1 0x1F NOT ADD DUP2 MSTORE SWAP1 DUP3 SWAP1 MSTORE DUP1 MLOAD PUSH1 0x20 SWAP1 SWAP2 ADD KECCAK256 PUSH1 0xE0 DUP4 SWAP1 SHL PUSH1 0x1 PUSH1 0x1 PUSH1 0xE0 SHL SUB NOT AND DUP3 MSTORE PUSH1 0x4 DUP3 ADD MSTORE PUSH1 0x24 ADD PUSH1 0x0 PUSH1 0x40 MLOAD DUP1 DUP4 SUB DUP2 PUSH1 0x0 DUP8 DUP1 EXTCODESIZE ISZERO DUP1 ISZERO PUSH2 0x1650 JUMPI PUSH1 0x0 DUP1 REVERT JUMPDEST POP GAS CALL ISZERO DUP1 ISZERO PUSH2 0x1664 JUMPI RETURNDATASIZE PUSH1 0x0 DUP1 RETURNDATACOPY RETURNDATASIZE PUSH1 0x0 REVERT JUMPDEST POP POP POP POP DUP1 PUSH1 0x1 PUSH1 0x1 PUSH1 0xA0 SHL SUB AND PUSH4 0xA1C4F55A PUSH1 0x40 MLOAD DUP2 PUSH4 0xFFFFFFFF AND PUSH1 0xE0 SHL DUP2 MSTORE PUSH1 0x4 ADD PUSH1 0x20 PUSH1 0x40 MLOAD DUP1 DUP4 SUB DUP2 DUP7 DUP1 EXTCODESIZE ISZERO DUP1 ISZERO PUSH2 0x16A1 JUMPI PUSH1 0x0 DUP1 REVERT JUMPDEST POP GAS STATICCALL ISZERO DUP1 ISZERO PUSH2 0x16B5 JUMPI RETURNDATASIZE PUSH1 0x0 DUP1 RETURNDATACOPY RETURNDATASIZE PUSH1 0x0 REVERT JUMPDEST POP POP POP POP PUSH1 0x40 MLOAD RETURNDATASIZE PUSH1 0x1F NOT PUSH1 0x1F DUP3 ADD AND DUP3 ADD DUP1 PUSH1 0x40 MSTORE POP DUP2 ADD SWAP1 PUSH2 0x16D9 SWAP2 SWAP1 PUSH2 0x357B JUMP JUMPDEST POP PUSH1 0xC DUP1 SLOAD PUSH1 0x1 PUSH1 0x1 PUSH1 0xA0 SHL SUB NOT AND PUSH1 0x1 PUSH1 0x1 PUSH1 0xA0 SHL SUB DUP4 AND SWAP1 DUP2 OR SWAP1 SWAP2 SSTORE PUSH1 0x40 MLOAD PUSH32 0x383F8CB39DFA7C3FB901A460DD449EA924868F0A92FF03DA64740FFFA5F1DE62 SWAP1 PUSH1 0x0 SWAP1 LOG2 POP JUMP JUMPDEST PUSH1 0x3 SLOAD PUSH1 0x1 PUSH1 0x1 PUSH1 0xA0 SHL SUB AND CALLER EQ PUSH2 0x174E JUMPI PUSH1 0x40 MLOAD PUSH3 0x461BCD PUSH1 0xE5 SHL DUP2 MSTORE PUSH1 0x4 ADD PUSH2 0xA44 SWAP1 PUSH2 0x37DA JUMP JUMPDEST PUSH1 0x2 PUSH1 0x0 SLOAD EQ ISZERO PUSH2 0x1771 JUMPI PUSH1 0x40 MLOAD PUSH3 0x461BCD PUSH1 0xE5 SHL DUP2 MSTORE PUSH1 0x4 ADD PUSH2 0xA44 SWAP1 PUSH2 0x37A3 JUMP JUMPDEST PUSH1 0x2 PUSH1 0x0 SSTORE PUSH1 0x1 PUSH1 0x0 DUP3 DUP2 MSTORE PUSH1 0xD PUSH1 0x20 MSTORE PUSH1 0x40 SWAP1 KECCAK256 SLOAD PUSH1 0xFF AND PUSH1 0x3 DUP2 GT ISZERO PUSH2 0x17A9 JUMPI PUSH4 0x4E487B71 PUSH1 0xE0 SHL PUSH1 0x0 MSTORE PUSH1 0x21 PUSH1 0x4 MSTORE PUSH1 0x24 PUSH1 0x0 REVERT JUMPDEST EQ PUSH2 0x17E9 JUMPI PUSH1 0x40 MLOAD PUSH3 0x461BCD PUSH1 0xE5 SHL DUP2 MSTORE PUSH1 0x20 PUSH1 0x4 DUP3 ADD MSTORE PUSH1 0x10 PUSH1 0x24 DUP3 ADD MSTORE PUSH16 0x2637BA3A32B93C903737BA1037B832B7 PUSH1 0x81 SHL PUSH1 0x44 DUP3 ADD MSTORE PUSH1 0x64 ADD PUSH2 0xA44 JUMP JUMPDEST PUSH1 0x0 DUP2 DUP2 MSTORE PUSH1 0xD PUSH1 0x20 MSTORE PUSH1 0x40 SWAP1 KECCAK256 PUSH1 0x2 ADD SLOAD TIMESTAMP GT PUSH2 0x183C JUMPI PUSH1 0x40 MLOAD PUSH3 0x461BCD PUSH1 0xE5 SHL DUP2 MSTORE PUSH1 0x20 PUSH1 0x4 DUP3 ADD MSTORE PUSH1 0x10 PUSH1 0x24 DUP3 ADD MSTORE PUSH16 0x2637BA3A32B93C903737BA1037BB32B9 PUSH1 0x81 SHL PUSH1 0x44 DUP3 ADD MSTORE PUSH1 0x64 ADD PUSH2 0xA44 JUMP JUMPDEST PUSH1 0x6 SLOAD PUSH1 0x0 DUP3 DUP2 MSTORE PUSH1 0xD PUSH1 0x20 SWAP1 DUP2 MSTORE PUSH1 0x40 SWAP2 DUP3 SWAP1 KECCAK256 PUSH1 0x19 ADD DUP4 SWAP1 SSTORE PUSH1 0xC SLOAD DUP3 MLOAD SWAP2 DUP3 ADD DUP6 SWAP1 MSTORE SWAP2 DUP2 ADD SWAP3 SWAP1 SWAP3 MSTORE PUSH1 0x1 PUSH1 0x1 PUSH1 0xA0 SHL SUB AND SWAP1 PUSH4 0xB37217A4 SWAP1 PUSH1 0x60 ADD PUSH1 0x40 DUP1 MLOAD DUP1 DUP4 SUB PUSH1 0x1F NOT ADD DUP2 MSTORE SWAP1 DUP3 SWAP1 MSTORE DUP1 MLOAD PUSH1 0x20 SWAP1 SWAP2 ADD KECCAK256 PUSH1 0xE0 DUP4 SWAP1 SHL PUSH1 0x1 PUSH1 0x1 PUSH1 0xE0 SHL SUB NOT AND DUP3 MSTORE PUSH1 0x4 DUP3 ADD MSTORE PUSH1 0x24 ADD PUSH1 0x0 PUSH1 0x40 MLOAD DUP1 DUP4 SUB DUP2 PUSH1 0x0 DUP8 DUP1 EXTCODESIZE ISZERO DUP1 ISZERO PUSH2 0x18C8 JUMPI PUSH1 0x0 DUP1 REVERT JUMPDEST POP GAS CALL ISZERO DUP1 ISZERO PUSH2 0x18DC JUMPI RETURNDATASIZE PUSH1 0x0 DUP1 RETURNDATACOPY RETURNDATASIZE PUSH1 0x0 REVERT JUMPDEST POP POP POP PUSH1 0x0 DUP3 DUP2 MSTORE PUSH1 0xD PUSH1 0x20 SWAP1 DUP2 MSTORE PUSH1 0x40 SWAP2 DUP3 SWAP1 KECCAK256 DUP1 SLOAD PUSH1 0xFF NOT AND PUSH1 0x2 OR SWAP1 SSTORE PUSH1 0x6 SLOAD SWAP2 MLOAD SWAP2 DUP3 MSTORE DUP4 SWAP3 POP PUSH32 0x3728E75294796694D59D2FFCED9C394279BAF7B9EBD2702DB43F5F04BAC67929 SWAP2 ADD PUSH1 0x40 MLOAD DUP1 SWAP2 SUB SWAP1 LOG2 POP PUSH1 0x1 PUSH1 0x0 SSTORE JUMP JUMPDEST PUSH1 0x3 SLOAD PUSH1 0x1 PUSH1 0x1 PUSH1 0xA0 SHL SUB AND CALLER EQ PUSH2 0x1964 JUMPI PUSH1 0x40 MLOAD PUSH3 0x461BCD PUSH1 0xE5 SHL DUP2 MSTORE PUSH1 0x4 ADD PUSH2 0xA44 SWAP1 PUSH2 0x37DA JUMP JUMPDEST PUSH1 0x5 SLOAD ISZERO DUP1 PUSH2 0x19A6 JUMPI POP PUSH1 0x3 PUSH1 0x5 SLOAD PUSH1 0x0 SWAP1 DUP2 MSTORE PUSH1 0xD PUSH1 0x20 MSTORE PUSH1 0x40 SWAP1 KECCAK256 SLOAD PUSH1 0xFF AND PUSH1 0x3 DUP2 GT ISZERO PUSH2 0x19A4 JUMPI PUSH4 0x4E487B71 PUSH1 0xE0 SHL PUSH1 0x0 MSTORE PUSH1 0x21 PUSH1 0x4 MSTORE PUSH1 0x24 PUSH1 0x0 REVERT JUMPDEST EQ JUMPDEST PUSH2 0x19F2 JUMPI PUSH1 0x40 MLOAD PUSH3 0x461BCD PUSH1 0xE5 SHL DUP2 MSTORE PUSH1 0x20 PUSH1 0x4 DUP3 ADD MSTORE PUSH1 0x19 PUSH1 0x24 DUP3 ADD MSTORE PUSH32 0x4E6F742074696D6520746F207374617274206C6F747465727900000000000000 PUSH1 0x44 DUP3 ADD MSTORE PUSH1 0x64 ADD PUSH2 0xA44 JUMP JUMPDEST PUSH2 0x3714 PUSH2 0x19FF TIMESTAMP DUP8 PUSH2 0x3A68 JUMP JUMPDEST GT DUP1 ISZERO PUSH2 0x1A17 JUMPI POP PUSH3 0x5472C PUSH2 0x1A15 TIMESTAMP DUP8 PUSH2 0x3A68 JUMP JUMPDEST LT JUMPDEST PUSH2 0x1A63 JUMPI PUSH1 0x40 MLOAD PUSH3 0x461BCD PUSH1 0xE5 SHL DUP2 MSTORE PUSH1 0x20 PUSH1 0x4 DUP3 ADD MSTORE PUSH1 0x1F PUSH1 0x24 DUP3 ADD MSTORE PUSH32 0x4C6F7474657279206C656E677468206F757473696465206F662072616E676500 PUSH1 0x44 DUP3 ADD MSTORE PUSH1 0x64 ADD PUSH2 0xA44 JUMP JUMPDEST PUSH1 0x9 SLOAD DUP5 LT ISZERO DUP1 ISZERO PUSH2 0x1A77 JUMPI POP PUSH1 0x8 SLOAD DUP5 GT ISZERO JUMPDEST PUSH2 0x1AB7 JUMPI PUSH1 0x40 MLOAD PUSH3 0x461BCD PUSH1 0xE5 SHL DUP2 MSTORE PUSH1 0x20 PUSH1 0x4 DUP3 ADD MSTORE PUSH1 0x11 PUSH1 0x24 DUP3 ADD MSTORE PUSH17 0x4F757473696465206F66206C696D697473 PUSH1 0x78 SHL PUSH1 0x44 DUP3 ADD MSTORE PUSH1 0x64 ADD PUSH2 0xA44 JUMP JUMPDEST PUSH2 0x12C DUP4 LT ISZERO PUSH2 0x1B09 JUMPI PUSH1 0x40 MLOAD PUSH3 0x461BCD PUSH1 0xE5 SHL DUP2 MSTORE PUSH1 0x20 PUSH1 0x4 DUP3 ADD MSTORE PUSH1 0x18 PUSH1 0x24 DUP3 ADD MSTORE PUSH32 0x446973636F756E742064697669736F7220746F6F206C6F770000000000000000 PUSH1 0x44 DUP3 ADD MSTORE PUSH1 0x64 ADD PUSH2 0xA44 JUMP JUMPDEST PUSH2 0xBB8 DUP2 GT ISZERO PUSH2 0x1B53 JUMPI PUSH1 0x40 MLOAD PUSH3 0x461BCD PUSH1 0xE5 SHL DUP2 MSTORE PUSH1 0x20 PUSH1 0x4 DUP3 ADD MSTORE PUSH1 0x15 PUSH1 0x24 DUP3 ADD MSTORE PUSH21 0xA8E4CAC2E6EAE4F240CCCACA40E8DEDE40D0D2CED PUSH1 0x5B SHL PUSH1 0x44 DUP3 ADD MSTORE PUSH1 0x64 ADD PUSH2 0xA44 JUMP JUMPDEST PUSH1 0xA0 DUP3 ADD CALLDATALOAD PUSH1 0x80 DUP4 ADD CALLDATALOAD PUSH1 0x60 DUP5 ADD CALLDATALOAD PUSH1 0x40 DUP6 ADD CALLDATALOAD PUSH2 0x1B76 PUSH1 0x20 DUP8 ADD CALLDATALOAD DUP8 CALLDATALOAD PUSH2 0x38C3 JUMP JUMPDEST PUSH2 0x1B80 SWAP2 SWAP1 PUSH2 0x38C3 JUMP JUMPDEST PUSH2 0x1B8A SWAP2 SWAP1 PUSH2 0x38C3 JUMP JUMPDEST PUSH2 0x1B94 SWAP2 SWAP1 PUSH2 0x38C3 JUMP JUMPDEST PUSH2 0x1B9E SWAP2 SWAP1 PUSH2 0x38C3 JUMP JUMPDEST PUSH2 0x2710 EQ PUSH2 0x1BEE JUMPI PUSH1 0x40 MLOAD PUSH3 0x461BCD PUSH1 0xE5 SHL DUP2 MSTORE PUSH1 0x20 PUSH1 0x4 DUP3 ADD MSTORE PUSH1 0x18 PUSH1 0x24 DUP3 ADD MSTORE PUSH32 0x52657761726473206D75737420657175616C2031303030300000000000000000 PUSH1 0x44 DUP3 ADD MSTORE PUSH1 0x64 ADD PUSH2 0xA44 JUMP JUMPDEST PUSH1 0x5 DUP1 SLOAD SWAP1 PUSH1 0x0 PUSH2 0x1BFE DUP4 PUSH2 0x3AD0 JUMP JUMPDEST SWAP1 SWAP2 SSTORE POP POP PUSH1 0x40 DUP1 MLOAD PUSH2 0x1A0 DUP2 ADD SWAP1 SWAP2 MSTORE DUP1 PUSH1 0x1 DUP2 MSTORE PUSH1 0x20 ADD TIMESTAMP DUP2 MSTORE PUSH1 0x20 ADD DUP7 DUP2 MSTORE PUSH1 0x20 ADD DUP6 DUP2 MSTORE PUSH1 0x20 ADD DUP5 DUP2 MSTORE PUSH1 0x20 ADD DUP4 PUSH1 0x6 DUP1 PUSH1 0x20 MUL PUSH1 0x40 MLOAD SWAP1 DUP2 ADD PUSH1 0x40 MSTORE DUP1 SWAP3 SWAP2 SWAP1 DUP3 PUSH1 0x6 PUSH1 0x20 MUL DUP1 DUP3 DUP5 CALLDATACOPY PUSH1 0x0 SWAP3 ADD DUP3 SWAP1 MSTORE POP SWAP3 DUP5 MSTORE POP POP PUSH1 0x20 DUP1 DUP4 ADD DUP6 SWAP1 MSTORE PUSH1 0x40 DUP1 MLOAD PUSH1 0xC0 DUP1 DUP3 ADD DUP4 MSTORE DUP5 DUP3 MSTORE DUP2 DUP5 ADD DUP6 SWAP1 MSTORE DUP2 DUP4 ADD DUP6 SWAP1 MSTORE PUSH1 0x60 DUP1 DUP4 ADD DUP7 SWAP1 MSTORE PUSH1 0x80 DUP1 DUP5 ADD DUP8 SWAP1 MSTORE PUSH1 0xA0 DUP1 DUP6 ADD DUP9 SWAP1 MSTORE DUP6 DUP10 ADD SWAP5 SWAP1 SWAP5 MSTORE DUP5 MLOAD DUP1 DUP5 ADD DUP7 MSTORE DUP8 DUP2 MSTORE DUP1 DUP8 ADD DUP9 SWAP1 MSTORE DUP1 DUP7 ADD DUP9 SWAP1 MSTORE DUP1 DUP4 ADD DUP9 SWAP1 MSTORE DUP1 DUP3 ADD DUP9 SWAP1 MSTORE DUP1 DUP6 ADD DUP9 SWAP1 MSTORE SWAP2 DUP9 ADD SWAP2 SWAP1 SWAP2 MSTORE PUSH1 0x6 SLOAD SWAP1 DUP8 ADD DUP2 SWAP1 MSTORE SWAP2 DUP7 ADD SWAP2 SWAP1 SWAP2 MSTORE PUSH1 0xA SLOAD SWAP1 DUP6 ADD MSTORE PUSH1 0xE0 SWAP1 SWAP4 ADD DUP3 SWAP1 MSTORE PUSH1 0x5 SLOAD DUP3 MSTORE PUSH1 0xD SWAP1 MSTORE KECCAK256 DUP2 MLOAD DUP2 SLOAD DUP3 SWAP1 PUSH1 0xFF NOT AND PUSH1 0x1 DUP4 PUSH1 0x3 DUP2 GT ISZERO PUSH2 0x1D1F JUMPI PUSH4 0x4E487B71 PUSH1 0xE0 SHL PUSH1 0x0 MSTORE PUSH1 0x21 PUSH1 0x4 MSTORE PUSH1 0x24 PUSH1 0x0 REVERT JUMPDEST MUL OR SWAP1 SSTORE POP PUSH1 0x20 DUP3 ADD MLOAD PUSH1 0x1 DUP3 ADD SSTORE PUSH1 0x40 DUP3 ADD MLOAD PUSH1 0x2 DUP3 ADD SSTORE PUSH1 0x60 DUP3 ADD MLOAD PUSH1 0x3 DUP3 ADD SSTORE PUSH1 0x80 DUP3 ADD MLOAD PUSH1 0x4 DUP3 ADD SSTORE PUSH1 0xA0 DUP3 ADD MLOAD PUSH2 0x1D61 SWAP1 PUSH1 0x5 DUP4 ADD SWAP1 PUSH1 0x6 PUSH2 0x3185 JUMP JUMPDEST POP PUSH1 0xC0 DUP3 ADD MLOAD PUSH1 0xB DUP3 ADD SSTORE PUSH1 0xE0 DUP3 ADD MLOAD PUSH2 0x1D81 SWAP1 PUSH1 0xC DUP4 ADD SWAP1 PUSH1 0x6 PUSH2 0x3185 JUMP JUMPDEST POP PUSH2 0x100 DUP3 ADD MLOAD PUSH2 0x1D98 SWAP1 PUSH1 0x12 DUP4 ADD SWAP1 PUSH1 0x6 PUSH2 0x3185 JUMP JUMPDEST POP PUSH2 0x120 DUP3 ADD MLOAD PUSH1 0x18 DUP3 ADD SSTORE PUSH2 0x140 DUP3 ADD MLOAD PUSH1 0x19 DUP3 ADD SSTORE PUSH2 0x160 DUP3 ADD MLOAD PUSH1 0x1A DUP3 ADD SSTORE PUSH2 0x180 SWAP1 SWAP2 ADD MLOAD PUSH1 0x1B SWAP1 SWAP2 ADD DUP1 SLOAD PUSH4 0xFFFFFFFF NOT AND PUSH4 0xFFFFFFFF SWAP1 SWAP3 AND SWAP2 SWAP1 SWAP2 OR SWAP1 SSTORE PUSH1 0x5 SLOAD PUSH1 0x6 SLOAD PUSH1 0xA SLOAD PUSH1 0x40 DUP1 MLOAD TIMESTAMP DUP2 MSTORE PUSH1 0x20 DUP2 ADD DUP11 SWAP1 MSTORE SWAP1 DUP2 ADD DUP9 SWAP1 MSTORE PUSH1 0x60 DUP2 ADD SWAP3 SWAP1 SWAP3 MSTORE PUSH1 0x80 DUP3 ADD MSTORE PUSH32 0x367E70F8C0E0C0A6504D92172BDA155C02022D532FC85B5D66A9C49E31C8BC77 SWAP1 PUSH1 0xA0 ADD PUSH1 0x40 MLOAD DUP1 SWAP2 SUB SWAP1 LOG2 POP POP PUSH1 0x0 PUSH1 0xA SSTORE POP POP POP JUMP JUMPDEST PUSH1 0x3 SLOAD PUSH1 0x1 PUSH1 0x1 PUSH1 0xA0 SHL SUB AND CALLER EQ PUSH2 0x1E6A JUMPI PUSH1 0x40 MLOAD PUSH3 0x461BCD PUSH1 0xE5 SHL DUP2 MSTORE PUSH1 0x4 ADD PUSH2 0xA44 SWAP1 PUSH2 0x37DA JUMP JUMPDEST PUSH1 0x2 PUSH1 0x0 SLOAD EQ ISZERO PUSH2 0x1E8D JUMPI PUSH1 0x40 MLOAD PUSH3 0x461BCD PUSH1 0xE5 SHL DUP2 MSTORE PUSH1 0x4 ADD PUSH2 0xA44 SWAP1 PUSH2 0x37A3 JUMP JUMPDEST PUSH1 0x2 PUSH1 0x0 DUP2 DUP2 SSTORE DUP4 DUP2 MSTORE PUSH1 0xD PUSH1 0x20 MSTORE PUSH1 0x40 SWAP1 KECCAK256 SLOAD PUSH1 0xFF AND PUSH1 0x3 DUP2 GT ISZERO PUSH2 0x1EC3 JUMPI PUSH4 0x4E487B71 PUSH1 0xE0 SHL PUSH1 0x0 MSTORE PUSH1 0x21 PUSH1 0x4 MSTORE PUSH1 0x24 PUSH1 0x0 REVERT JUMPDEST EQ PUSH2 0x1F04 JUMPI PUSH1 0x40 MLOAD PUSH3 0x461BCD PUSH1 0xE5 SHL DUP2 MSTORE PUSH1 0x20 PUSH1 0x4 DUP3 ADD MSTORE PUSH1 0x11 PUSH1 0x24 DUP3 ADD MSTORE PUSH17 0x4C6F7474657279206E6F7420636C6F7365 PUSH1 0x78 SHL PUSH1 0x44 DUP3 ADD MSTORE PUSH1 0x64 ADD PUSH2 0xA44 JUMP JUMPDEST PUSH1 0xC PUSH1 0x0 SWAP1 SLOAD SWAP1 PUSH2 0x100 EXP SWAP1 DIV PUSH1 0x1 PUSH1 0x1 PUSH1 0xA0 SHL SUB AND PUSH1 0x1 PUSH1 0x1 PUSH1 0xA0 SHL SUB AND PUSH4 0xFBE5D917 PUSH1 0x40 MLOAD DUP2 PUSH4 0xFFFFFFFF AND PUSH1 0xE0 SHL DUP2 MSTORE PUSH1 0x4 ADD PUSH1 0x20 PUSH1 0x40 MLOAD DUP1 DUP4 SUB DUP2 DUP7 DUP1 EXTCODESIZE ISZERO DUP1 ISZERO PUSH2 0x1F52 JUMPI PUSH1 0x0 DUP1 REVERT JUMPDEST POP GAS STATICCALL ISZERO DUP1 ISZERO PUSH2 0x1F66 JUMPI RETURNDATASIZE PUSH1 0x0 DUP1 RETURNDATACOPY RETURNDATASIZE PUSH1 0x0 REVERT JUMPDEST POP POP POP POP PUSH1 0x40 MLOAD RETURNDATASIZE PUSH1 0x1F NOT PUSH1 0x1F DUP3 ADD AND DUP3 ADD DUP1 PUSH1 0x40 MSTORE POP DUP2 ADD SWAP1 PUSH2 0x1F8A SWAP2 SWAP1 PUSH2 0x3386 JUMP JUMPDEST DUP3 EQ PUSH2 0x1FCC JUMPI PUSH1 0x40 MLOAD PUSH3 0x461BCD PUSH1 0xE5 SHL DUP2 MSTORE PUSH1 0x20 PUSH1 0x4 DUP3 ADD MSTORE PUSH1 0x11 PUSH1 0x24 DUP3 ADD MSTORE PUSH17 0x273AB6B132B939903737BA10323930BBB7 PUSH1 0x79 SHL PUSH1 0x44 DUP3 ADD MSTORE PUSH1 0x64 ADD PUSH2 0xA44 JUMP JUMPDEST PUSH1 0xC SLOAD PUSH1 0x40 DUP1 MLOAD PUSH4 0x50E27AAD PUSH1 0xE1 SHL DUP2 MSTORE SWAP1 MLOAD PUSH1 0x0 SWAP3 PUSH1 0x1 PUSH1 0x1 PUSH1 0xA0 SHL SUB AND SWAP2 PUSH4 0xA1C4F55A SWAP2 PUSH1 0x4 DUP1 DUP4 ADD SWAP3 PUSH1 0x20 SWAP3 SWAP2 SWAP1 DUP3 SWAP1 SUB ADD DUP2 DUP7 DUP1 EXTCODESIZE ISZERO DUP1 ISZERO PUSH2 0x2011 JUMPI PUSH1 0x0 DUP1 REVERT JUMPDEST POP GAS STATICCALL ISZERO DUP1 ISZERO PUSH2 0x2025 JUMPI RETURNDATASIZE PUSH1 0x0 DUP1 RETURNDATACOPY RETURNDATASIZE PUSH1 0x0 REVERT JUMPDEST POP POP POP POP PUSH1 0x40 MLOAD RETURNDATASIZE PUSH1 0x1F NOT PUSH1 0x1F DUP3 ADD AND DUP3 ADD DUP1 PUSH1 0x40 MSTORE POP DUP2 ADD SWAP1 PUSH2 0x2049 SWAP2 SWAP1 PUSH2 0x357B JUMP JUMPDEST PUSH1 0x0 DUP5 DUP2 MSTORE PUSH1 0xD PUSH1 0x20 MSTORE PUSH1 0x40 DUP2 KECCAK256 PUSH1 0xB ADD SLOAD SWAP2 SWAP3 POP SWAP1 DUP2 SWAP1 PUSH2 0x2710 SWAP1 PUSH2 0x206F SWAP1 DUP3 PUSH2 0x3A68 JUMP JUMPDEST PUSH1 0x0 DUP8 DUP2 MSTORE PUSH1 0xD PUSH1 0x20 MSTORE PUSH1 0x40 SWAP1 KECCAK256 PUSH1 0x1A ADD SLOAD PUSH2 0x208B SWAP2 SWAP1 PUSH2 0x3A49 JUMP JUMPDEST PUSH2 0x2095 SWAP2 SWAP1 PUSH2 0x3903 JUMP JUMPDEST SWAP1 POP PUSH1 0x0 DUP1 JUMPDEST PUSH1 0x6 DUP2 PUSH4 0xFFFFFFFF AND LT ISZERO PUSH2 0x2363 JUMPI PUSH1 0x0 PUSH2 0x20B7 DUP3 PUSH1 0x5 PUSH2 0x3A7F JUMP JUMPDEST SWAP1 POP PUSH1 0x0 PUSH2 0x20C6 DUP3 PUSH1 0x1 PUSH2 0x38DB JUMP JUMPDEST PUSH2 0x20D1 SWAP1 PUSH1 0xA PUSH2 0x395E JUMP JUMPDEST PUSH2 0x20DB SWAP1 DUP9 PUSH2 0x3B0F JUMP JUMPDEST PUSH4 0xFFFFFFFF DUP1 DUP5 AND PUSH1 0x0 SWAP1 DUP2 MSTORE PUSH1 0xF PUSH1 0x20 MSTORE PUSH1 0x40 SWAP1 KECCAK256 SLOAD PUSH2 0x20FD SWAP3 SWAP2 AND PUSH2 0x38DB JUMP JUMPDEST PUSH1 0x0 DUP11 DUP2 MSTORE PUSH1 0x10 PUSH1 0x20 SWAP1 DUP2 MSTORE PUSH1 0x40 DUP1 DUP4 KECCAK256 PUSH4 0xFFFFFFFF DUP6 AND DUP5 MSTORE SWAP1 SWAP2 MSTORE SWAP1 KECCAK256 SLOAD SWAP1 SWAP2 POP PUSH2 0x212B SWAP1 DUP8 SWAP1 PUSH2 0x3A68 JUMP JUMPDEST PUSH1 0x0 DUP11 DUP2 MSTORE PUSH1 0xD PUSH1 0x20 MSTORE PUSH1 0x40 SWAP1 KECCAK256 PUSH1 0x12 ADD PUSH4 0xFFFFFFFF DUP5 AND PUSH1 0x6 DUP2 LT PUSH2 0x2161 JUMPI PUSH4 0x4E487B71 PUSH1 0xE0 SHL PUSH1 0x0 MSTORE PUSH1 0x32 PUSH1 0x4 MSTORE PUSH1 0x24 PUSH1 0x0 REVERT JUMPDEST ADD SSTORE PUSH1 0x0 DUP10 DUP2 MSTORE PUSH1 0x10 PUSH1 0x20 SWAP1 DUP2 MSTORE PUSH1 0x40 DUP1 DUP4 KECCAK256 PUSH4 0xFFFFFFFF DUP6 AND DUP5 MSTORE SWAP1 SWAP2 MSTORE SWAP1 KECCAK256 SLOAD PUSH2 0x218E SWAP1 DUP8 SWAP1 PUSH2 0x3A68 JUMP JUMPDEST ISZERO PUSH2 0x22B7 JUMPI PUSH1 0x0 DUP10 DUP2 MSTORE PUSH1 0xD PUSH1 0x20 MSTORE PUSH1 0x40 SWAP1 KECCAK256 PUSH1 0x5 ADD PUSH4 0xFFFFFFFF DUP4 AND PUSH1 0x6 DUP2 LT PUSH2 0x21C9 JUMPI PUSH4 0x4E487B71 PUSH1 0xE0 SHL PUSH1 0x0 MSTORE PUSH1 0x32 PUSH1 0x4 MSTORE PUSH1 0x24 PUSH1 0x0 REVERT JUMPDEST ADD SLOAD ISZERO PUSH2 0x22B2 JUMPI PUSH1 0x0 DUP10 DUP2 MSTORE PUSH1 0x10 PUSH1 0x20 SWAP1 DUP2 MSTORE PUSH1 0x40 DUP1 DUP4 KECCAK256 PUSH4 0xFFFFFFFF DUP6 AND DUP5 MSTORE SWAP1 SWAP2 MSTORE SWAP1 KECCAK256 SLOAD PUSH2 0x2710 SWAP1 PUSH2 0x21FF SWAP1 DUP9 SWAP1 PUSH2 0x3A68 JUMP JUMPDEST PUSH1 0x0 DUP12 DUP2 MSTORE PUSH1 0xD PUSH1 0x20 MSTORE PUSH1 0x40 SWAP1 KECCAK256 DUP8 SWAP1 PUSH1 0x5 ADD PUSH4 0xFFFFFFFF DUP7 AND PUSH1 0x6 DUP2 LT PUSH2 0x2237 JUMPI PUSH4 0x4E487B71 PUSH1 0xE0 SHL PUSH1 0x0 MSTORE PUSH1 0x32 PUSH1 0x4 MSTORE PUSH1 0x24 PUSH1 0x0 REVERT JUMPDEST ADD SLOAD PUSH2 0x2243 SWAP2 SWAP1 PUSH2 0x3A49 JUMP JUMPDEST PUSH2 0x224D SWAP2 SWAP1 PUSH2 0x3903 JUMP JUMPDEST PUSH2 0x2257 SWAP2 SWAP1 PUSH2 0x3903 JUMP JUMPDEST PUSH1 0x0 DUP11 DUP2 MSTORE PUSH1 0xD PUSH1 0x20 MSTORE PUSH1 0x40 SWAP1 KECCAK256 PUSH1 0xC ADD PUSH4 0xFFFFFFFF DUP5 AND PUSH1 0x6 DUP2 LT PUSH2 0x228D JUMPI PUSH4 0x4E487B71 PUSH1 0xE0 SHL PUSH1 0x0 MSTORE PUSH1 0x32 PUSH1 0x4 MSTORE PUSH1 0x24 PUSH1 0x0 REVERT JUMPDEST ADD SSTORE PUSH1 0x0 DUP10 DUP2 MSTORE PUSH1 0x10 PUSH1 0x20 SWAP1 DUP2 MSTORE PUSH1 0x40 DUP1 DUP4 KECCAK256 PUSH4 0xFFFFFFFF DUP6 AND DUP5 MSTORE SWAP1 SWAP2 MSTORE SWAP1 KECCAK256 SLOAD SWAP6 POP JUMPDEST PUSH2 0x234E JUMP JUMPDEST PUSH1 0x0 DUP10 DUP2 MSTORE PUSH1 0xD PUSH1 0x20 MSTORE PUSH1 0x40 DUP2 KECCAK256 PUSH1 0xC ADD PUSH4 0xFFFFFFFF DUP5 AND PUSH1 0x6 DUP2 LT PUSH2 0x22ED JUMPI PUSH4 0x4E487B71 PUSH1 0xE0 SHL PUSH1 0x0 MSTORE PUSH1 0x32 PUSH1 0x4 MSTORE PUSH1 0x24 PUSH1 0x0 REVERT JUMPDEST ADD SSTORE PUSH1 0x0 DUP10 DUP2 MSTORE PUSH1 0xD PUSH1 0x20 MSTORE PUSH1 0x40 SWAP1 KECCAK256 PUSH2 0x2710 SWAP1 DUP7 SWAP1 PUSH1 0x5 ADD PUSH4 0xFFFFFFFF DUP6 AND PUSH1 0x6 DUP2 LT PUSH2 0x232B JUMPI PUSH4 0x4E487B71 PUSH1 0xE0 SHL PUSH1 0x0 MSTORE PUSH1 0x32 PUSH1 0x4 MSTORE PUSH1 0x24 PUSH1 0x0 REVERT JUMPDEST ADD SLOAD PUSH2 0x2337 SWAP2 SWAP1 PUSH2 0x3A49 JUMP JUMPDEST PUSH2 0x2341 SWAP2 SWAP1 PUSH2 0x3903 JUMP JUMPDEST PUSH2 0x234B SWAP1 DUP6 PUSH2 0x38C3 JUMP JUMPDEST SWAP4 POP JUMPDEST POP POP DUP1 DUP1 PUSH2 0x235B SWAP1 PUSH2 0x3AEB JUMP JUMPDEST SWAP2 POP POP PUSH2 0x209B JUMP JUMPDEST POP PUSH1 0x0 DUP7 DUP2 MSTORE PUSH1 0xD PUSH1 0x20 MSTORE PUSH1 0x40 SWAP1 KECCAK256 PUSH1 0x1B DUP2 ADD DUP1 SLOAD PUSH4 0xFFFFFFFF DUP8 AND PUSH4 0xFFFFFFFF NOT SWAP1 SWAP2 AND OR SWAP1 SSTORE DUP1 SLOAD PUSH1 0xFF NOT AND PUSH1 0x3 OR SWAP1 SSTORE DUP5 ISZERO PUSH2 0x23A2 JUMPI PUSH1 0xA SSTORE PUSH1 0x0 JUMPDEST PUSH1 0x0 DUP7 DUP2 MSTORE PUSH1 0xD PUSH1 0x20 MSTORE PUSH1 0x40 SWAP1 KECCAK256 PUSH1 0x1A ADD SLOAD PUSH2 0x23BF SWAP1 DUP4 SWAP1 PUSH2 0x3A68 JUMP JUMPDEST PUSH2 0x23C9 SWAP1 DUP3 PUSH2 0x38C3 JUMP JUMPDEST PUSH1 0x4 SLOAD PUSH1 0xB SLOAD SWAP2 SWAP3 POP PUSH2 0x23E9 SWAP2 PUSH1 0x1 PUSH1 0x1 PUSH1 0xA0 SHL SUB SWAP1 DUP2 AND SWAP2 AND DUP4 PUSH2 0x2E4A JUMP JUMPDEST PUSH1 0x5 SLOAD PUSH1 0x40 DUP1 MLOAD PUSH4 0xFFFFFFFF DUP8 AND DUP2 MSTORE PUSH1 0x20 DUP2 ADD DUP7 SWAP1 MSTORE PUSH32 0x98E31A6607B8B15B4D5B91DE54F4C09FFE4C4CF162AA532C70B5213754E2E703 SWAP2 ADD PUSH1 0x40 MLOAD DUP1 SWAP2 SUB SWAP1 LOG2 POP POP PUSH1 0x1 PUSH1 0x0 SSTORE POP POP POP POP JUMP JUMPDEST PUSH1 0x0 PUSH2 0x12C DUP5 LT ISZERO PUSH2 0x248C JUMPI PUSH1 0x40 MLOAD PUSH3 0x461BCD PUSH1 0xE5 SHL DUP2 MSTORE PUSH1 0x20 PUSH1 0x4 DUP3 ADD MSTORE PUSH1 0x1F PUSH1 0x24 DUP3 ADD MSTORE PUSH32 0x4D757374206265203E3D204D494E5F444953434F554E545F44495649534F5200 PUSH1 0x44 DUP3 ADD MSTORE PUSH1 0x64 ADD PUSH2 0xA44 JUMP JUMPDEST DUP2 PUSH2 0x24D9 JUMPI PUSH1 0x40 MLOAD PUSH3 0x461BCD PUSH1 0xE5 SHL DUP2 MSTORE PUSH1 0x20 PUSH1 0x4 DUP3 ADD MSTORE PUSH1 0x1D PUSH1 0x24 DUP3 ADD MSTORE PUSH32 0x4E756D626572206F66207469636B657473206D757374206265203E2030000000 PUSH1 0x44 DUP3 ADD MSTORE PUSH1 0x64 ADD PUSH2 0xA44 JUMP JUMPDEST PUSH2 0xA10 DUP5 DUP5 DUP5 PUSH2 0x2EF0 JUMP JUMPDEST CALLER EXTCODESIZE ISZERO PUSH2 0x252A JUMPI PUSH1 0x40 MLOAD PUSH3 0x461BCD PUSH1 0xE5 SHL DUP2 MSTORE PUSH1 0x20 PUSH1 0x4 DUP3 ADD MSTORE PUSH1 0x14 PUSH1 0x24 DUP3 ADD MSTORE PUSH20 0x10DBDB9D1C9858DD081B9BDD08185B1B1BDDD959 PUSH1 0x62 SHL PUSH1 0x44 DUP3 ADD MSTORE PUSH1 0x64 ADD PUSH2 0xA44 JUMP JUMPDEST CALLER ORIGIN EQ PUSH2 0x2579 JUMPI PUSH1 0x40 MLOAD PUSH3 0x461BCD PUSH1 0xE5 SHL DUP2 MSTORE PUSH1 0x20 PUSH1 0x4 DUP3 ADD MSTORE PUSH1 0x1A PUSH1 0x24 DUP3 ADD MSTORE PUSH32 0x50726F787920636F6E7472616374206E6F7420616C6C6F776564000000000000 PUSH1 0x44 DUP3 ADD MSTORE PUSH1 0x64 ADD PUSH2 0xA44 JUMP JUMPDEST PUSH1 0x2 PUSH1 0x0 SLOAD EQ ISZERO PUSH2 0x259C JUMPI PUSH1 0x40 MLOAD PUSH3 0x461BCD PUSH1 0xE5 SHL DUP2 MSTORE PUSH1 0x4 ADD PUSH2 0xA44 SWAP1 PUSH2 0x37A3 JUMP JUMPDEST PUSH1 0x2 PUSH1 0x0 SSTORE DUP3 DUP2 EQ PUSH2 0x25E2 JUMPI PUSH1 0x40 MLOAD PUSH3 0x461BCD PUSH1 0xE5 SHL DUP2 MSTORE PUSH1 0x20 PUSH1 0x4 DUP3 ADD MSTORE PUSH1 0xF PUSH1 0x24 DUP3 ADD MSTORE PUSH15 0x9CDEE840E6C2DACA40D8CADCCEE8D PUSH1 0x8B SHL PUSH1 0x44 DUP3 ADD MSTORE PUSH1 0x64 ADD PUSH2 0xA44 JUMP JUMPDEST DUP3 PUSH2 0x2623 JUMPI PUSH1 0x40 MLOAD PUSH3 0x461BCD PUSH1 0xE5 SHL DUP2 MSTORE PUSH1 0x20 PUSH1 0x4 DUP3 ADD MSTORE PUSH1 0x11 PUSH1 0x24 DUP3 ADD MSTORE PUSH17 0x4C656E677468206D757374206265203E3 PUSH1 0x7C SHL PUSH1 0x44 DUP3 ADD MSTORE PUSH1 0x64 ADD PUSH2 0xA44 JUMP JUMPDEST PUSH1 0x7 SLOAD DUP4 GT ISZERO PUSH2 0x2668 JUMPI PUSH1 0x40 MLOAD PUSH3 0x461BCD PUSH1 0xE5 SHL DUP2 MSTORE PUSH1 0x20 PUSH1 0x4 DUP3 ADD MSTORE PUSH1 0x10 PUSH1 0x24 DUP3 ADD MSTORE PUSH16 0x546F6F206D616E79207469636B657473 PUSH1 0x80 SHL PUSH1 0x44 DUP3 ADD MSTORE PUSH1 0x64 ADD PUSH2 0xA44 JUMP JUMPDEST PUSH1 0x3 PUSH1 0x0 DUP7 DUP2 MSTORE PUSH1 0xD PUSH1 0x20 MSTORE PUSH1 0x40 SWAP1 KECCAK256 SLOAD PUSH1 0xFF AND PUSH1 0x3 DUP2 GT ISZERO PUSH2 0x269B JUMPI PUSH4 0x4E487B71 PUSH1 0xE0 SHL PUSH1 0x0 MSTORE PUSH1 0x21 PUSH1 0x4 MSTORE PUSH1 0x24 PUSH1 0x0 REVERT JUMPDEST EQ PUSH2 0x26E0 JUMPI PUSH1 0x40 MLOAD PUSH3 0x461BCD PUSH1 0xE5 SHL DUP2 MSTORE PUSH1 0x20 PUSH1 0x4 DUP3 ADD MSTORE PUSH1 0x15 PUSH1 0x24 DUP3 ADD MSTORE PUSH21 0x4C6F7474657279206E6F7420636C61696D61626C65 PUSH1 0x58 SHL PUSH1 0x44 DUP3 ADD MSTORE PUSH1 0x64 ADD PUSH2 0xA44 JUMP JUMPDEST PUSH1 0x0 DUP1 JUMPDEST DUP5 DUP2 LT ISZERO PUSH2 0x2A3F JUMPI PUSH1 0x6 DUP5 DUP5 DUP4 DUP2 DUP2 LT PUSH2 0x270E JUMPI PUSH4 0x4E487B71 PUSH1 0xE0 SHL PUSH1 0x0 MSTORE PUSH1 0x32 PUSH1 0x4 MSTORE PUSH1 0x24 PUSH1 0x0 REVERT JUMPDEST SWAP1 POP PUSH1 0x20 MUL ADD PUSH1 0x20 DUP2 ADD SWAP1 PUSH2 0x2723 SWAP2 SWAP1 PUSH2 0x355F JUMP JUMPDEST PUSH4 0xFFFFFFFF AND LT PUSH2 0x276D JUMPI PUSH1 0x40 MLOAD PUSH3 0x461BCD PUSH1 0xE5 SHL DUP2 MSTORE PUSH1 0x20 PUSH1 0x4 DUP3 ADD MSTORE PUSH1 0x14 PUSH1 0x24 DUP3 ADD MSTORE PUSH20 0x427261636B6574206F7574206F662072616E6765 PUSH1 0x60 SHL PUSH1 0x44 DUP3 ADD MSTORE PUSH1 0x64 ADD PUSH2 0xA44 JUMP JUMPDEST PUSH1 0x0 DUP7 DUP7 DUP4 DUP2 DUP2 LT PUSH2 0x278F JUMPI PUSH4 0x4E487B71 PUSH1 0xE0 SHL PUSH1 0x0 MSTORE PUSH1 0x32 PUSH1 0x4 MSTORE PUSH1 0x24 PUSH1 0x0 REVERT JUMPDEST SWAP1 POP PUSH1 0x20 MUL ADD CALLDATALOAD SWAP1 POP DUP1 PUSH1 0xD PUSH1 0x0 DUP11 DUP2 MSTORE PUSH1 0x20 ADD SWAP1 DUP2 MSTORE PUSH1 0x20 ADD PUSH1 0x0 KECCAK256 PUSH1 0x19 ADD SLOAD GT PUSH2 0x27F1 JUMPI PUSH1 0x40 MLOAD PUSH3 0x461BCD PUSH1 0xE5 SHL DUP2 MSTORE PUSH1 0x20 PUSH1 0x4 DUP3 ADD MSTORE PUSH1 0x11 PUSH1 0x24 DUP3 ADD MSTORE PUSH17 0xA8D2C6D6CAE892C840E8DEDE40D0D2CED PUSH1 0x7B SHL PUSH1 0x44 DUP3 ADD MSTORE PUSH1 0x64 ADD PUSH2 0xA44 JUMP JUMPDEST PUSH1 0x0 DUP9 DUP2 MSTORE PUSH1 0xD PUSH1 0x20 MSTORE PUSH1 0x40 SWAP1 KECCAK256 PUSH1 0x18 ADD SLOAD DUP2 LT ISZERO PUSH2 0x2845 JUMPI PUSH1 0x40 MLOAD PUSH3 0x461BCD PUSH1 0xE5 SHL DUP2 MSTORE PUSH1 0x20 PUSH1 0x4 DUP3 ADD MSTORE PUSH1 0x10 PUSH1 0x24 DUP3 ADD MSTORE PUSH16 0x5469636B6574496420746F6F206C6F77 PUSH1 0x80 SHL PUSH1 0x44 DUP3 ADD MSTORE PUSH1 0x64 ADD PUSH2 0xA44 JUMP JUMPDEST PUSH1 0x0 DUP2 DUP2 MSTORE PUSH1 0xE PUSH1 0x20 MSTORE PUSH1 0x40 SWAP1 KECCAK256 SLOAD PUSH5 0x100000000 SWAP1 DIV PUSH1 0x1 PUSH1 0x1 PUSH1 0xA0 SHL SUB AND CALLER EQ PUSH2 0x28A3 JUMPI PUSH1 0x40 MLOAD PUSH3 0x461BCD PUSH1 0xE5 SHL DUP2 MSTORE PUSH1 0x20 PUSH1 0x4 DUP3 ADD MSTORE PUSH1 0xD PUSH1 0x24 DUP3 ADD MSTORE PUSH13 0x2737BA103A34329037BBB732B9 PUSH1 0x99 SHL PUSH1 0x44 DUP3 ADD MSTORE PUSH1 0x64 ADD PUSH2 0xA44 JUMP JUMPDEST PUSH1 0x0 DUP2 DUP2 MSTORE PUSH1 0xE PUSH1 0x20 MSTORE PUSH1 0x40 DUP2 KECCAK256 DUP1 SLOAD PUSH5 0x100000000 PUSH1 0x1 PUSH1 0xC0 SHL SUB NOT AND SWAP1 SSTORE PUSH2 0x2902 DUP10 DUP4 DUP9 DUP9 DUP8 DUP2 DUP2 LT PUSH2 0x28E8 JUMPI PUSH4 0x4E487B71 PUSH1 0xE0 SHL PUSH1 0x0 MSTORE PUSH1 0x32 PUSH1 0x4 MSTORE PUSH1 0x24 PUSH1 0x0 REVERT JUMPDEST SWAP1 POP PUSH1 0x20 MUL ADD PUSH1 0x20 DUP2 ADD SWAP1 PUSH2 0x28FD SWAP2 SWAP1 PUSH2 0x355F JUMP JUMPDEST PUSH2 0x2D31 JUMP JUMPDEST SWAP1 POP DUP1 PUSH2 0x2951 JUMPI PUSH1 0x40 MLOAD PUSH3 0x461BCD PUSH1 0xE5 SHL DUP2 MSTORE PUSH1 0x20 PUSH1 0x4 DUP3 ADD MSTORE PUSH1 0x19 PUSH1 0x24 DUP3 ADD MSTORE PUSH32 0x4E6F207072697A6520666F72207468697320627261636B657400000000000000 PUSH1 0x44 DUP3 ADD MSTORE PUSH1 0x64 ADD PUSH2 0xA44 JUMP JUMPDEST DUP6 DUP6 DUP5 DUP2 DUP2 LT PUSH2 0x2971 JUMPI PUSH4 0x4E487B71 PUSH1 0xE0 SHL PUSH1 0x0 MSTORE PUSH1 0x32 PUSH1 0x4 MSTORE PUSH1 0x24 PUSH1 0x0 REVERT JUMPDEST SWAP1 POP PUSH1 0x20 MUL ADD PUSH1 0x20 DUP2 ADD SWAP1 PUSH2 0x2986 SWAP2 SWAP1 PUSH2 0x355F JUMP JUMPDEST PUSH4 0xFFFFFFFF AND PUSH1 0x5 EQ PUSH2 0x2A1E JUMPI PUSH2 0x29D8 DUP10 DUP4 DUP9 DUP9 DUP8 DUP2 DUP2 LT PUSH2 0x29B8 JUMPI PUSH4 0x4E487B71 PUSH1 0xE0 SHL PUSH1 0x0 MSTORE PUSH1 0x32 PUSH1 0x4 MSTORE PUSH1 0x24 PUSH1 0x0 REVERT JUMPDEST SWAP1 POP PUSH1 0x20 MUL ADD PUSH1 0x20 DUP2 ADD SWAP1 PUSH2 0x29CD SWAP2 SWAP1 PUSH2 0x355F JUMP JUMPDEST PUSH2 0x28FD SWAP1 PUSH1 0x1 PUSH2 0x38DB JUMP JUMPDEST ISZERO PUSH2 0x2A1E JUMPI PUSH1 0x40 MLOAD PUSH3 0x461BCD PUSH1 0xE5 SHL DUP2 MSTORE PUSH1 0x20 PUSH1 0x4 DUP3 ADD MSTORE PUSH1 0x16 PUSH1 0x24 DUP3 ADD MSTORE PUSH22 0x213930B1B5B2BA1036BAB9BA103132903434B3B432B9 PUSH1 0x51 SHL PUSH1 0x44 DUP3 ADD MSTORE PUSH1 0x64 ADD PUSH2 0xA44 JUMP JUMPDEST PUSH2 0x2A28 DUP2 DUP6 PUSH2 0x38C3 JUMP JUMPDEST SWAP4 POP POP POP DUP1 DUP1 PUSH2 0x2A37 SWAP1 PUSH2 0x3AD0 JUMP JUMPDEST SWAP2 POP POP PUSH2 0x26E4 JUMP JUMPDEST POP PUSH1 0xB SLOAD PUSH2 0x2A57 SWAP1 PUSH1 0x1 PUSH1 0x1 PUSH1 0xA0 SHL SUB AND CALLER DUP4 PUSH2 0x2E4A JUMP JUMPDEST PUSH1 0x40 DUP1 MLOAD DUP3 DUP2 MSTORE PUSH1 0x20 DUP2 ADD DUP7 SWAP1 MSTORE DUP8 SWAP2 CALLER SWAP2 PUSH32 0xF5FCA62DA8FB5D95525B49E5EAA7B20BC6BD9E2F6B64B493442D1C0BD6EF486 SWAP2 ADD PUSH1 0x40 MLOAD DUP1 SWAP2 SUB SWAP1 LOG3 POP POP PUSH1 0x1 PUSH1 0x0 SSTORE POP POP POP POP JUMP JUMPDEST PUSH1 0x1 SLOAD PUSH1 0x1 PUSH1 0x1 PUSH1 0xA0 SHL SUB AND CALLER EQ PUSH2 0x2ACB JUMPI PUSH1 0x40 MLOAD PUSH3 0x461BCD PUSH1 0xE5 SHL DUP2 MSTORE PUSH1 0x4 ADD PUSH2 0xA44 SWAP1 PUSH2 0x376E JUMP JUMPDEST PUSH1 0x1 PUSH1 0x1 PUSH1 0xA0 SHL SUB DUP4 AND PUSH2 0x2AF1 JUMPI PUSH1 0x40 MLOAD PUSH3 0x461BCD PUSH1 0xE5 SHL DUP2 MSTORE PUSH1 0x4 ADD PUSH2 0xA44 SWAP1 PUSH2 0x373E JUMP JUMPDEST PUSH1 0x1 PUSH1 0x1 PUSH1 0xA0 SHL SUB DUP3 AND PUSH2 0x2B17 JUMPI PUSH1 0x40 MLOAD PUSH3 0x461BCD PUSH1 0xE5 SHL DUP2 MSTORE PUSH1 0x4 ADD PUSH2 0xA44 SWAP1 PUSH2 0x373E JUMP JUMPDEST PUSH1 0x1 PUSH1 0x1 PUSH1 0xA0 SHL SUB DUP2 AND PUSH2 0x2B3D JUMPI PUSH1 0x40 MLOAD PUSH3 0x461BCD PUSH1 0xE5 SHL DUP2 MSTORE PUSH1 0x4 ADD PUSH2 0xA44 SWAP1 PUSH2 0x373E JUMP JUMPDEST PUSH1 0x3 DUP1 SLOAD PUSH1 0x1 PUSH1 0x1 PUSH1 0xA0 SHL SUB DUP6 DUP2 AND PUSH1 0x1 PUSH1 0x1 PUSH1 0xA0 SHL SUB NOT SWAP3 DUP4 AND DUP2 OR SWAP1 SWAP4 SSTORE PUSH1 0x4 DUP1 SLOAD DUP7 DUP4 AND SWAP1 DUP5 AND DUP2 OR SWAP1 SWAP2 SSTORE PUSH1 0x2 DUP1 SLOAD SWAP3 DUP7 AND SWAP3 SWAP1 SWAP4 AND DUP3 OR SWAP1 SWAP3 SSTORE PUSH1 0x40 DUP1 MLOAD SWAP4 DUP5 MSTORE PUSH1 0x20 DUP5 ADD SWAP3 SWAP1 SWAP3 MSTORE SWAP1 DUP3 ADD MSTORE PUSH32 0x3E945B7660001D46CFD5E729545F7F0B6C65BDEE54066A91C7ACAD703F1B731E SWAP1 PUSH1 0x60 ADD PUSH1 0x40 MLOAD DUP1 SWAP2 SUB SWAP1 LOG1 POP POP POP JUMP JUMPDEST PUSH1 0x1 SLOAD PUSH1 0x1 PUSH1 0x1 PUSH1 0xA0 SHL SUB AND CALLER EQ PUSH2 0x2BEB JUMPI PUSH1 0x40 MLOAD PUSH3 0x461BCD PUSH1 0xE5 SHL DUP2 MSTORE PUSH1 0x4 ADD PUSH2 0xA44 SWAP1 PUSH2 0x376E JUMP JUMPDEST DUP1 DUP3 GT ISZERO PUSH2 0x2C3B JUMPI PUSH1 0x40 MLOAD PUSH3 0x461BCD PUSH1 0xE5 SHL DUP2 MSTORE PUSH1 0x20 PUSH1 0x4 DUP3 ADD MSTORE PUSH1 0x1B PUSH1 0x24 DUP3 ADD MSTORE PUSH32 0x6D696E5072696365206D757374206265203C206D617850726963650000000000 PUSH1 0x44 DUP3 ADD MSTORE PUSH1 0x64 ADD PUSH2 0xA44 JUMP JUMPDEST PUSH1 0x9 SWAP2 SWAP1 SWAP2 SSTORE PUSH1 0x8 SSTORE JUMP JUMPDEST PUSH1 0x1 SLOAD PUSH1 0x1 PUSH1 0x1 PUSH1 0xA0 SHL SUB AND CALLER EQ PUSH2 0x2C70 JUMPI PUSH1 0x40 MLOAD PUSH3 0x461BCD PUSH1 0xE5 SHL DUP2 MSTORE PUSH1 0x4 ADD PUSH2 0xA44 SWAP1 PUSH2 0x376E JUMP JUMPDEST PUSH1 0x1 PUSH1 0x1 PUSH1 0xA0 SHL SUB DUP2 AND PUSH2 0x2CD5 JUMPI PUSH1 0x40 MLOAD PUSH3 0x461BCD PUSH1 0xE5 SHL DUP2 MSTORE PUSH1 0x20 PUSH1 0x4 DUP3 ADD MSTORE PUSH1 0x26 PUSH1 0x24 DUP3 ADD MSTORE PUSH32 0x4F776E61626C653A206E6577206F776E657220697320746865207A65726F2061 PUSH1 0x44 DUP3 ADD MSTORE PUSH6 0x646472657373 PUSH1 0xD0 SHL PUSH1 0x64 DUP3 ADD MSTORE PUSH1 0x84 ADD PUSH2 0xA44 JUMP JUMPDEST PUSH1 0x1 SLOAD PUSH1 0x40 MLOAD PUSH1 0x1 PUSH1 0x1 PUSH1 0xA0 SHL SUB DUP1 DUP5 AND SWAP3 AND SWAP1 PUSH32 0x8BE0079C531659141344CD1FD0A4F28419497F9722A3DAAFE3B4186F6B6457E0 SWAP1 PUSH1 0x0 SWAP1 LOG3 PUSH1 0x1 DUP1 SLOAD PUSH1 0x1 PUSH1 0x1 PUSH1 0xA0 SHL SUB NOT AND PUSH1 0x1 PUSH1 0x1 PUSH1 0xA0 SHL SUB SWAP3 SWAP1 SWAP3 AND SWAP2 SWAP1 SWAP2 OR SWAP1 SSTORE JUMP JUMPDEST PUSH1 0x0 DUP4 DUP2 MSTORE PUSH1 0xD PUSH1 0x20 SWAP1 DUP2 MSTORE PUSH1 0x40 DUP1 DUP4 KECCAK256 PUSH1 0x1B ADD SLOAD DUP6 DUP5 MSTORE PUSH1 0xE SWAP1 SWAP3 MSTORE DUP3 KECCAK256 SLOAD PUSH4 0xFFFFFFFF SWAP2 DUP3 AND SWAP2 AND DUP3 PUSH2 0x2D67 DUP6 PUSH1 0x1 PUSH2 0x38DB JUMP JUMPDEST PUSH2 0x2D72 SWAP1 PUSH1 0xA PUSH2 0x395E JUMP JUMPDEST PUSH2 0x2D7C SWAP1 DUP4 PUSH2 0x3B0F JUMP JUMPDEST PUSH4 0xFFFFFFFF DUP1 DUP8 AND PUSH1 0x0 SWAP1 DUP2 MSTORE PUSH1 0xF PUSH1 0x20 MSTORE PUSH1 0x40 SWAP1 KECCAK256 SLOAD PUSH2 0x2D9E SWAP3 SWAP2 AND PUSH2 0x38DB JUMP JUMPDEST SWAP1 POP PUSH1 0x0 PUSH2 0x2DAD DUP7 PUSH1 0x1 PUSH2 0x38DB JUMP JUMPDEST PUSH2 0x2DB8 SWAP1 PUSH1 0xA PUSH2 0x395E JUMP JUMPDEST PUSH2 0x2DC2 SWAP1 DUP6 PUSH2 0x3B0F JUMP JUMPDEST PUSH4 0xFFFFFFFF DUP1 DUP9 AND PUSH1 0x0 SWAP1 DUP2 MSTORE PUSH1 0xF PUSH1 0x20 MSTORE PUSH1 0x40 SWAP1 KECCAK256 SLOAD PUSH2 0x2DE4 SWAP3 SWAP2 AND PUSH2 0x38DB JUMP JUMPDEST SWAP1 POP DUP1 PUSH4 0xFFFFFFFF AND DUP3 PUSH4 0xFFFFFFFF AND EQ ISZERO PUSH2 0x2E3D JUMPI PUSH1 0x0 DUP9 DUP2 MSTORE PUSH1 0xD PUSH1 0x20 MSTORE PUSH1 0x40 SWAP1 KECCAK256 PUSH1 0xC ADD PUSH4 0xFFFFFFFF DUP8 AND PUSH1 0x6 DUP2 LT PUSH2 0x2E30 JUMPI PUSH4 0x4E487B71 PUSH1 0xE0 SHL PUSH1 0x0 MSTORE PUSH1 0x32 PUSH1 0x4 MSTORE PUSH1 0x24 PUSH1 0x0 REVERT JUMPDEST ADD SLOAD SWAP5 POP POP POP POP POP PUSH2 0xA13 JUMP JUMPDEST PUSH1 0x0 SWAP5 POP POP POP POP POP PUSH2 0xA13 JUMP JUMPDEST PUSH1 0x40 MLOAD PUSH1 0x1 PUSH1 0x1 PUSH1 0xA0 SHL SUB DUP4 AND PUSH1 0x24 DUP3 ADD MSTORE PUSH1 0x44 DUP2 ADD DUP3 SWAP1 MSTORE PUSH2 0x2EAD SWAP1 DUP5 SWAP1 PUSH4 0xA9059CBB PUSH1 0xE0 SHL SWAP1 PUSH1 0x64 ADD JUMPDEST PUSH1 0x40 DUP1 MLOAD PUSH1 0x1F NOT DUP2 DUP5 SUB ADD DUP2 MSTORE SWAP2 SWAP1 MSTORE PUSH1 0x20 DUP2 ADD DUP1 MLOAD PUSH1 0x1 PUSH1 0x1 PUSH1 0xE0 SHL SUB AND PUSH1 0x1 PUSH1 0x1 PUSH1 0xE0 SHL SUB NOT SWAP1 SWAP4 AND SWAP3 SWAP1 SWAP3 OR SWAP1 SWAP2 MSTORE PUSH2 0x2F27 JUMP JUMPDEST POP POP POP JUMP JUMPDEST PUSH1 0x40 MLOAD PUSH1 0x1 PUSH1 0x1 PUSH1 0xA0 SHL SUB DUP1 DUP6 AND PUSH1 0x24 DUP4 ADD MSTORE DUP4 AND PUSH1 0x44 DUP3 ADD MSTORE PUSH1 0x64 DUP2 ADD DUP3 SWAP1 MSTORE PUSH2 0x2EEA SWAP1 DUP6 SWAP1 PUSH4 0x23B872DD PUSH1 0xE0 SHL SWAP1 PUSH1 0x84 ADD PUSH2 0x2E76 JUMP JUMPDEST POP POP POP POP JUMP JUMPDEST PUSH1 0x0 DUP4 DUP3 PUSH2 0x2EFF DUP3 PUSH1 0x1 PUSH2 0x38C3 JUMP JUMPDEST PUSH2 0x2F09 SWAP2 SWAP1 PUSH2 0x3A68 JUMP JUMPDEST PUSH2 0x2F13 DUP5 DUP7 PUSH2 0x3A49 JUMP JUMPDEST PUSH2 0x2F1D SWAP2 SWAP1 PUSH2 0x3A49 JUMP JUMPDEST PUSH2 0xA10 SWAP2 SWAP1 PUSH2 0x3903 JUMP JUMPDEST PUSH1 0x0 PUSH2 0x2F7C DUP3 PUSH1 0x40 MLOAD DUP1 PUSH1 0x40 ADD PUSH1 0x40 MSTORE DUP1 PUSH1 0x20 DUP2 MSTORE PUSH1 0x20 ADD PUSH32 0x5361666545524332303A206C6F772D6C6576656C2063616C6C206661696C6564 DUP2 MSTORE POP DUP6 PUSH1 0x1 PUSH1 0x1 PUSH1 0xA0 SHL SUB AND PUSH2 0x2FF9 SWAP1 SWAP3 SWAP2 SWAP1 PUSH4 0xFFFFFFFF AND JUMP JUMPDEST DUP1 MLOAD SWAP1 SWAP2 POP ISZERO PUSH2 0x2EAD JUMPI DUP1 DUP1 PUSH1 0x20 ADD SWAP1 MLOAD DUP2 ADD SWAP1 PUSH2 0x2F9A SWAP2 SWAP1 PUSH2 0x3352 JUMP JUMPDEST PUSH2 0x2EAD JUMPI PUSH1 0x40 MLOAD PUSH3 0x461BCD PUSH1 0xE5 SHL DUP2 MSTORE PUSH1 0x20 PUSH1 0x4 DUP3 ADD MSTORE PUSH1 0x2A PUSH1 0x24 DUP3 ADD MSTORE PUSH32 0x5361666545524332303A204552433230206F7065726174696F6E20646964206E PUSH1 0x44 DUP3 ADD MSTORE PUSH10 0x1BDD081CDD58D8D95959 PUSH1 0xB2 SHL PUSH1 0x64 DUP3 ADD MSTORE PUSH1 0x84 ADD PUSH2 0xA44 JUMP JUMPDEST PUSH1 0x60 PUSH2 0xA10 DUP5 DUP5 PUSH1 0x0 DUP6 DUP6 DUP5 EXTCODESIZE PUSH2 0x3052 JUMPI PUSH1 0x40 MLOAD PUSH3 0x461BCD PUSH1 0xE5 SHL DUP2 MSTORE PUSH1 0x20 PUSH1 0x4 DUP3 ADD MSTORE PUSH1 0x1D PUSH1 0x24 DUP3 ADD MSTORE PUSH32 0x416464726573733A2063616C6C20746F206E6F6E2D636F6E7472616374000000 PUSH1 0x44 DUP3 ADD MSTORE PUSH1 0x64 ADD PUSH2 0xA44 JUMP JUMPDEST PUSH1 0x0 DUP1 DUP7 PUSH1 0x1 PUSH1 0x1 PUSH1 0xA0 SHL SUB AND DUP6 DUP8 PUSH1 0x40 MLOAD PUSH2 0x306E SWAP2 SWAP1 PUSH2 0x364D JUMP JUMPDEST PUSH1 0x0 PUSH1 0x40 MLOAD DUP1 DUP4 SUB DUP2 DUP6 DUP8 GAS CALL SWAP3 POP POP POP RETURNDATASIZE DUP1 PUSH1 0x0 DUP2 EQ PUSH2 0x30AB JUMPI PUSH1 0x40 MLOAD SWAP2 POP PUSH1 0x1F NOT PUSH1 0x3F RETURNDATASIZE ADD AND DUP3 ADD PUSH1 0x40 MSTORE RETURNDATASIZE DUP3 MSTORE RETURNDATASIZE PUSH1 0x0 PUSH1 0x20 DUP5 ADD RETURNDATACOPY PUSH2 0x30B0 JUMP JUMPDEST PUSH1 0x60 SWAP2 POP JUMPDEST POP SWAP2 POP SWAP2 POP PUSH2 0x30C0 DUP3 DUP3 DUP7 PUSH2 0x30CB JUMP JUMPDEST SWAP8 SWAP7 POP POP POP POP POP POP POP JUMP JUMPDEST PUSH1 0x60 DUP4 ISZERO PUSH2 0x30DA JUMPI POP DUP2 PUSH2 0xA13 JUMP JUMPDEST DUP3 MLOAD ISZERO PUSH2 0x30EA JUMPI DUP3 MLOAD DUP1 DUP5 PUSH1 0x20 ADD REVERT JUMPDEST DUP2 PUSH1 0x40 MLOAD PUSH3 0x461BCD PUSH1 0xE5 SHL DUP2 MSTORE PUSH1 0x4 ADD PUSH2 0xA44 SWAP2 SWAP1 PUSH2 0x370B JUMP JUMPDEST PUSH1 0x40 DUP1 MLOAD PUSH2 0x1A0 DUP2 ADD SWAP1 SWAP2 MSTORE DUP1 PUSH1 0x0 DUP2 MSTORE PUSH1 0x20 ADD PUSH1 0x0 DUP2 MSTORE PUSH1 0x20 ADD PUSH1 0x0 DUP2 MSTORE PUSH1 0x20 ADD PUSH1 0x0 DUP2 MSTORE PUSH1 0x20 ADD PUSH1 0x0 DUP2 MSTORE PUSH1 0x20 ADD PUSH2 0x313C PUSH2 0x31C3 JUMP JUMPDEST DUP2 MSTORE PUSH1 0x20 ADD PUSH1 0x0 DUP2 MSTORE PUSH1 0x20 ADD PUSH2 0x3150 PUSH2 0x31C3 JUMP JUMPDEST DUP2 MSTORE PUSH1 0x20 ADD PUSH2 0x315D PUSH2 0x31C3 JUMP JUMPDEST DUP2 MSTORE PUSH1 0x20 ADD PUSH1 0x0 DUP2 MSTORE PUSH1 0x20 ADD PUSH1 0x0 DUP2 MSTORE PUSH1 0x20 ADD PUSH1 0x0 DUP2 MSTORE PUSH1 0x20 ADD PUSH1 0x0 PUSH4 0xFFFFFFFF AND DUP2 MSTORE POP SWAP1 JUMP JUMPDEST DUP3 PUSH1 0x6 DUP2 ADD SWAP3 DUP3 ISZERO PUSH2 0x31B3 JUMPI SWAP2 PUSH1 0x20 MUL DUP3 ADD JUMPDEST DUP3 DUP2 GT ISZERO PUSH2 0x31B3 JUMPI DUP3 MLOAD DUP3 SSTORE SWAP2 PUSH1 0x20 ADD SWAP2 SWAP1 PUSH1 0x1 ADD SWAP1 PUSH2 0x3198 JUMP JUMPDEST POP PUSH2 0x31BF SWAP3 SWAP2 POP PUSH2 0x31E1 JUMP JUMPDEST POP SWAP1 JUMP JUMPDEST PUSH1 0x40 MLOAD DUP1 PUSH1 0xC0 ADD PUSH1 0x40 MSTORE DUP1 PUSH1 0x6 SWAP1 PUSH1 0x20 DUP3 MUL DUP1 CALLDATASIZE DUP4 CALLDATACOPY POP SWAP2 SWAP3 SWAP2 POP POP JUMP JUMPDEST JUMPDEST DUP1 DUP3 GT ISZERO PUSH2 0x31BF JUMPI PUSH1 0x0 DUP2 SSTORE PUSH1 0x1 ADD PUSH2 0x31E2 JUMP JUMPDEST DUP1 CALLDATALOAD PUSH1 0x1 PUSH1 0x1 PUSH1 0xA0 SHL SUB DUP2 AND DUP2 EQ PUSH2 0x320D JUMPI PUSH1 0x0 DUP1 REVERT JUMPDEST SWAP2 SWAP1 POP JUMP JUMPDEST PUSH1 0x0 DUP1 DUP4 PUSH1 0x1F DUP5 ADD SLT PUSH2 0x3223 JUMPI DUP2 DUP3 REVERT JUMPDEST POP DUP2 CALLDATALOAD PUSH8 0xFFFFFFFFFFFFFFFF DUP2 GT ISZERO PUSH2 0x323A JUMPI DUP2 DUP3 REVERT JUMPDEST PUSH1 0x20 DUP4 ADD SWAP2 POP DUP4 PUSH1 0x20 DUP3 PUSH1 0x5 SHL DUP6 ADD ADD GT ISZERO PUSH2 0x1521 JUMPI PUSH1 0x0 DUP1 REVERT JUMPDEST PUSH1 0x0 PUSH1 0x20 DUP3 DUP5 SUB SLT ISZERO PUSH2 0x3266 JUMPI DUP1 DUP2 REVERT JUMPDEST PUSH2 0xA13 DUP3 PUSH2 0x31F6 JUMP JUMPDEST PUSH1 0x0 DUP1 PUSH1 0x0 PUSH1 0x60 DUP5 DUP7 SUB SLT ISZERO PUSH2 0x3283 JUMPI DUP2 DUP3 REVERT JUMPDEST PUSH2 0x328C DUP5 PUSH2 0x31F6 JUMP JUMPDEST SWAP3 POP PUSH2 0x329A PUSH1 0x20 DUP6 ADD PUSH2 0x31F6 JUMP JUMPDEST SWAP2 POP PUSH2 0x32A8 PUSH1 0x40 DUP6 ADD PUSH2 0x31F6 JUMP JUMPDEST SWAP1 POP SWAP3 POP SWAP3 POP SWAP3 JUMP JUMPDEST PUSH1 0x0 DUP1 PUSH1 0x40 DUP4 DUP6 SUB SLT ISZERO PUSH2 0x32C3 JUMPI DUP2 DUP3 REVERT JUMPDEST PUSH2 0x32CC DUP4 PUSH2 0x31F6 JUMP JUMPDEST SWAP5 PUSH1 0x20 SWAP4 SWAP1 SWAP4 ADD CALLDATALOAD SWAP4 POP POP POP JUMP JUMPDEST PUSH1 0x0 DUP1 PUSH1 0x0 DUP1 PUSH1 0x80 DUP6 DUP8 SUB SLT ISZERO PUSH2 0x32EF JUMPI DUP1 DUP2 REVERT JUMPDEST PUSH2 0x32F8 DUP6 PUSH2 0x31F6 JUMP JUMPDEST SWAP7 PUSH1 0x20 DUP7 ADD CALLDATALOAD SWAP7 POP PUSH1 0x40 DUP7 ADD CALLDATALOAD SWAP6 PUSH1 0x60 ADD CALLDATALOAD SWAP5 POP SWAP3 POP POP POP JUMP JUMPDEST PUSH1 0x0 DUP1 PUSH1 0x20 DUP4 DUP6 SUB SLT ISZERO PUSH2 0x3324 JUMPI DUP2 DUP3 REVERT JUMPDEST DUP3 CALLDATALOAD PUSH8 0xFFFFFFFFFFFFFFFF DUP2 GT ISZERO PUSH2 0x333A JUMPI DUP3 DUP4 REVERT JUMPDEST PUSH2 0x3346 DUP6 DUP3 DUP7 ADD PUSH2 0x3212 JUMP JUMPDEST SWAP1 SWAP7 SWAP1 SWAP6 POP SWAP4 POP POP POP POP JUMP JUMPDEST PUSH1 0x0 PUSH1 0x20 DUP3 DUP5 SUB SLT ISZERO PUSH2 0x3363 JUMPI DUP1 DUP2 REVERT JUMPDEST DUP2 MLOAD PUSH2 0xA13 DUP2 PUSH2 0x3B5E JUMP JUMPDEST PUSH1 0x0 PUSH1 0x20 DUP3 DUP5 SUB SLT ISZERO PUSH2 0x337F JUMPI DUP1 DUP2 REVERT JUMPDEST POP CALLDATALOAD SWAP2 SWAP1 POP JUMP JUMPDEST PUSH1 0x0 PUSH1 0x20 DUP3 DUP5 SUB SLT ISZERO PUSH2 0x3397 JUMPI DUP1 DUP2 REVERT JUMPDEST POP MLOAD SWAP2 SWAP1 POP JUMP JUMPDEST PUSH1 0x0 DUP1 PUSH1 0x0 DUP1 PUSH1 0x0 PUSH1 0x60 DUP7 DUP9 SUB SLT ISZERO PUSH2 0x33B5 JUMPI DUP1 DUP2 REVERT JUMPDEST DUP6 CALLDATALOAD SWAP5 POP PUSH1 0x20 DUP7 ADD CALLDATALOAD PUSH8 0xFFFFFFFFFFFFFFFF DUP1 DUP3 GT ISZERO PUSH2 0x33D3 JUMPI DUP3 DUP4 REVERT JUMPDEST PUSH2 0x33DF DUP10 DUP4 DUP11 ADD PUSH2 0x3212 JUMP JUMPDEST SWAP1 SWAP7 POP SWAP5 POP PUSH1 0x40 DUP9 ADD CALLDATALOAD SWAP2 POP DUP1 DUP3 GT ISZERO PUSH2 0x33F7 JUMPI DUP3 DUP4 REVERT JUMPDEST POP PUSH2 0x3404 DUP9 DUP3 DUP10 ADD PUSH2 0x3212 JUMP JUMPDEST SWAP7 SWAP10 SWAP6 SWAP9 POP SWAP4 SWAP7 POP SWAP3 SWAP5 SWAP4 SWAP3 POP POP POP JUMP JUMPDEST PUSH1 0x0 DUP1 PUSH1 0x0 PUSH1 0x40 DUP5 DUP7 SUB SLT ISZERO PUSH2 0x3429 JUMPI DUP3 DUP4 REVERT JUMPDEST DUP4 CALLDATALOAD SWAP3 POP PUSH1 0x20 DUP5 ADD CALLDATALOAD PUSH8 0xFFFFFFFFFFFFFFFF DUP2 GT ISZERO PUSH2 0x3446 JUMPI DUP3 DUP4 REVERT JUMPDEST PUSH2 0x3452 DUP7 DUP3 DUP8 ADD PUSH2 0x3212 JUMP JUMPDEST SWAP5 SWAP8 SWAP1 SWAP7 POP SWAP4 SWAP5 POP POP POP POP JUMP JUMPDEST PUSH1 0x0 DUP1 PUSH1 0x40 DUP4 DUP6 SUB SLT ISZERO PUSH2 0x3471 JUMPI DUP2 DUP3 REVERT JUMPDEST DUP3 CALLDATALOAD SWAP2 POP PUSH1 0x20 DUP4 ADD CALLDATALOAD PUSH2 0x3483 DUP2 PUSH2 0x3B5E JUMP JUMPDEST DUP1 SWAP2 POP POP SWAP3 POP SWAP3 SWAP1 POP JUMP JUMPDEST PUSH1 0x0 DUP1 PUSH1 0x40 DUP4 DUP6 SUB SLT ISZERO PUSH2 0x34A0 JUMPI DUP2 DUP3 REVERT JUMPDEST POP POP DUP1 CALLDATALOAD SWAP3 PUSH1 0x20 SWAP1 SWAP2 ADD CALLDATALOAD SWAP2 POP JUMP JUMPDEST PUSH1 0x0 DUP1 PUSH1 0x0 PUSH1 0x60 DUP5 DUP7 SUB SLT ISZERO PUSH2 0x34C3 JUMPI DUP3 DUP4 REVERT JUMPDEST POP POP DUP2 CALLDATALOAD SWAP4 PUSH1 0x20 DUP4 ADD CALLDATALOAD SWAP4 POP PUSH1 0x40 SWAP1 SWAP3 ADD CALLDATALOAD SWAP2 SWAP1 POP JUMP JUMPDEST PUSH1 0x0 DUP1 PUSH1 0x0 DUP1 PUSH1 0x0 PUSH2 0x140 DUP7 DUP9 SUB SLT ISZERO PUSH2 0x34F2 JUMPI DUP3 DUP4 REVERT JUMPDEST DUP6 CALLDATALOAD SWAP5 POP PUSH1 0x20 DUP7 ADD CALLDATALOAD SWAP4 POP PUSH1 0x40 DUP7 ADD CALLDATALOAD SWAP3 POP PUSH2 0x120 DUP7 ADD DUP8 DUP2 GT ISZERO PUSH2 0x3515 JUMPI DUP2 DUP3 REVERT JUMPDEST SWAP5 SWAP8 SWAP4 SWAP7 POP SWAP2 SWAP5 PUSH1 0x60 ADD SWAP4 CALLDATALOAD SWAP3 SWAP2 POP POP JUMP JUMPDEST PUSH1 0x0 DUP1 PUSH1 0x0 PUSH1 0x60 DUP5 DUP7 SUB SLT ISZERO PUSH2 0x353B JUMPI DUP1 DUP2 REVERT JUMPDEST DUP4 CALLDATALOAD SWAP3 POP PUSH1 0x20 DUP5 ADD CALLDATALOAD SWAP2 POP PUSH1 0x40 DUP5 ADD CALLDATALOAD PUSH2 0x3554 DUP2 PUSH2 0x3B6F JUMP JUMPDEST DUP1 SWAP2 POP POP SWAP3 POP SWAP3 POP SWAP3 JUMP JUMPDEST PUSH1 0x0 PUSH1 0x20 DUP3 DUP5 SUB SLT ISZERO PUSH2 0x3570 JUMPI DUP1 DUP2 REVERT JUMPDEST DUP2 CALLDATALOAD PUSH2 0xA13 DUP2 PUSH2 0x3B6F JUMP JUMPDEST PUSH1 0x0 PUSH1 0x20 DUP3 DUP5 SUB SLT ISZERO PUSH2 0x358C JUMPI DUP1 DUP2 REVERT JUMPDEST DUP2 MLOAD PUSH2 0xA13 DUP2 PUSH2 0x3B6F JUMP JUMPDEST PUSH1 0x0 DUP2 MLOAD DUP1 DUP5 MSTORE PUSH1 0x20 DUP1 DUP6 ADD SWAP5 POP DUP1 DUP5 ADD DUP4 JUMPDEST DUP4 DUP2 LT ISZERO PUSH2 0x35C8 JUMPI DUP2 MLOAD ISZERO ISZERO DUP8 MSTORE SWAP6 DUP3 ADD SWAP6 SWAP1 DUP3 ADD SWAP1 PUSH1 0x1 ADD PUSH2 0x35AA JUMP JUMPDEST POP SWAP5 SWAP6 SWAP5 POP POP POP POP POP JUMP JUMPDEST DUP1 PUSH1 0x0 JUMPDEST PUSH1 0x6 DUP2 LT ISZERO PUSH2 0x2EEA JUMPI DUP2 MLOAD DUP5 MSTORE PUSH1 0x20 SWAP4 DUP5 ADD SWAP4 SWAP1 SWAP2 ADD SWAP1 PUSH1 0x1 ADD PUSH2 0x35D7 JUMP JUMPDEST PUSH1 0x0 DUP2 MLOAD DUP1 DUP5 MSTORE PUSH1 0x20 DUP1 DUP6 ADD SWAP5 POP DUP1 DUP5 ADD DUP4 JUMPDEST DUP4 DUP2 LT ISZERO PUSH2 0x35C8 JUMPI DUP2 MLOAD PUSH4 0xFFFFFFFF AND DUP8 MSTORE SWAP6 DUP3 ADD SWAP6 SWAP1 DUP3 ADD SWAP1 PUSH1 0x1 ADD PUSH2 0x3609 JUMP JUMPDEST PUSH1 0x4 DUP2 LT PUSH2 0x3649 JUMPI PUSH4 0x4E487B71 PUSH1 0xE0 SHL PUSH1 0x0 MSTORE PUSH1 0x21 PUSH1 0x4 MSTORE PUSH1 0x24 PUSH1 0x0 REVERT JUMPDEST SWAP1 MSTORE JUMP JUMPDEST PUSH1 0x0 DUP3 MLOAD PUSH2 0x365F DUP2 DUP5 PUSH1 0x20 DUP8 ADD PUSH2 0x3AA4 JUMP JUMPDEST SWAP2 SWAP1 SWAP2 ADD SWAP3 SWAP2 POP POP JUMP JUMPDEST PUSH1 0x80 DUP1 DUP3 MSTORE DUP6 MLOAD SWAP1 DUP3 ADD DUP2 SWAP1 MSTORE PUSH1 0x0 SWAP1 PUSH1 0x20 SWAP1 PUSH1 0xA0 DUP5 ADD SWAP1 DUP3 DUP10 ADD DUP5 JUMPDEST DUP3 DUP2 LT ISZERO PUSH2 0x36A2 JUMPI DUP2 MLOAD DUP5 MSTORE SWAP3 DUP5 ADD SWAP3 SWAP1 DUP5 ADD SWAP1 PUSH1 0x1 ADD PUSH2 0x3686 JUMP JUMPDEST POP POP POP DUP4 DUP2 SUB DUP3 DUP6 ADD MSTORE PUSH2 0x36B6 DUP2 DUP9 PUSH2 0x35F6 JUMP JUMPDEST SWAP2 POP POP DUP3 DUP2 SUB PUSH1 0x40 DUP5 ADD MSTORE PUSH2 0x36CB DUP2 DUP7 PUSH2 0x3597 JUMP JUMPDEST SWAP2 POP POP DUP3 PUSH1 0x60 DUP4 ADD MSTORE SWAP6 SWAP5 POP POP POP POP POP JUMP JUMPDEST PUSH1 0x40 DUP2 MSTORE PUSH1 0x0 PUSH2 0x36F0 PUSH1 0x40 DUP4 ADD DUP6 PUSH2 0x35F6 JUMP JUMPDEST DUP3 DUP2 SUB PUSH1 0x20 DUP5 ADD MSTORE PUSH2 0x3702 DUP2 DUP6 PUSH2 0x3597 JUMP JUMPDEST SWAP6 SWAP5 POP POP POP POP POP JUMP JUMPDEST PUSH1 0x20 DUP2 MSTORE PUSH1 0x0 DUP3 MLOAD DUP1 PUSH1 0x20 DUP5 ADD MSTORE PUSH2 0x372A DUP2 PUSH1 0x40 DUP6 ADD PUSH1 0x20 DUP8 ADD PUSH2 0x3AA4 JUMP JUMPDEST PUSH1 0x1F ADD PUSH1 0x1F NOT AND SWAP2 SWAP1 SWAP2 ADD PUSH1 0x40 ADD SWAP3 SWAP2 POP POP JUMP JUMPDEST PUSH1 0x20 DUP1 DUP3 MSTORE PUSH1 0x16 SWAP1 DUP3 ADD MSTORE PUSH22 0x43616E6E6F74206265207A65726F2061646472657373 PUSH1 0x50 SHL PUSH1 0x40 DUP3 ADD MSTORE PUSH1 0x60 ADD SWAP1 JUMP JUMPDEST PUSH1 0x20 DUP1 DUP3 MSTORE DUP2 DUP2 ADD MSTORE PUSH32 0x4F776E61626C653A2063616C6C6572206973206E6F7420746865206F776E6572 PUSH1 0x40 DUP3 ADD MSTORE PUSH1 0x60 ADD SWAP1 JUMP JUMPDEST PUSH1 0x20 DUP1 DUP3 MSTORE PUSH1 0x1F SWAP1 DUP3 ADD MSTORE PUSH32 0x5265656E7472616E637947756172643A207265656E7472616E742063616C6C00 PUSH1 0x40 DUP3 ADD MSTORE PUSH1 0x60 ADD SWAP1 JUMP JUMPDEST PUSH1 0x20 DUP1 DUP3 MSTORE PUSH1 0xC SWAP1 DUP3 ADD MSTORE PUSH12 0x2737BA1037B832B930BA37B9 PUSH1 0xA1 SHL PUSH1 0x40 DUP3 ADD MSTORE PUSH1 0x60 ADD SWAP1 JUMP JUMPDEST PUSH1 0x0 PUSH2 0x380 DUP3 ADD SWAP1 POP PUSH2 0x3814 DUP3 DUP5 MLOAD PUSH2 0x362B JUMP JUMPDEST PUSH1 0x20 DUP4 ADD MLOAD PUSH1 0x20 DUP4 ADD MSTORE PUSH1 0x40 DUP4 ADD MLOAD PUSH1 0x40 DUP4 ADD MSTORE PUSH1 0x60 DUP4 ADD MLOAD PUSH1 0x60 DUP4 ADD MSTORE PUSH1 0x80 DUP4 ADD MLOAD PUSH1 0x80 DUP4 ADD MSTORE PUSH1 0xA0 DUP4 ADD MLOAD PUSH2 0x384E PUSH1 0xA0 DUP5 ADD DUP3 PUSH2 0x35D3 JUMP JUMPDEST POP PUSH1 0xC0 DUP4 ADD MLOAD PUSH2 0x160 DUP2 DUP2 DUP6 ADD MSTORE PUSH1 0xE0 DUP6 ADD MLOAD SWAP2 POP PUSH2 0x180 PUSH2 0x3872 DUP2 DUP7 ADD DUP5 PUSH2 0x35D3 JUMP JUMPDEST PUSH2 0x100 DUP7 ADD MLOAD SWAP3 POP PUSH2 0x3888 PUSH2 0x240 DUP7 ADD DUP5 PUSH2 0x35D3 JUMP JUMPDEST PUSH2 0x120 DUP7 ADD MLOAD PUSH2 0x300 DUP7 ADD MSTORE PUSH2 0x140 DUP7 ADD MLOAD PUSH2 0x320 DUP7 ADD MSTORE SWAP1 DUP6 ADD MLOAD PUSH2 0x340 DUP6 ADD MSTORE DUP5 ADD MLOAD PUSH4 0xFFFFFFFF DUP2 AND PUSH2 0x360 DUP6 ADD MSTORE SWAP1 POP POP SWAP3 SWAP2 POP POP JUMP JUMPDEST PUSH1 0x0 DUP3 NOT DUP3 GT ISZERO PUSH2 0x38D6 JUMPI PUSH2 0x38D6 PUSH2 0x3B32 JUMP JUMPDEST POP ADD SWAP1 JUMP JUMPDEST PUSH1 0x0 PUSH4 0xFFFFFFFF DUP1 DUP4 AND DUP2 DUP6 AND DUP1 DUP4 SUB DUP3 GT ISZERO PUSH2 0x38FA JUMPI PUSH2 0x38FA PUSH2 0x3B32 JUMP JUMPDEST ADD SWAP5 SWAP4 POP POP POP POP JUMP JUMPDEST PUSH1 0x0 DUP3 PUSH2 0x3912 JUMPI PUSH2 0x3912 PUSH2 0x3B48 JUMP JUMPDEST POP DIV SWAP1 JUMP JUMPDEST PUSH1 0x1 DUP2 PUSH4 0xFFFFFFFF DUP3 JUMPDEST DUP1 DUP7 GT ISZERO PUSH2 0x3955 JUMPI DUP3 DUP3 DIV DUP4 GT ISZERO PUSH2 0x393B JUMPI PUSH2 0x393B PUSH2 0x3B32 JUMP JUMPDEST DUP1 DUP7 AND ISZERO PUSH2 0x3948 JUMPI SWAP3 DUP3 MUL SWAP3 JUMPDEST SWAP5 DUP6 SHR SWAP5 SWAP2 DUP1 MUL SWAP2 PUSH2 0x3921 JUMP JUMPDEST POP POP SWAP3 POP SWAP3 SWAP1 POP JUMP JUMPDEST PUSH1 0x0 PUSH4 0xFFFFFFFF PUSH2 0x3973 DUP2 DUP6 AND DUP3 DUP6 AND PUSH2 0x397B JUMP JUMPDEST SWAP5 SWAP4 POP POP POP POP JUMP JUMPDEST PUSH1 0x0 DUP3 PUSH2 0x398A JUMPI POP PUSH1 0x1 PUSH2 0x3A43 JUMP JUMPDEST DUP2 PUSH2 0x3997 JUMPI POP PUSH1 0x0 PUSH2 0x3A43 JUMP JUMPDEST DUP2 PUSH1 0x1 DUP2 EQ PUSH2 0x39AD JUMPI PUSH1 0x2 DUP2 EQ PUSH2 0x39B7 JUMPI PUSH2 0x39E8 JUMP JUMPDEST PUSH1 0x1 SWAP2 POP POP PUSH2 0x3A43 JUMP JUMPDEST PUSH1 0xFF DUP5 GT ISZERO PUSH2 0x39C8 JUMPI PUSH2 0x39C8 PUSH2 0x3B32 JUMP JUMPDEST PUSH1 0x1 DUP5 SHL SWAP2 POP PUSH4 0xFFFFFFFF DUP3 GT ISZERO PUSH2 0x39E2 JUMPI PUSH2 0x39E2 PUSH2 0x3B32 JUMP JUMPDEST POP PUSH2 0x3A43 JUMP JUMPDEST POP PUSH1 0x20 DUP4 LT PUSH2 0x133 DUP4 LT AND PUSH1 0x4E DUP5 LT PUSH1 0xB DUP5 LT AND OR ISZERO PUSH2 0x3A1F JUMPI POP DUP2 DUP2 EXP PUSH4 0xFFFFFFFF DUP2 GT ISZERO PUSH2 0x3A1A JUMPI PUSH2 0x3A1A PUSH2 0x3B32 JUMP JUMPDEST PUSH2 0x3A43 JUMP JUMPDEST PUSH2 0x3A29 DUP4 DUP4 PUSH2 0x3917 JUMP JUMPDEST DUP1 PUSH4 0xFFFFFFFF DIV DUP3 GT ISZERO PUSH2 0x3A3F JUMPI PUSH2 0x3A3F PUSH2 0x3B32 JUMP JUMPDEST MUL SWAP1 POP JUMPDEST SWAP3 SWAP2 POP POP JUMP JUMPDEST PUSH1 0x0 DUP2 PUSH1 0x0 NOT DIV DUP4 GT DUP3 ISZERO ISZERO AND ISZERO PUSH2 0x3A63 JUMPI PUSH2 0x3A63 PUSH2 0x3B32 JUMP JUMPDEST POP MUL SWAP1 JUMP JUMPDEST PUSH1 0x0 DUP3 DUP3 LT ISZERO PUSH2 0x3A7A JUMPI PUSH2 0x3A7A PUSH2 0x3B32 JUMP JUMPDEST POP SUB SWAP1 JUMP JUMPDEST PUSH1 0x0 PUSH4 0xFFFFFFFF DUP4 DUP2 AND SWAP1 DUP4 AND DUP2 DUP2 LT ISZERO PUSH2 0x3A9C JUMPI PUSH2 0x3A9C PUSH2 0x3B32 JUMP JUMPDEST SUB SWAP4 SWAP3 POP POP POP JUMP JUMPDEST PUSH1 0x0 JUMPDEST DUP4 DUP2 LT ISZERO PUSH2 0x3ABF JUMPI DUP2 DUP2 ADD MLOAD DUP4 DUP3 ADD MSTORE PUSH1 0x20 ADD PUSH2 0x3AA7 JUMP JUMPDEST DUP4 DUP2 GT ISZERO PUSH2 0x2EEA JUMPI POP POP PUSH1 0x0 SWAP2 ADD MSTORE JUMP JUMPDEST PUSH1 0x0 PUSH1 0x0 NOT DUP3 EQ ISZERO PUSH2 0x3AE4 JUMPI PUSH2 0x3AE4 PUSH2 0x3B32 JUMP JUMPDEST POP PUSH1 0x1 ADD SWAP1 JUMP JUMPDEST PUSH1 0x0 PUSH4 0xFFFFFFFF DUP1 DUP4 AND DUP2 DUP2 EQ ISZERO PUSH2 0x3B05 JUMPI PUSH2 0x3B05 PUSH2 0x3B32 JUMP JUMPDEST PUSH1 0x1 ADD SWAP4 SWAP3 POP POP POP JUMP JUMPDEST PUSH1 0x0 PUSH4 0xFFFFFFFF DUP1 DUP5 AND DUP1 PUSH2 0x3B26 JUMPI PUSH2 0x3B26 PUSH2 0x3B48 JUMP JUMPDEST SWAP3 AND SWAP2 SWAP1 SWAP2 MOD SWAP3 SWAP2 POP POP JUMP JUMPDEST PUSH4 0x4E487B71 PUSH1 0xE0 SHL PUSH1 0x0 MSTORE PUSH1 0x11 PUSH1 0x4 MSTORE PUSH1 0x24 PUSH1 0x0 REVERT JUMPDEST PUSH4 0x4E487B71 PUSH1 0xE0 SHL PUSH1 0x0 MSTORE PUSH1 0x12 PUSH1 0x4 MSTORE PUSH1 0x24 PUSH1 0x0 REVERT JUMPDEST DUP1 ISZERO ISZERO DUP2 EQ PUSH2 0x3B6C JUMPI PUSH1 0x0 DUP1 REVERT JUMPDEST POP JUMP JUMPDEST PUSH4 0xFFFFFFFF DUP2 AND DUP2 EQ PUSH2 0x3B6C JUMPI PUSH1 0x0 DUP1 REVERT INVALID LOG2 PUSH5 0x6970667358 0x22 SLT KECCAK256 0xBD 0x5E PUSH15 0x39374A38F9E80FBCDFD82D821825C6 0xAB 0xED LOG1 PUSH3 0x2F462A 0x5D STATICCALL MSIZE PUSH12 0x846CA064736F6C6343000804 STOP CALLER "
		},
		"gasEstimates": {
			"creation": {
				"codeDepositCost": "3057400",
				"executionCost": "infinite",
				"totalCost": "infinite"
			},
			"external": {
				"MAX_LENGTH_LOTTERY()": "261",
				"MAX_TREASURY_FEE()": "305",
				"MIN_DISCOUNT_DIVISOR()": "306",
				"MIN_LENGTH_LOTTERY()": "264",
				"buyTickets(uint256,uint32[])": "infinite",
				"cakeToken()": "1105",
				"calculateTotalPriceForBulkTickets(uint256,uint256,uint256)": "infinite",
				"changeRandomGenerator(address)": "infinite",
				"claimTickets(uint256,uint256[],uint32[])": "infinite",
				"closeLottery(uint256)": "infinite",
				"currentLotteryId()": "1062",
				"currentTicketId()": "1107",
				"drawFinalNumberAndMakeLotteryClaimable(uint256,bool)": "infinite",
				"injectFunds(uint256,uint256)": "infinite",
				"injectorAddress()": "1104",
				"maxNumberTicketsPerBuyOrClaim()": "1063",
				"maxPriceTicketInCake()": "1041",
				"minPriceTicketInCake()": "1041",
				"operatorAddress()": "1128",
				"owner()": "1121",
				"pendingInjectionNextLottery()": "1108",
				"randomGenerator()": "1125",
				"recoverWrongTokens(address,uint256)": "infinite",
				"renounceOwnership()": "24251",
				"setMaxNumberTicketsPerBuy(uint256)": "21126",
				"setMinAndMaxTicketPriceInCake(uint256,uint256)": "41169",
				"setOperatorAndTreasuryAndInjectorAddresses(address,address,address)": "infinite",
				"startLottery(uint256,uint256,uint256,uint256[6],uint256)": "infinite",
				"transferOwnership(address)": "24532",
				"treasuryAddress()": "1104",
				"viewCurrentLotteryId()": "1125",
				"viewLottery(uint256)": "infinite",
				"viewNumbersAndStatusesForTicketIds(uint256[])": "infinite",
				"viewRewardsForTicketId(uint256,uint256,uint32)": "infinite",
				"viewUserInfoForLotteryId(address,uint256,uint256,uint256)": "infinite"
			},
			"internal": {
				"_calculateRewardsForTicketId(uint256,uint256,uint32)": "infinite",
				"_calculateTotalPriceForBulkTickets(uint256,uint256,uint256)": "infinite",
				"_isContract(address)": "infinite"
			}
		},
		"methodIdentifiers": {
			"MAX_LENGTH_LOTTERY()": "db19da0d",
			"MAX_TREASURY_FEE()": "f2b3c809",
			"MIN_DISCOUNT_DIVISOR()": "7cb583bd",
			"MIN_LENGTH_LOTTERY()": "07fb5a9c",
			"buyTickets(uint256,uint32[])": "88303dbd",
			"cakeToken()": "8904bf2f",
			"calculateTotalPriceForBulkTickets(uint256,uint256,uint256)": "c4937ab9",
			"changeRandomGenerator(address)": "98359fa1",
			"claimTickets(uint256,uint256[],uint32[])": "c914914f",
			"closeLottery(uint256)": "9d8ca531",
			"currentLotteryId()": "6be4097c",
			"currentTicketId()": "686465b8",
			"drawFinalNumberAndMakeLotteryClaimable(uint256,bool)": "c38de539",
			"injectFunds(uint256,uint256)": "471aeab4",
			"injectorAddress()": "9c384653",
			"maxNumberTicketsPerBuyOrClaim()": "1fe86c6b",
			"maxPriceTicketInCake()": "1f73664b",
			"minPriceTicketInCake()": "31feb565",
			"operatorAddress()": "127effb2",
			"owner()": "8da5cb5b",
			"pendingInjectionNextLottery()": "12a9769d",
			"randomGenerator()": "dcbad90d",
			"recoverWrongTokens(address,uint256)": "3f138d4b",
			"renounceOwnership()": "715018a6",
			"setMaxNumberTicketsPerBuy(uint256)": "6b873788",
			"setMinAndMaxTicketPriceInCake(uint256,uint256)": "da7429f8",
			"setOperatorAndTreasuryAndInjectorAddresses(address,address,address)": "da4ca039",
			"startLottery(uint256,uint256,uint256,uint256[6],uint256)": "b1829b82",
			"transferOwnership(address)": "f2fde38b",
			"treasuryAddress()": "c5f956af",
			"viewCurrentLotteryId()": "80a06160",
			"viewLottery(uint256)": "2423807a",
			"viewNumbersAndStatusesForTicketIds(uint256[])": "8fc3539a",
			"viewRewardsForTicketId(uint256,uint256,uint32)": "2e530cae",
			"viewUserInfoForLotteryId(address,uint256,uint256,uint256)": "05531eeb"
		}
	},
	"abi": [
		{
			"inputs": [
				{
					"internalType": "address",
					"name": "_cakeTokenAddress",
					"type": "address"
				},
				{
					"internalType": "address",
					"name": "_randomGeneratorAddress",
					"type": "address"
				}
			],
			"stateMutability": "nonpayable",
			"type": "constructor"
		},
		{
			"anonymous": false,
			"inputs": [
				{
					"indexed": false,
					"internalType": "address",
					"name": "token",
					"type": "address"
				},
				{
					"indexed": false,
					"internalType": "uint256",
					"name": "amount",
					"type": "uint256"
				}
			],
			"name": "AdminTokenRecovery",
			"type": "event"
		},
		{
			"anonymous": false,
			"inputs": [
				{
					"indexed": true,
					"internalType": "uint256",
					"name": "lotteryId",
					"type": "uint256"
				},
				{
					"indexed": false,
					"internalType": "uint256",
					"name": "firstTicketIdNextLottery",
					"type": "uint256"
				}
			],
			"name": "LotteryClose",
			"type": "event"
		},
		{
			"anonymous": false,
			"inputs": [
				{
					"indexed": true,
					"internalType": "uint256",
					"name": "lotteryId",
					"type": "uint256"
				},
				{
					"indexed": false,
					"internalType": "uint256",
					"name": "injectedAmount",
					"type": "uint256"
				}
			],
			"name": "LotteryInjection",
			"type": "event"
		},
		{
			"anonymous": false,
			"inputs": [
				{
					"indexed": true,
					"internalType": "uint256",
					"name": "lotteryId",
					"type": "uint256"
				},
				{
					"indexed": false,
					"internalType": "uint256",
					"name": "finalNumber",
					"type": "uint256"
				},
				{
					"indexed": false,
					"internalType": "uint256",
					"name": "countWinningTickets",
					"type": "uint256"
				}
			],
			"name": "LotteryNumberDrawn",
			"type": "event"
		},
		{
			"anonymous": false,
			"inputs": [
				{
					"indexed": true,
					"internalType": "uint256",
					"name": "lotteryId",
					"type": "uint256"
				},
				{
					"indexed": false,
					"internalType": "uint256",
					"name": "startTime",
					"type": "uint256"
				},
				{
					"indexed": false,
					"internalType": "uint256",
					"name": "endTime",
					"type": "uint256"
				},
				{
					"indexed": false,
					"internalType": "uint256",
					"name": "priceTicketInCake",
					"type": "uint256"
				},
				{
					"indexed": false,
					"internalType": "uint256",
					"name": "firstTicketId",
					"type": "uint256"
				},
				{
					"indexed": false,
					"internalType": "uint256",
					"name": "injectedAmount",
					"type": "uint256"
				}
			],
			"name": "LotteryOpen",
			"type": "event"
		},
		{
			"anonymous": false,
			"inputs": [
				{
					"indexed": false,
					"internalType": "address",
					"name": "operator",
					"type": "address"
				},
				{
					"indexed": false,
					"internalType": "address",
					"name": "treasury",
					"type": "address"
				},
				{
					"indexed": false,
					"internalType": "address",
					"name": "injector",
					"type": "address"
				}
			],
			"name": "NewOperatorAndTreasuryAndInjectorAddresses",
			"type": "event"
		},
		{
			"anonymous": false,
			"inputs": [
				{
					"indexed": true,
					"internalType": "address",
					"name": "randomGenerator",
					"type": "address"
				}
			],
			"name": "NewRandomGenerator",
			"type": "event"
		},
		{
			"anonymous": false,
			"inputs": [
				{
					"indexed": true,
					"internalType": "address",
					"name": "previousOwner",
					"type": "address"
				},
				{
					"indexed": true,
					"internalType": "address",
					"name": "newOwner",
					"type": "address"
				}
			],
			"name": "OwnershipTransferred",
			"type": "event"
		},
		{
			"anonymous": false,
			"inputs": [
				{
					"indexed": true,
					"internalType": "address",
					"name": "claimer",
					"type": "address"
				},
				{
					"indexed": false,
					"internalType": "uint256",
					"name": "amount",
					"type": "uint256"
				},
				{
					"indexed": true,
					"internalType": "uint256",
					"name": "lotteryId",
					"type": "uint256"
				},
				{
					"indexed": false,
					"internalType": "uint256",
					"name": "numberTickets",
					"type": "uint256"
				}
			],
			"name": "TicketsClaim",
			"type": "event"
		},
		{
			"anonymous": false,
			"inputs": [
				{
					"indexed": true,
					"internalType": "address",
					"name": "buyer",
					"type": "address"
				},
				{
					"indexed": true,
					"internalType": "uint256",
					"name": "lotteryId",
					"type": "uint256"
				},
				{
					"indexed": false,
					"internalType": "uint256",
					"name": "numberTickets",
					"type": "uint256"
				}
			],
			"name": "TicketsPurchase",
			"type": "event"
		},
		{
			"inputs": [],
			"name": "MAX_LENGTH_LOTTERY",
			"outputs": [
				{
					"internalType": "uint256",
					"name": "",
					"type": "uint256"
				}
			],
			"stateMutability": "view",
			"type": "function"
		},
		{
			"inputs": [],
			"name": "MAX_TREASURY_FEE",
			"outputs": [
				{
					"internalType": "uint256",
					"name": "",
					"type": "uint256"
				}
			],
			"stateMutability": "view",
			"type": "function"
		},
		{
			"inputs": [],
			"name": "MIN_DISCOUNT_DIVISOR",
			"outputs": [
				{
					"internalType": "uint256",
					"name": "",
					"type": "uint256"
				}
			],
			"stateMutability": "view",
			"type": "function"
		},
		{
			"inputs": [],
			"name": "MIN_LENGTH_LOTTERY",
			"outputs": [
				{
					"internalType": "uint256",
					"name": "",
					"type": "uint256"
				}
			],
			"stateMutability": "view",
			"type": "function"
		},
		{
			"inputs": [
				{
					"internalType": "uint256",
					"name": "_lotteryId",
					"type": "uint256"
				},
				{
					"internalType": "uint32[]",
					"name": "_ticketNumbers",
					"type": "uint32[]"
				}
			],
			"name": "buyTickets",
			"outputs": [],
			"stateMutability": "nonpayable",
			"type": "function"
		},
		{
			"inputs": [],
			"name": "cakeToken",
			"outputs": [
				{
					"internalType": "contract IERC20",
					"name": "",
					"type": "address"
				}
			],
			"stateMutability": "view",
			"type": "function"
		},
		{
			"inputs": [
				{
					"internalType": "uint256",
					"name": "_discountDivisor",
					"type": "uint256"
				},
				{
					"internalType": "uint256",
					"name": "_priceTicket",
					"type": "uint256"
				},
				{
					"internalType": "uint256",
					"name": "_numberTickets",
					"type": "uint256"
				}
			],
			"name": "calculateTotalPriceForBulkTickets",
			"outputs": [
				{
					"internalType": "uint256",
					"name": "",
					"type": "uint256"
				}
			],
			"stateMutability": "pure",
			"type": "function"
		},
		{
			"inputs": [
				{
					"internalType": "address",
					"name": "_randomGeneratorAddress",
					"type": "address"
				}
			],
			"name": "changeRandomGenerator",
			"outputs": [],
			"stateMutability": "nonpayable",
			"type": "function"
		},
		{
			"inputs": [
				{
					"internalType": "uint256",
					"name": "_lotteryId",
					"type": "uint256"
				},
				{
					"internalType": "uint256[]",
					"name": "_ticketIds",
					"type": "uint256[]"
				},
				{
					"internalType": "uint32[]",
					"name": "_brackets",
					"type": "uint32[]"
				}
			],
			"name": "claimTickets",
			"outputs": [],
			"stateMutability": "nonpayable",
			"type": "function"
		},
		{
			"inputs": [
				{
					"internalType": "uint256",
					"name": "_lotteryId",
					"type": "uint256"
				}
			],
			"name": "closeLottery",
			"outputs": [],
			"stateMutability": "nonpayable",
			"type": "function"
		},
		{
			"inputs": [],
			"name": "currentLotteryId",
			"outputs": [
				{
					"internalType": "uint256",
					"name": "",
					"type": "uint256"
				}
			],
			"stateMutability": "view",
			"type": "function"
		},
		{
			"inputs": [],
			"name": "currentTicketId",
			"outputs": [
				{
					"internalType": "uint256",
					"name": "",
					"type": "uint256"
				}
			],
			"stateMutability": "view",
			"type": "function"
		},
		{
			"inputs": [
				{
					"internalType": "uint256",
					"name": "_lotteryId",
					"type": "uint256"
				},
				{
					"internalType": "bool",
					"name": "_autoInjection",
					"type": "bool"
				}
			],
			"name": "drawFinalNumberAndMakeLotteryClaimable",
			"outputs": [],
			"stateMutability": "nonpayable",
			"type": "function"
		},
		{
			"inputs": [
				{
					"internalType": "uint256",
					"name": "_lotteryId",
					"type": "uint256"
				},
				{
					"internalType": "uint256",
					"name": "_amount",
					"type": "uint256"
				}
			],
			"name": "injectFunds",
			"outputs": [],
			"stateMutability": "nonpayable",
			"type": "function"
		},
		{
			"inputs": [],
			"name": "injectorAddress",
			"outputs": [
				{
					"internalType": "address",
					"name": "",
					"type": "address"
				}
			],
			"stateMutability": "view",
			"type": "function"
		},
		{
			"inputs": [],
			"name": "maxNumberTicketsPerBuyOrClaim",
			"outputs": [
				{
					"internalType": "uint256",
					"name": "",
					"type": "uint256"
				}
			],
			"stateMutability": "view",
			"type": "function"
		},
		{
			"inputs": [],
			"name": "maxPriceTicketInCake",
			"outputs": [
				{
					"internalType": "uint256",
					"name": "",
					"type": "uint256"
				}
			],
			"stateMutability": "view",
			"type": "function"
		},
		{
			"inputs": [],
			"name": "minPriceTicketInCake",
			"outputs": [
				{
					"internalType": "uint256",
					"name": "",
					"type": "uint256"
				}
			],
			"stateMutability": "view",
			"type": "function"
		},
		{
			"inputs": [],
			"name": "operatorAddress",
			"outputs": [
				{
					"internalType": "address",
					"name": "",
					"type": "address"
				}
			],
			"stateMutability": "view",
			"type": "function"
		},
		{
			"inputs": [],
			"name": "owner",
			"outputs": [
				{
					"internalType": "address",
					"name": "",
					"type": "address"
				}
			],
			"stateMutability": "view",
			"type": "function"
		},
		{
			"inputs": [],
			"name": "pendingInjectionNextLottery",
			"outputs": [
				{
					"internalType": "uint256",
					"name": "",
					"type": "uint256"
				}
			],
			"stateMutability": "view",
			"type": "function"
		},
		{
			"inputs": [],
			"name": "randomGenerator",
			"outputs": [
				{
					"internalType": "contract IRandomNumberGenerator",
					"name": "",
					"type": "address"
				}
			],
			"stateMutability": "view",
			"type": "function"
		},
		{
			"inputs": [
				{
					"internalType": "address",
					"name": "_tokenAddress",
					"type": "address"
				},
				{
					"internalType": "uint256",
					"name": "_tokenAmount",
					"type": "uint256"
				}
			],
			"name": "recoverWrongTokens",
			"outputs": [],
			"stateMutability": "nonpayable",
			"type": "function"
		},
		{
			"inputs": [],
			"name": "renounceOwnership",
			"outputs": [],
			"stateMutability": "nonpayable",
			"type": "function"
		},
		{
			"inputs": [
				{
					"internalType": "uint256",
					"name": "_maxNumberTicketsPerBuy",
					"type": "uint256"
				}
			],
			"name": "setMaxNumberTicketsPerBuy",
			"outputs": [],
			"stateMutability": "nonpayable",
			"type": "function"
		},
		{
			"inputs": [
				{
					"internalType": "uint256",
					"name": "_minPriceTicketInCake",
					"type": "uint256"
				},
				{
					"internalType": "uint256",
					"name": "_maxPriceTicketInCake",
					"type": "uint256"
				}
			],
			"name": "setMinAndMaxTicketPriceInCake",
			"outputs": [],
			"stateMutability": "nonpayable",
			"type": "function"
		},
		{
			"inputs": [
				{
					"internalType": "address",
					"name": "_operatorAddress",
					"type": "address"
				},
				{
					"internalType": "address",
					"name": "_treasuryAddress",
					"type": "address"
				},
				{
					"internalType": "address",
					"name": "_injectorAddress",
					"type": "address"
				}
			],
			"name": "setOperatorAndTreasuryAndInjectorAddresses",
			"outputs": [],
			"stateMutability": "nonpayable",
			"type": "function"
		},
		{
			"inputs": [
				{
					"internalType": "uint256",
					"name": "_endTime",
					"type": "uint256"
				},
				{
					"internalType": "uint256",
					"name": "_priceTicketInCake",
					"type": "uint256"
				},
				{
					"internalType": "uint256",
					"name": "_discountDivisor",
					"type": "uint256"
				},
				{
					"internalType": "uint256[6]",
					"name": "_rewardsBreakdown",
					"type": "uint256[6]"
				},
				{
					"internalType": "uint256",
					"name": "_treasuryFee",
					"type": "uint256"
				}
			],
			"name": "startLottery",
			"outputs": [],
			"stateMutability": "nonpayable",
			"type": "function"
		},
		{
			"inputs": [
				{
					"internalType": "address",
					"name": "newOwner",
					"type": "address"
				}
			],
			"name": "transferOwnership",
			"outputs": [],
			"stateMutability": "nonpayable",
			"type": "function"
		},
		{
			"inputs": [],
			"name": "treasuryAddress",
			"outputs": [
				{
					"internalType": "address",
					"name": "",
					"type": "address"
				}
			],
			"stateMutability": "view",
			"type": "function"
		},
		{
			"inputs": [],
			"name": "viewCurrentLotteryId",
			"outputs": [
				{
					"internalType": "uint256",
					"name": "",
					"type": "uint256"
				}
			],
			"stateMutability": "view",
			"type": "function"
		},
		{
			"inputs": [
				{
					"internalType": "uint256",
					"name": "_lotteryId",
					"type": "uint256"
				}
			],
			"name": "viewLottery",
			"outputs": [
				{
					"components": [
						{
							"internalType": "enum PancakeSwapLottery.Status",
							"name": "status",
							"type": "uint8"
						},
						{
							"internalType": "uint256",
							"name": "startTime",
							"type": "uint256"
						},
						{
							"internalType": "uint256",
							"name": "endTime",
							"type": "uint256"
						},
						{
							"internalType": "uint256",
							"name": "priceTicketInCake",
							"type": "uint256"
						},
						{
							"internalType": "uint256",
							"name": "discountDivisor",
							"type": "uint256"
						},
						{
							"internalType": "uint256[6]",
							"name": "rewardsBreakdown",
							"type": "uint256[6]"
						},
						{
							"internalType": "uint256",
							"name": "treasuryFee",
							"type": "uint256"
						},
						{
							"internalType": "uint256[6]",
							"name": "cakePerBracket",
							"type": "uint256[6]"
						},
						{
							"internalType": "uint256[6]",
							"name": "countWinnersPerBracket",
							"type": "uint256[6]"
						},
						{
							"internalType": "uint256",
							"name": "firstTicketId",
							"type": "uint256"
						},
						{
							"internalType": "uint256",
							"name": "firstTicketIdNextLottery",
							"type": "uint256"
						},
						{
							"internalType": "uint256",
							"name": "amountCollectedInCake",
							"type": "uint256"
						},
						{
							"internalType": "uint32",
							"name": "finalNumber",
							"type": "uint32"
						}
					],
					"internalType": "struct PancakeSwapLottery.Lottery",
					"name": "",
					"type": "tuple"
				}
			],
			"stateMutability": "view",
			"type": "function"
		},
		{
			"inputs": [
				{
					"internalType": "uint256[]",
					"name": "_ticketIds",
					"type": "uint256[]"
				}
			],
			"name": "viewNumbersAndStatusesForTicketIds",
			"outputs": [
				{
					"internalType": "uint32[]",
					"name": "",
					"type": "uint32[]"
				},
				{
					"internalType": "bool[]",
					"name": "",
					"type": "bool[]"
				}
			],
			"stateMutability": "view",
			"type": "function"
		},
		{
			"inputs": [
				{
					"internalType": "uint256",
					"name": "_lotteryId",
					"type": "uint256"
				},
				{
					"internalType": "uint256",
					"name": "_ticketId",
					"type": "uint256"
				},
				{
					"internalType": "uint32",
					"name": "_bracket",
					"type": "uint32"
				}
			],
			"name": "viewRewardsForTicketId",
			"outputs": [
				{
					"internalType": "uint256",
					"name": "",
					"type": "uint256"
				}
			],
			"stateMutability": "view",
			"type": "function"
		},
		{
			"inputs": [
				{
					"internalType": "address",
					"name": "_user",
					"type": "address"
				},
				{
					"internalType": "uint256",
					"name": "_lotteryId",
					"type": "uint256"
				},
				{
					"internalType": "uint256",
					"name": "_cursor",
					"type": "uint256"
				},
				{
					"internalType": "uint256",
					"name": "_size",
					"type": "uint256"
				}
			],
			"name": "viewUserInfoForLotteryId",
			"outputs": [
				{
					"internalType": "uint256[]",
					"name": "",
					"type": "uint256[]"
				},
				{
					"internalType": "uint32[]",
					"name": "",
					"type": "uint32[]"
				},
				{
					"internalType": "bool[]",
					"name": "",
					"type": "bool[]"
				},
				{
					"internalType": "uint256",
					"name": "",
					"type": "uint256"
				}
			],
			"stateMutability": "view",
			"type": "function"
		}
	]
}